:100000000C945D000C9485000C9485000C94850084
:100010000C9485000C9485000C9485000C9485004C
:100020000C9485000C9485000C9485000C94670456
:100030000C9485000C9485000C9485000C9485002C
:100040000C941D040C9485000C94EB030C94C503D4
:100050000C9485000C9485000C9485000C9485000C
:100060000C9485000C9485000000000024002700FB
:100070002A0000000000250028002B0004040404CE
:100080000404040402020202020203030303030342
:10009000010204081020408001020408102001021F
:1000A00004081020000000080002010000030407FB
:1000B0000000000000000000280511241FBECFEF43
:1000C000D8E0DEBFCDBF11E0A0E0B1E0E6E4F2E1B0
:1000D00002C005900D92AE31B107D9F722E0AEE132
:1000E000B1E001C01D92A036B207E1F710E0CDE506
:1000F000D0E004C02197FE010E941609CC35D1073B
:10010000C9F70E94C0070C9421090C940000CF92FB
:10011000DF92EF92FF92DC01A03282E0B8070CF090
:100120003EC0B7FD06C0A53BB1052CF0A4EBB0E086
:1001300002C0A0E0B0E08091030228E830E069014D
:10014000C81AD10887FDD394CC0CDD1CCC0CDD1C67
:100150000D2C000CEE08FF088091040228E532E027
:10016000281B310987FD3395220F331F220F331FC0
:10017000A901330F660B770B9A01AB012C193D09CE
:100180004E095F090E94D10824EB30E040E050E0C6
:100190000E94A708C20ED31EE41EF51ED601909140
:1001A00002029C3098F58091030248E850E0481B19
:1001B000510987FD5395440F551F440F551FA41730
:1001C000B5078CF08091040228E532E0281B310944
:1001D00087FD3395220F331F220F331FAD012A17DE
:1001E0003B070CF4A90142505109440F551F2FB78A
:1001F000F894892F90E0FC01EE0FFF1F8E0F9F1FD8
:10020000FC01E75DFE4F528341832FBFFF90EF90CB
:10021000DF90CF900895CF92DF92EF92FF920F93ED
:100220001F93CF93DF936C017A018B01C0E0D0E084
:10023000CE15DF0589F0D8016D918D01D601ED91C4
:10024000FC910190F081E02DC6010995892B11F4F4
:100250007E0102C02196ECCFC701DF91CF911F91A3
:100260000F91FF90EF90DF90CF900895FC01538D98
:10027000448D252F30E0842F90E0821B930B541780
:1002800010F0CF96089501970895FC01918D828D0D
:10029000981761F0828DDF01A80FB11D5D968C91DA
:1002A000928D9F5F9F73928F90E008958FEF9FEFE5
:1002B0000895FC01918D828D981731F0828DE80FA1
:1002C000F11D858D90E008958FEF9FEF0895FC015B
:1002D000918D228D892F90E0805C9F4F821B910928
:1002E0008F73992708958DE491E00E94670121E0C2
:1002F000892B09F420E0822F0895FC01848DDF0111
:10030000A80FB11DA35ABF4F2C91848D90E0019688
:100310008F739927848FA689B7892C93A089B18977
:100320008C9180648C93938D848D981306C0028881
:10033000F389E02D80818F7D80830895EF92FF9275
:100340000F931F93CF93DF93EC0181E0888F9B8DF8
:100350008C8D981305C0E889F989808185FD24C0BA
:10036000F62E0B8D10E00F5F1F4F0F731127E02E3D
:100370008C8DE8120CC00FB607FCFACFE889F9891A
:10038000808185FFF5CFCE010E947D01F1CF8B8D5D
:10039000FE01E80FF11DE35AFF4FF0820B8FEA894F
:1003A000FB898081806207C0EE89FF896083E889CC
:1003B000F98980818064808381E090E0DF91CF9132
:1003C0001F910F91FF90EF900895CF93DF93EC0171
:1003D000888D8823C9F0EA89FB89808185FD05C065
:1003E000A889B9898C9186FD0FC00FB607FCF5CF9F
:1003F000808185FFF2CFA889B9898C9185FFEDCFE7
:10040000CE010E947D01E7CFDF91CF91089580E07A
:1004100090E0892B29F00E94730181110C94000057
:10042000089590E0FC01EC55FF4F3491FC01E0573A
:10043000FF4F2491FC01E458FF4FE491EE2309F4AF
:100440003BC0332339F1333091F038F43130A9F027
:10045000323001F584B58F7D12C0373091F03830DD
:10046000A1F03430B9F4809180008F7D03C0809179
:1004700080008F77809380000DC084B58F7784BD16
:1004800009C08091B0008F7703C08091B0008F7D4C
:100490008093B000F0E0EE0FFF1FEE58FF4FA591E4
:1004A000B4918FB7F894EC91611103C020952E237D
:1004B00001C02E2B2C938FBF0895CF93DF9390E034
:1004C000FC01E057FF4F2491FC01E458FF4F849159
:1004D000882361F190E0880F991FFC01E859FF4FD4
:1004E000C591D491FC01EE58FF4FA591B4916111D3
:1004F00009C09FB7F8948881209582238883EC9166
:100500002E230BC0623061F49FB7F8943881822F9C
:10051000809583238883EC912E2B2C939FBF06C05C
:100520008FB7F894E8812E2B28838FBFDF91CF916E
:1005300008953FB7F8948091250190912601A091EC
:100540002701B091280126B5A89B05C02F3F19F0BF
:100550000196A11DB11D3FBFBA2FA92F982F882743
:10056000820F911DA11DB11DBC01CD0142E0660F9E
:10057000771F881F991F4A95D1F708958F929F92F0
:10058000AF92BF92CF92DF92EF92FF920E949902B8
:100590004B015C0188EEC82E83E0D82EE12CF12CB3
:1005A0000E949902DC01CB0188199909AA09BB09AB
:1005B000883E9340A105B10558F021E0C21AD10848
:1005C000E108F10888EE880E83E0981EA11CB11C9A
:1005D000C114D104E104F10419F7FF90EF90DF900A
:1005E000CF90BF90AF909F908F900895CF93DF935F
:1005F000EC0160E08E810E94110261E08E810E9418
:10060000110260E08E810E9411028BE891E0019757
:10061000F1F7DF91CF910895CF92DF92EF92FF92A1
:100620000F931F93CF93DF937C016C0187E0C80E7B
:10063000D11CC0E0D0E0062F10E0B8010C2E02C0A3
:10064000759567950A94E2F76170F60181916F01E3
:100650000E9411022196C430D10579F7C701DF91BC
:10066000CF911F910F91FF90EF90DF90CF900C945E
:10067000F602CF92DF92EF92FF920F931F93CF93E8
:10068000DF93EC01F62E642F8C810E9411028D8184
:100690008F3F19F060E00E9411028F850F2D10E04E
:1006A00084FF25C06E0187E0C80ED11CE12CF12C1F
:1006B000B8010E2C02C0759567950A94E2F7617037
:1006C000F60181916F010E941102FFEFEF1AFF0AFC
:1006D00088E0E816F10461F7CE01DF91CF911F9118
:1006E0000F91FF90EF90DF90CF900C94F602B8013D
:1006F00084E0759567958A95E1F7CE010E940C0319
:100700006F2DCE01DF91CF911F910F91FF90EF9050
:10071000DF90CF900C940C0341E00E94390381E0FC
:1007200090E00895089580E090E00895FC01909194
:100730001F019C30A0F481E0890F80931F019083FA
:10074000892F90E0FC01EE0FFF1F8E0F9F1FFC0111
:10075000E75DFE4F88EB9BE09283818308958FEFE6
:1007600080830895CF93DF93EC01862F688379838C
:100770005B834A8361E00E945D0261E08A81DF91D0
:10078000CF910C945D020E941C091F920F920FB62C
:100790000F9211242F933F934F935F936F937F9307
:1007A0008F939F93AF93BF93EF93FF938DE491E06B
:1007B0000E947D01FF91EF91BF91AF919F918F9129
:1007C0007F916F915F914F913F912F910F900FBE4D
:1007D0000F901F9018951F920F920FB60F92112431
:1007E0002F938F939F93EF93FF93E0915D01F0918F
:1007F0005E018081E0916301F091640182FD12C08D
:100800009081809166018F5F8F73209167018217BD
:1008100051F0E0916601F0E0E35BFE4F958F80932D
:10082000660101C08081FF91EF919F918F912F917F
:100830000F900FBE0F901F9018951F920F920FB63A
:100840000F9211242F933F938F939F93AF93BF9356
:100850008091210190912201A0912301B091240166
:100860003091200123E0230F2D3720F40196A11DA4
:10087000B11D05C026E8230F0296A11DB11D2093CE
:1008800020018093210190932201A0932301B09332
:1008900024018091250190912601A0912701B0911A
:1008A00028010196A11DB11D809325019093260179
:1008B000A0932701B0932801BF91AF919F918F9191
:1008C0003F912F910F900FBE0F901F9018951F9280
:1008D0000F920FB60F9211242F933F934F935F9374
:1008E0006F937F938F939F93AF93BF93EF93FF93F8
:1008F00080911E0187FF05C0109285001092840030
:100900001BC020911E01022E000C330B80911F0191
:1009100090E02817390784F480911E01082E000CFE
:10092000990BFC01EE0FFF1F8E0F9F1FFC01E75D6F
:10093000FE4F808186FD15C080911E018F5F8093E0
:100940001E0120911E01022E000C330B80911F010D
:1009500090E028173907C4F480911E018C3064F1AF
:1009600013C080911E01082E000C990BFC01EE0FA4
:10097000FF1F8E0F9F1FFC01E75DFE4F808160E02F
:100980008F730E941102D8CF8091840090918500CE
:10099000049680349C4918F480E49CE905C0809159
:1009A000840090918500049690938900809388003C
:1009B0008FEF80931E013BC0209184003091850011
:1009C00080911E01082E000C990BFC01EE0FFF1FF9
:1009D0008E0F9F1FFC01E75DFE4F81819281820F88
:1009E000931F909389008093880080911E01082EA8
:1009F000000C990BFC01EE0FFF1F8E0F9F1FFC01D7
:100A0000E75DFE4F808186FF12C080911E01082E97
:100A1000000C990BFC01EE0FFF1F8E0F9F1FFC01B6
:100A2000E75DFE4F808161E08F730E941102FF91AC
:100A3000EF91BF91AF919F918F917F916F915F9156
:100A40004F913F912F910F900FBE0F901F901895CF
:100A50002F923F924F925F926F927F928F929F92CE
:100A6000AF92BF92CF92DF92EF92FF920F931F93BC
:100A7000CF93DF93CDB7DEB76E970FB6F894DEBF96
:100A80000FBECDBF1092500110924F0188EE93E03F
:100A9000A0E0B0E08093510190935201A0935301E4
:100AA000B093540184E091E090934E0180934D0106
:100AB00085EC90E090935A018093590184EC90E08A
:100AC00090935C0180935B0180EC90E090935E01D9
:100AD00080935D0181EC90E09093600180935F01D1
:100AE00082EC90E0909362018093610186EC90E04B
:100AF00090936401809363011092660110926701E4
:100B000010926801109269014AE050E069E070E0DB
:100B10008CE592E00E94B20347E050E068E070E0AC
:100B200088E592E00E94B20343E050E062E070E0AA
:100B300084E592E00E94B203E0905402F0905502E6
:100B4000009156021091570284E492E00E949603AD
:100B500087E492E00E9496038BE090E090934B0232
:100B600080934A0289E090E090934F0280934E0276
:100B70008AE090E090934D0280934C02F0925102F3
:100B8000E0925002109353020093520262E086E119
:100B90000E945D0262E088E10E945D024CE050E04C
:100BA0006BE070E080E492E00E94B2038091420228
:100BB00090914302209140023091410230933B02D8
:100BC00020933A0290933D0280933C0201E010E0B2
:100BD00010933F0200933E0244E050E065E070E075
:100BE00086E392E00E94B20360905802709059022E
:100BF00080905A0290905B02A0905C02B0905D02DF
:100C0000C0905E02D0905F0280E1E4E4F2E0DE0199
:100C1000119601900D928A95E1F7E0904A02F090CA
:100C20004B0220914C0230914D0220904E023090A8
:100C30004F0286E0EAE3F2E0DE01519601900D9268
:100C40008A95E1F740913E0250913F028091360231
:100C500090913702988F8F8B809138029091390252
:100C60009A8F898F8DE0482E512C50920602409227
:100C70000502509208024092070250920A024092E6
:100C8000090250920C0240920B0250920E024092C6
:100C90000D025092100240920F028DE192E02D8FD2
:100CA0003E8F4B8F5C8F0E94960380E292E00E9401
:100CB000960350922A024092290250922C024092AE
:100CC0002B0262E086E10E945D0262E088E10E9400
:100CD0005D0250922E0240922D02509230024092BC
:100CE0002F02109332020093310283E392E00E94BC
:100CF000960370920602609205029092080280921A
:100D00000702B0920A02A0920902D0920C02C0928D
:100D10000B02F0922402E0922302309228022092E9
:100D200027022D8D3E8D30932602209325028D853E
:100D30009E85AF85B88990932A0280932902B0934B
:100D40002C02A0932B0289899A89AB89BC89909344
:100D50002E0280932D02B0933002A0932F024B8D70
:100D60005C8D509332024093310262E086E10E9432
:100D70005D0262E088E10E945D028F89988D909308
:100D80000E0280930D02898D9A8D909310028093AC
:100D90000F0282E092E00E9496031092ED01109201
:100DA000EC0186E191E09093EB018093EA018CE104
:100DB0008093EE018FEF8093EF018EE18093F0013D
:100DC00080E28093F10182E28093F20184E28093D9
:100DD000F30186E28093F4011092F5011092F6017E
:100DE0001092F7011092F8011092F90181E08093BE
:100DF000FD011092FE0180E48093FF0180E1809369
:100E0000000280E58093010261E08CE10E945D02B6
:100E10008091EF018F3F19F061E00E945D0261E077
:100E20008091F0010E945D0200E010E08091F901E4
:100E300084FD03C084E090E002C088E090E00817E1
:100E4000190754F4F801E651FE4F61E087810E94D2
:100E50005D020F5F1F4FEACF8BE39DE00197F1F733
:100E600060E08091EE010E94110260E08091F0014B
:100E70000E9411028091EF018F3F19F060E00E9403
:100E800011026091F90164FD21C063E08AEE91E0F6
:100E90000E940C030BE416E4C8010197F1F763E02C
:100EA0008AEE91E00E940C03C8010197F1F763E01C
:100EB0008AEE91E00E940C0383E592E00197F1F73E
:100EC00062E08AEE91E00E940C031EC0606240E086
:100ED0008AEE91E00E9439038BE496E40197F1F7E2
:100EE0006091F901606240E08AEE91E00E9439036E
:100EF00083E592E00197F1F76091F901606240E0CB
:100F00008AEE91E00E9439036091F901606240E04D
:100F10008AEE91E00E94390384E08093FA0140E078
:100F20006CE08AEE91E00E94390340E061E08AEED5
:100F300091E00E9439038BE39FE10197F1F782E092
:100F40008093FB0140E066E08AEE91E06E960FB67A
:100F5000F894DEBF0FBECDBFDF91CF911F910F91EF
:100F6000FF90EF90DF90CF90BF90AF909F908F90C9
:100F70007F906F905F904F903F902F900C9439032B
:100F8000789484B5826084BD84B5816084BD85B564
:100F9000826085BD85B5816085BD80916E00816070
:100FA00080936E0010928100809181008260809316
:100FB0008100809181008160809381008091800018
:100FC0008160809380008091B10084608093B10043
:100FD0008091B00081608093B00080917A0084603D
:100FE00080937A0080917A00826080937A00809169
:100FF0007A00816080937A0080917A008068809383
:101000007A001092C100E0915D01F0915E0182E0F2
:101010008083E0915901F0915A011082E0915B01C7
:10102000F0915C018FEC808310926501E091610189
:10103000F091620186E08083E0915F01F0916001B0
:10104000808180618083E0915F01F0916001808107
:1010500088608083E0915F01F09160018081806809
:101060008083E0915F01F091600180818F7D8083BA
:10107000809102028C3008F051C061E086E00E944D
:101080005D0280910202E82FF0E09F01220F331FE2
:10109000E20FF31FE75DFE4F9081907C9660908396
:1010A00010920302109204026CE00E940A099CE074
:1010B000899FB001112440E050E09A01260F371FAC
:1010C000F901EE0FFF1F2E0F3F1FF901E75DFE4FE5
:1010D000908196FD16C04F5F5F4F4C30510569F708
:1010E00081110FC01092800082E0809381001092E5
:1010F000850010928400B19A80916F008260809385
:101100006F00E0910202F0E0CF01880F991FE80F15
:10111000F91FE75DFE4F808180648083C0E0D0E0EE
:10112000CE010E9487000E94BE022A96CA35D105D0
:10113000B9F7CEE6D0E0CE010E9487000E94BE0241
:101140002A97C431D105B9F70E940702E7CF052ECF
:1011500097FB1EF400940E94BE0857FD07D00E9422
:10116000D90807FC03D04EF40C94BE085095409566
:10117000309521953F4F4F4F5F4F08959095809543
:10118000709561957F4F8F4F9F4F08950E94FB0888
:10119000A59F900DB49F900DA49F800D911D1124CB
:1011A0000895B7FF0C94C6080E94C608821B930BD3
:1011B0000895A1E21A2EAA1BBB1BFD010DC0AA1F98
:1011C000BB1FEE1FFF1FA217B307E407F50720F0B0
:1011D000A21BB30BE40BF50B661F771F881F991F2B
:1011E0001A9469F760957095809590959B01AC0174
:1011F000BD01CF010895A29FB001B39FC001A39F7D
:10120000700D811D1124911DB29F700D811D11243F
:10121000911D0895991B79E004C0991F961708F055
:10122000961B881F7A95C9F780950895EE0FFF1FCA
:101230000590F491E02D099481E090E0F8940C94ED
:061240002109F894FFCF24
:10124600000000009E010B013601E5016701450122
:0E1256005901000000008C030B01930392036A
:00000001FF
