:100000000C949E000C94C6000C94C6000C94C60080
:100010000C94C6000C94C6000C94C6000C94C60048
:100020000C94C6000C94C6000C94C6000C942A06CE
:100030000C94C6000C94C6000C94C6000C94C60028
:100040000C943E050C94C6000C94B3030C948D03E1
:100050000C94C6000C94C6000C94C6000C94C60008
:100060000C94C6000C94C60007634236B79BD8A711
:100070001A39685618AEBAAB558C1D3CB7CC5763CD
:10008000BD6DEDFD753EF6177231BF000000803F7B
:1000900008000000BE922449123EABAAAA2ABECD97
:1000A000CCCC4C3E00000080BEABAAAAAA3E000009
:1000B0000000BF000000803F000000000008417801
:1000C000D3BB4387D1133D190E3CC3BD4282AD2B38
:1000D0003E68EC8276BED98FE1A93E4C80EFFFBE30
:1000E00001C4FF7F3F00000000000000000024006A
:1000F00027002A0000000000250028002B0004042F
:1001000004040404040402020202020203030303BF
:10011000030301020408102040800102040810209B
:100120000102040810200000000800020100000382
:1001300004070000000000000000560C11241FBE40
:10014000CFEFD8E0DEBFCDBF11E0A0E0B1E0E8ED39
:10015000F5E202C005900D92AC3BB107D9F722E061
:10016000ACEBB1E001C01D92A63FB207E1F710E091
:10017000CEE9D0E004C02197FE010E94DF12CD3904
:10018000D107C9F70E9466080C94EA120C9400008B
:10019000CF92DF92EF92FF920F931F93CF93DF9353
:1001A0006C017A018B01C0E0D0E0CE15DF0589F04B
:1001B000D8016D918D01D601ED91FC910190F081F6
:1001C000E02DC6010995892B11F47E0102C021960C
:1001D000ECCFC701DF91CF911F910F91FF90EF906E
:1001E000DF90CF900895FC01538D448D252F30E092
:1001F000842F90E0821B930B541710F0CF96089534
:1002000001970895FC01918D828D981761F0828D80
:10021000DF01A80FB11D5D968C91928D9F5F9F733A
:10022000928F90E008958FEF9FEF0895FC01918DDC
:10023000828D981731F0828DE80FF11D858D90E049
:1002400008958FEF9FEF0895FC01918D228D892FE6
:1002500090E0805C9F4F821B91098F7399270895CE
:100260008BEE91E00E94240121E0892B09F420E02B
:10027000822F0895FC01848DDF01A80FB11DA35AC0
:10028000BF4F2C91848D90E001968F739927848FB6
:10029000A689B7892C93A089B1898C9180648C93AD
:1002A000938D848D981306C00288F389E02D808198
:1002B0008F7D80830895EF92FF920F931F93CF93CA
:1002C000DF93EC0181E0888F9B8D8C8D981305C0A6
:1002D000E889F989808185FD24C0F62E0B8D10E018
:1002E0000F5F1F4F0F731127E02E8C8DE8120CC08B
:1002F0000FB607FCFACFE889F989808185FFF5CF31
:10030000CE010E943A01F1CF8B8DFE01E80FF11D65
:10031000E35AFF4FF0820B8FEA89FB89808180626C
:1003200007C0EE89FF896083E889F989808180644C
:10033000808381E090E0DF91CF911F910F91FF903A
:10034000EF900895CF93DF93EC01888D8823C9F057
:10035000EA89FB89808185FD05C0A889B9898C91CE
:1003600086FD0FC00FB607FCF5CF808185FFF2CF69
:10037000A889B9898C9185FFEDCFCE010E943A0101
:10038000E7CFDF91CF91089580E090E0892B29F0AD
:100390000E94300181110C94000008953FB7F89439
:1003A0008091E7019091E801A091E901B091EA0103
:1003B00026B5A89B05C02F3F19F00196A11DB11DC0
:1003C0003FBFBA2FA92F982F8827820F911DA11DFB
:1003D000B11DBC01CD0142E0660F771F881F991F38
:1003E0004A95D1F708958F929F92AF92BF92CF9284
:1003F000DF92EF92FF926B017C010E94CE014B01D4
:100400005C01C114D104E104F104F1F00E94CE01B9
:10041000DC01CB0188199909AA09BB09883E9340E0
:10042000A105B10570F321E0C21AD108E108F10875
:1004300088EE880E83E0981EA11CB11CC114D10463
:10044000E104F10419F7DDCFFF90EF90DF90CF903A
:10045000BF90AF909F908F900895089580E090E0B6
:100460000895CF92DF92EF92FF92CF93DF93EC014A
:10047000603282E078070CF03DC077FD06C0653B36
:1004800071052CF064EB70E002C060E070E08981DF
:1004900028E830E06901C81AD10887FDD394CC0C54
:1004A000DD1CCC0CDD1C0D2C000CEE08FF088A8135
:1004B00028E532E0281B310987FD3395220F331FD1
:1004C000220F331FC901330FAA0BBB0B9C01AD01D7
:1004D0002C193D094E095F09DB010E94EA0E24EB4D
:1004E00030E040E050E00E94C00EC20ED31EE41E79
:1004F000F51EB60188818C3080F5998148E850E07E
:10050000491B510997FD5395440F551F440F551F23
:100510006417750784F09A8128E532E0291B3109B8
:1005200097FD3395220F331F220F331FAB01261780
:1005300037070CF4A90142505109440F551F2FB73A
:10054000F89490E0FC01EE0FFF1F8E0F9F1FFC013F
:10055000E254FE4F528341832FBFDF91CF91FF9032
:10056000EF90DF90CF900895CF93DF9381E090E0FC
:100570000E946F07C8E8D2E09987888782E090E000
:100580000E946F079B878A8783E090E00E946F0735
:100590009D878C8784E090E00E946F079F878E87FD
:1005A00085E090E00E946F07998B888B86E090E051
:1005B0000E946F079B8B8A8BDF91CF9108950097E4
:1005C00069F0FC0101900020E9F73197AF01481B69
:1005D000590BBC018BEE91E00C94C80080E090E0D8
:1005E0000895CF93DF930E94DF02EC018FE191E049
:1005F0000E94DF028C0F9D1FDF91CF9108958F9293
:100600009F92AF92BF920F931F93CF93DF93CDB77B
:10061000DEB7A1970FB6F894DEBF0FBECDBF19A20B
:10062000423008F44AE08E010F5D1F4F842E912C5A
:10063000A12CB12CA50194010E94F20EE62FB90164
:10064000CA0101501109EA3014F4E05D01C0E95C0F
:10065000D801EC93232B242B252B61F7C8010E9492
:10066000DF02A1960FB6F894DEBF0FBECDBFDF91BB
:10067000CF911F910F91BF90AF909F908F90089551
:10068000CF92DF92EF92FF92CF93DF936B017C01C9
:10069000E091EB01F091EC010190F081E02D6DE231
:1006A0008BEE91E00995EC0166277727CB016C1959
:1006B0007D098E099F094AE00E94FF028C0F9D1F51
:1006C000DF91CF91FF90EF90DF90CF9008950C9441
:1006D000DF02CF93DF93BC01990F880B990B97FF33
:1006E00003C00E94400303C04AE00E94FF02EC01E5
:1006F0008FE191E00E94DF028C0F9D1FDF91CF916F
:100700000895BC01990F880B990B97FD0C94400339
:100710004AE00C94FF020E94E5121F920F920FB65E
:100720000F9211242F933F934F935F936F937F9377
:100730008F939F93AF93BF93EF93FF938BEE91E0D3
:100740000E943A01FF91EF91BF91AF919F918F91DC
:100750007F916F915F914F913F912F910F900FBEBD
:100760000F901F9018951F920F920FB60F921124A1
:100770002F938F939F93EF93FF93E091FB01F09161
:10078000FC018081E0910102F091020282FD12C021
:100790009081809104028F5F8F73209105028217F0
:1007A00051F0E0910402F0E0E551FE4F958F809307
:1007B000040201C08081FF91EF919F918F912F9151
:1007C0000F900FBE0F901F90189590E0FC01EA5D0E
:1007D000FE4F3491FC01EE5EFE4F2491FC01E2508D
:1007E000FF4FE491EE2309F43BC0332339F133305A
:1007F00091F038F43130A9F0323001F584B58F7DB5
:1008000012C0373091F03830A1F03430B9F4809113
:1008100080008F7D03C0809180008F77809380005F
:100820000DC084B58F7784BD09C08091B0008F77EB
:1008300003C08091B0008F7D8093B000F0E0EE0F98
:10084000FF1FEC50FF4FA591B4918FB7F894EC9136
:10085000611103C020952E2301C02E2B2C938FBF36
:100860000895CF93DF93EC0160E08E810E94E50351
:1008700061E08E810E94E50360E08E810E94E503C5
:100880008BE891E00197F1F7DF91CF910895CF9335
:10089000DF9390E0FC01EE5EFE4F2491FC01E250FC
:1008A000FF4F8491882361F190E0880F991FFC012C
:1008B000E651FF4FC591D491FC01EC50FF4FA5913B
:1008C000B491611109C09FB7F89488812095822363
:1008D0008883EC912E230BC0623061F49FB7F894AB
:1008E0003881822F809583238883EC912E2B2C9343
:1008F0009FBF06C08FB7F894E8812E2B28838FBF47
:10090000DF91CF9108951F93CF93DF93EC01162FC2
:1009100088818C3008F04EC061E0812F0E9447042E
:100920008881E82FF0E09F01220F331FE20FF31FB1
:10093000E254FE4F1F739081907C192B1083198213
:100940001A826CE00E94B8129CE0899FB0011124C9
:1009500040E050E09A01260F371FF901EE0FFF1F0C
:100960002E0F3F1FF901E254FE4F908196FD16C0F5
:100970004F5F5F4F4C30510569F781110FC01092E6
:10098000800082E0809381001092850010928400A4
:10099000B19A80916F00826080936F00E881F0E0EF
:1009A000CF01880F991FE80FF91FE254FE4F808195
:1009B000806480838881DF91CF911F9108951F9378
:1009C000CF93DF93182FEB0161E00E94470420973B
:1009D00011F460E004C0CF3FD10539F461E0812F0C
:1009E000DF91CF911F910C94E503E12FF0E0EA5DD8
:1009F000FE4FE491E330F9F048F4E130B9F0E23031
:100A0000A1F584B5806284BDC8BD34C0E730E9F08B
:100A1000E83019F1E43049F58091800080628093DC
:100A20008000D0938B00C0938A0024C084B5806876
:100A300084BDC7BD1FC08091800080688093800006
:100A4000D0938900C093880015C08091B000806861
:100A50008093B000C093B3000DC08091B00080625D
:100A60008093B000C093B40005C0C038D1050CF02D
:100A7000B5CFAFCFDF91CF911F9108951F920F9205
:100A80000FB60F9211242F933F938F939F93AF93A1
:100A9000BF938091E3019091E401A091E501B091B1
:100AA000E6013091E20123E0230F2D3720F4019677
:100AB000A11DB11D05C026E8230F0296A11DB11D81
:100AC0002093E2018093E3019093E401A093E50178
:100AD000B093E6018091E7019091E801A091E901CE
:100AE000B091EA010196A11DB11D8093E701909399
:100AF000E801A093E901B093EA01BF91AF919F9102
:100B00008F913F912F910F900FBE0F901F901895CE
:100B1000CF92DF92EF92FF920F931F93CF93DF93C9
:100B20007C016C0187E0C80ED11CC0E0D0E0062F2C
:100B300010E0B8010C2E02C0759567950A94E2F793
:100B40006170F60181916F010E94E5032196C43026
:100B5000D10579F7C701DF91CF911F910F91FF90D8
:100B6000EF90DF90CF900C943104CF92DF92EF9210
:100B7000FF920F931F93CF93DF93EC01F62E642F18
:100B80008C810E94E5038D818F3F19F060E00E9407
:100B9000E5038F850F2D10E084FF25C06E0187E0EF
:100BA000C80ED11CE12CF12CB8010E2C02C0759599
:100BB00067950A94E2F76170F60181916F010E94D6
:100BC000E503FFEFEF1AFF0A88E0E816F10461F78A
:100BD000CE01DF91CF911F910F91FF90EF90DF90A9
:100BE000CF900C943104B80184E0759567958A958F
:100BF000E1F7CE010E9488056F2DCE01DF91CF91E4
:100C00001F910F91FF90EF90DF90CF900C9488058B
:100C100041E00E94B50581E090E00895FC019091CB
:100C2000BD019C30A0F481E0890F8093BD019083C9
:100C3000892F90E0FC01EE0FFF1F8E0F9F1FFC011C
:100C4000E254FE4F88EB9BE09283818308958FEFFF
:100C5000808308951F920F920FB60F9211242F9345
:100C60003F934F935F936F937F938F939F93AF9334
:100C7000BF93EF93FF938091BC0187FF05C0109253
:100C80008500109284001BC02091BC01022E000C34
:100C9000330B8091BD0190E02817390784F48091CF
:100CA000BC01082E000C990BFC01EE0FFF1F8E0FEC
:100CB0009F1FFC01E254FE4F808186FD15C080918C
:100CC000BC018F5F8093BC012091BC01022E000CFF
:100CD000330B8091BD0190E028173907C4F480914F
:100CE000BC018C3064F113C08091BC01082E000C53
:100CF000990BFC01EE0FFF1F8E0F9F1FFC01E254AA
:100D0000FE4F808160E08F730E94E503D8CF809111
:100D1000840090918500049680349C4918F480E406
:100D20009CE905C080918400909185000496909381
:100D30008900809388008FEF8093BC013BC0209195
:100D40008400309185008091BC01082E000C990B25
:100D5000FC01EE0FFF1F8E0F9F1FFC01E254FE4FA0
:100D600081819281820F931F9093890080938800E4
:100D70008091BC01082E000C990BFC01EE0FFF1FA7
:100D80008E0F9F1FFC01E254FE4F808186FF12C030
:100D90008091BC01082E000C990BFC01EE0FFF1F87
:100DA0008E0F9F1FFC01E254FE4F808161E08F7324
:100DB0000E94E503FF91EF91BF91AF919F918F91B9
:100DC0007F916F915F914F913F912F910F900FBE47
:100DD0000F901F901895CF93DF93EC0188810E94AC
:100DE000DF0460E070E08A81DF91CF910C94DF0432
:100DF000CF93DF93EC01862F688379835B834A83EB
:100E000061E00E94470461E08A81DF91CF910C94F8
:100E100047040F931F93CF93DF938C01EB0197FF50
:100E20000FC060E070E080918C020E94DF046627B2
:100E30007727601B710B80918E020E94DF0405C032
:100E4000BC018CE892E00E94EB06D7FF12C060E084
:100E500070E0809188020E94DF04662777276C1B70
:100E60007D0B80918A02DF91CF911F910F910C949D
:100E7000DF04BE0188E892E0DF91CF911F910F91CE
:100E80000C94EB06CF93DF93EC01BC0188E892E071
:100E90000E94EB06BE018CE892E0DF91CF910C94AA
:100EA000EB0680E090E00C944207CF93DF93C8E814
:100EB000D2E060E070E088810E94DF0468EC70E0BE
:100EC0008A810E94DF0460E070E08C810E94DF0470
:100ED00068EC70E08E81DF91CF910C94DF043F923B
:100EE0004F925F926F927F928F929F92AF92BF923A
:100EF000CF92DF92EF92FF920F931F93CF93DF93E6
:100F0000CDB7DEB7CA55D1090FB6F894DEBF0FBE14
:100F1000CDBF182F60E00E94470481E0809300015C
:100F200082EF810F1E3008F0182F1770312E8E01BE
:100F30000D5C1F4F280128E2420E511C3801C12CC4
:100F4000D12C760188248A9483E0982EA12CB12C90
:100F5000FE0131968091000120E4829FC00111249E
:100F6000832980937C0080917A00806480937A004A
:100F700080917A0086FDFCCF8091780020917900E5
:100F800090E0922B81939193E017F10719F788E194
:100F900090E0FE01319620E030E0A1E0281739070B
:100FA0008CF46191719140815181461757073CF44F
:100FB000DF0112974D935C9371836083A0E02F5FF4
:100FC0003F4FECCFA11102C0019719F7A98DBA8D3F
:100FD00028E833E10E94D812A50194010E94C00EB6
:100FE000CA01B9010E94CD0F20E030E04AE754E485
:100FF0000E94230F2EE03DE24AE95FEB0E94C610FB
:1010000022EF32ED4DED51E40E9459100E94950FF0
:10101000F301619371933F01CB01770FAA0BBB0BD7
:10102000C80ED91EEA1EFB1EE415F50509F090CF87
:10103000C701B60124E130E040E050E00E94F20E2A
:1010400069017A01A90160E070E0CB01F80121910A
:1010500031918F01F901E41BF50BEE9F9001EF9F99
:10106000300D300D11244901330FAA08BB08680D5B
:10107000791D8A1D9B1D0415150541F724E130E0FB
:1010800040E050E00E94F20E2432310524F4C60103
:101090008432910514F083E290E0C65ADF4F0FB618
:1010A000F894DEBF0FBECDBFDF91CF911F910F919E
:1010B000FF90EF90DF90CF90BF90AF909F908F9078
:1010C0007F906F905F904F903F900895789484B593
:1010D000826084BD84B5816084BD85B5826085BD34
:1010E00085B5816085BD80916E00816080936E00C2
:1010F00010928100809181008260809381008091B4
:101100008100816080938100809180008160809364
:1011100080008091B10084608093B1008091B00024
:1011200081608093B00080917A00846080937A001F
:1011300080917A00826080937A0080917A00816049
:1011400080937A0080917A00806880937A00109270
:10115000C100E091FB01F091FC0182E08083E0910D
:10116000F701F091F8011082E091F901F091FA0194
:101170008FEC808310920302E091FF01F091000256
:1011800086E08083E091FD01F091FE018081806125
:101190008083E091FD01F091FE0180818860808371
:1011A000E091FD01F091FE01808180688083E091F3
:1011B000FD01F091FE0180818F7D80836EE270E001
:1011C0008CE992E00E9483046CE270E08FE992E087
:1011D0000E94830460E070E08CE992E00E9431029A
:1011E00068E770E08FE992E00E943102C0E0C1112F
:1011F0005AC083E090E00E946F079093950280931D
:10120000940284E090E00E946F079093970280938D
:10121000960220919402309195022F30310514F4FA
:101220000F974CF088EC90E00E94420782E291E038
:101230000E94F102DECF82E391E00E94F10285E09C
:1012400090E00E946F07909399028093980286E045
:1012500090E00E946F0790939B0280939A0268E847
:101260007FEF88E790E00E940907809198029091B3
:1012700099028332910519F320919A0230919B02D1
:1012800023323105E1F2821B930B01960397B8F6E6
:1012900080E090E00E94420768EE73E080E090E01A
:1012A0000E94F301C1E083E090E00E946F079093F9
:1012B00095028093940284E090E00E946F079093DF
:1012C00097028093960220919402309195022B30E0
:1012D000310514F00B97BCF480E090E00E944207C7
:1012E0008FE391E00E94F1020E94B4020E94510734
:1012F00068EE73E080E090E00E94F301C0E0D0E08F
:1013000003E010E061C088EC90E00E9442076FCFDC
:10131000019709F07BC083E090E00E946F079093F3
:1013200095028093940284E090E00E946F0790936E
:101330009702809396028CE591E00E94670380916A
:101340009002909191020E94810382E691E00E94B6
:10135000670380919202909193020E94810388E634
:1013600091E00E94670380919402909195020E94FF
:10137000810382E791E00E94670380919602909139
:1013800097020E94810388E791E00E9467038091A1
:101390009802909199020E94810382E891E00E9454
:1013A000670380919A0290919B020E946903CE018B
:1013B0000196B8010E94C412EC0120919002309174
:1013C00091022332310599F584E591E00E94F10202
:1013D00068E770E088E89FEF0E940907CE01B80136
:1013E0000E94C412009709F093CF82E090E00E941F
:1013F0006F07909391028093900281E090E00E94A9
:101400006F07909393028093920295CF85E090E0CE
:101410000E946F07909399028093980286E090E073
:101420000E946F0790939B0280939A0284CF8091D1
:101430009202909193028332910531F2409194028D
:10144000509195024332510509F4BECF4091960266
:10145000509197024332510509F4B6CF281B390B3E
:1014600037FF03C0319521953109243031050CF047
:10147000ABCF88E891E00E94F1020E94510768EE2C
:1014800073E080E090E00E94F301C0E0D0E086E9E4
:1014900091E00E94F102209789F481E090E00E949F
:1014A0006F07909391028093900282E090E00E94F7
:1014B0006F07909393028093920210C083E090E0B4
:1014C0000E946F07909395028093940284E090E0CD
:1014D0000E946F0790939702809396028CE591E0AB
:1014E0000E94670380919002909191020E94810373
:1014F00082E691E00E9467038091920290919302AC
:101500000E94810388E691E00E9467038091940223
:10151000909195020E94810382E791E00E94670307
:1015200080919602909197020E9469032196C17062
:10153000DD2768E770E088E89FEF0E940907809147
:101540009402909195020296209196023091970212
:10155000821793070CF09BCF0E94510764EF71E054
:1015600080E090E00E94F301C0E0D0E082EA91E0E8
:101570000E94F102209789F481E090E00E946F07B9
:10158000909391028093900282E090E00E946F0716
:10159000909393028093920210C083E090E00E94A7
:1015A0006F07909395028093940284E090E00E94EC
:1015B0006F0790939702809396028CE591E00E94CA
:1015C000670380919002909191020E94810382E6CC
:1015D00091E00E94670380919202909193020E9491
:1015E000810388E691E00E946703809194029091C4
:1015F00095020E94810382E791E00E946703809137
:101600009602909197020E9469032196C170DD278E
:101610000E945507809190029091910208976CF07A
:1016200080919402909195024E973CF4809196029D
:101630009091970249970CF499CF0E94510764EF5B
:1016400071E080E090E00E94F3010E94B402C0E0EB
:10165000D0E086EA91E00E94F102209789F481E0CF
:1016600090E00E946F07909391028093900282E035
:1016700090E00E946F07909393028093920210C0B3
:1016800083E090E00E946F0790939502809394020C
:1016900084E090E00E946F079093970280939602F7
:1016A0008CE591E00E9467038091900290919102F5
:1016B0000E94810382E691E00E946703809192027A
:1016C000909193020E94810388E691E00E94670353
:1016D00080919402909195020E94810382E791E0AB
:1016E0000E94670380919602909197020E9469037D
:1016F0002196C170DD2768E87FEF88E790E00E94BF
:10170000090780919002909191022091920230916C
:101710009302821B930B97FF03C0919581959109CA
:1017200003970CF096CF0E94510764EF71E080E0C0
:1017300090E00E94F30111E0C0E0D0E08DEA91E07A
:101740000E94F102209789F481E090E00E946F07E7
:10175000909391028093900282E090E00E946F0744
:10176000909393028093920210C083E090E00E94D5
:101770006F07909395028093940284E090E00E941A
:101780006F0790939702809396028CE591E00E94F8
:10179000670380919002909191020E94810382E6FA
:1017A00091E00E94670380919202909193020E94BF
:1017B000810388E691E00E946703809194029091F2
:1017C00095020E94810382E791E00E946703809165
:1017D0009602909197020E946903809194029091E1
:1017E00095028F31910524F00E94510711E005C048
:1017F00008971CF40E94510710E02091900230914C
:1018000091026091920270919302C901861B970B1D
:1018100001968330910520F441E0293031050CF028
:1018200040E02196C170DD27442339F0112381F176
:1018300088EC90E00E9442072DC00397E0F4621705
:10184000730734F468E770E088E89FEF0E940907A7
:101850002091900230919102809192029091930296
:10186000281739070CF06ACF68E87FEF88E790E027
:101870000E94090763CF68E87FEF88E790E00E9445
:10188000090762E370E080E090E00E94F30156CF28
:101890000E94550780919402909195020D970CF04B
:1018A0004DCF0E9451070E94C401FDCF2F923F925D
:1018B0004F925F926F927F928F929F92AF92BF9260
:1018C000CF92DF92EF92FF920F931F93CF93DF930C
:1018D000CDB7DEB768970FB6F894DEBF0FBECDBFA9
:1018E0001092EE011092ED0188EE93E0A0E0B0E0DE
:1018F0008093EF019093F001A093F101B093F20176
:1019000085E091E09093EC018093EB0185EC90E011
:101910009093F8018093F70184EC90E09093FA01A2
:101920008093F90180EC90E09093FC018093FB019F
:1019300081EC90E09093FE018093FD0182EC90E0B9
:10194000909300028093FF0186EC90E09093020256
:101950008093010210920402109205021092060276
:10196000109207024AE050E069E070E082EF92E0F6
:101970000E94F80647E050E068E070E08EEE92E0EA
:101980000E94F80643E050E062E070E08AEE92E0E8
:101990000E94F806E090EA02F090EB020091EC025F
:1019A0001091ED028AED92E00E940E068DED92E01C
:1019B0000E940E068BE090E09093E1028093E0029B
:1019C00089E090E09093E5028093E4028AE090E061
:1019D0009093E3028093E202F092E702E092E60243
:1019E0001093E9020093E80262E086E10E94470456
:1019F00062E088E10E9447044CE050E06BE070E058
:101A000086ED92E00E94F8068091D8029091D9026A
:101A10002091D6023091D7023093D1022093D00288
:101A20009093D3028093D20283E0482E512C50929F
:101A3000D5024092D4026090EE027090EF02809046
:101A4000F0029090F102A090F202B090F302C090E8
:101A5000F402D090F50280E1EAEDF2E0DE011196A9
:101A600001900D928A95E1F7E090E002F090E1029A
:101A70002091E2023091E3022090E4023090E502EE
:101A800086E0E0EDF2E0DE01519601900D928A953C
:101A9000E1F70DE010E010938902009388021093A3
:101AA0008B0200938A0210938D0200938C02109394
:101AB0008F0200938E028CE992E02F8B388F0E9468
:101AC0000E068FE992E00E940E061093A902009381
:101AD000A8021093AB020093AA0262E086E10E9482
:101AE000470462E088E10E9447041093AD0200932E
:101AF000AC021093AF020093AE0281E090E09093AD
:101B0000B1028093B00282EB92E00E940E067092C6
:101B100089026092880290928B0280928A02B0922F
:101B20008D02A0928C02D0928F02C0928E02F0920F
:101B3000A302E092A2023092A7022092A6022F896D
:101B4000388D3093A5022093A4028D859E85AF85A4
:101B5000B8899093A9028093A802B093AB02A09396
:101B6000AA0289899A89AB89BC899093AD02809336
:101B7000AC02B093AF02A093AE025092B102409279
:101B8000B00262E086E10E94470462E088E10E94C0
:101B900047048DEC92E00E940E061092B80210925B
:101BA000B70287E191E09093B6028093B5028CE191
:101BB0008093B9028FEF8093BA028EE18093BB02CB
:101BC00080E28093BC0282E28093BD0284E2809333
:101BD000BE0286E28093BF021092C0021092C10240
:101BE0001092C2021092C3021092C40281E080934C
:101BF000C8021092C90280E48093CA0280E18093F7
:101C0000CB0280E58093CC0261E08CE10E94470426
:101C10008091BA028F3F19F061E00E94470461E0B1
:101C20008091BB020E94470400E010E08091C40252
:101C300084FD03C084E090E002C088E090E00817D3
:101C4000190754F4F801EB54FD4F61E087810E94BD
:101C500047040F5F1F4FEACF8BE39DE00197F1F739
:101C600060E08091B9020E94E50360E08091BB02D0
:101C70000E94E5038091BA028F3F19F060E00E9454
:101C8000E5036091C40264FD21C063E085EB92E04E
:101C90000E9488050BE416E4C8010197F1F763E0A0
:101CA00085EB92E00E948805C8010197F1F763E097
:101CB00085EB92E00E94880583E592E00197F1F7B9
:101CC00062E085EB92E00E9488051EC0606240E001
:101CD00085EB92E00E94B5058BE496E40197F1F75D
:101CE0006091C402606240E085EB92E00E94B5051D
:101CF00083E592E00197F1F76091C402606240E0F1
:101D000085EB92E00E94B5056091C402606240E0FC
:101D100085EB92E00E94B50584E08093C50240E027
:101D20006CE085EB92E00E94B50540E061E085EB58
:101D300092E00E94B5058BE39FE10197F1F782E005
:101D40008093C60240E066E085EB92E068960FB6AD
:101D5000F894DEBF0FBECDBFDF91CF911F910F91E1
:101D6000FF90EF90DF90CF90BF90AF909F908F90BB
:101D70007F906F905F904F903F902F900C94B5059F
:101D8000052E97FB1EF400940E94D70E57FD07D036
:101D90000E94F20E07FC03D04EF40C94D70E50951F
:101DA0004095309521953F4F4F4F5F4F0895909547
:101DB0008095709561957F4F8F4F9F4F08950E943A
:101DC000140FA59F900DB49F900DA49F800D911DA1
:101DD00011240895B7FF0C94DF0E0E94DF0E821BC2
:101DE000930B0895A1E21A2EAA1BBB1BFD010DC087
:101DF000AA1FBB1FEE1FFF1FA217B307E407F507BB
:101E000020F0A21BB30BE40BF50B661F771F881F96
:101E1000991F1A9469F760957095809590959B012C
:101E2000AC01BD01CF010895A29FB001B39FC001D5
:101E3000A39F700D811D1124911DB29F700D811DF6
:101E40001124911D08950E94370F0C941F100E94B9
:101E5000181058F00E94111040F029F45F3F29F04B
:101E60000C94081051110C9453100C940E100E94F5
:101E7000301068F39923B1F3552391F3951B550B5B
:101E8000BB27AA2762177307840738F09F5F5F4F4D
:101E9000220F331F441FAA1FA9F335D00E2E3AF08C
:101EA000E0E832D091505040E695001CCAF72BD0A4
:101EB000FE2F29D0660F771F881FBB1F26173707F5
:101EC0004807AB07B0E809F0BB0B802DBF01FF2727
:101ED00093585F4F3AF09E3F510578F00C940810EC
:101EE0000C9453105F3FE4F3983ED4F386957795B6
:101EF0006795B795F7959F5FC9F7880F911D9695E0
:101F0000879597F90895E1E0660F771F881FBB1F3B
:101F1000621773078407BA0720F0621B730B840BE8
:101F2000BA0BEE1F88F7E09508950E949C0F689405
:101F3000B1110C94531008950E94381088F09F57E7
:101F400098F0B92F9927B751B0F0E1F0660F771FDD
:101F5000881F991F1AF0BA95C9F714C0B13091F0D3
:101F60000E945210B1E008950C945210672F782F00
:101F70008827B85F39F0B93FCCF386957795679598
:101F8000B395D9F73EF490958095709561957F4F04
:101F90008F4F9F4F0895E89409C097FB3EF49095AA
:101FA0008095709561957F4F8F4F9F4F9923A9F032
:101FB000F92F96E9BB279395F695879577956795C1
:101FC000B795F111F8CFFAF4BB0F11F460FF1BC005
:101FD0006F5F7F4F8F4F9F4F16C0882311F096E998
:101FE00011C0772321F09EE8872F762F05C0662346
:101FF00071F096E8862F70E060E02AF09A95660FFF
:10200000771F881FDAF7880F9695879597F90895B7
:1020100097F99F6780E870E060E008959FEF80EC9B
:10202000089500240A94161617061806090608953E
:1020300000240A9412161306140605060895092EA4
:102040000394000C11F4882352F0BB0F40F4BF2B13
:1020500011F460FF04C06F5F7F4F8F4F9F4F089553
:1020600057FD9058440F551F59F05F3F71F0479549
:10207000880F97FB991F61F09F3F79F0879508952E
:10208000121613061406551FF2CF4695F1DF08C04D
:10209000161617061806991FF1CF8695710561056A
:1020A00008940895E894BB2766277727CB0197F912
:1020B00008950E946C100C941F100E94111038F0AB
:1020C0000E94181020F0952311F00C9408100C9425
:1020D0000E1011240C9453100E94301070F3959F31
:1020E000C1F3950F50E0551F629FF001729FBB270F
:1020F000F00DB11D639FAA27F00DB11DAA1F649FAB
:102100006627B00DA11D661F829F2227B00DA11D5D
:10211000621F739FB00DA11D621F839FA00D611DE3
:10212000221F749F3327A00D611D231F849F600D04
:10213000211D822F762F6A2F11249F5750409AF02D
:10214000F1F088234AF0EE0FFF1FBB1F661F771FB9
:10215000881F91505040A9F79E3F510580F00C9484
:1021600008100C9453105F3FE4F3983ED4F3869527
:1021700077956795B795F795E7959F5FC1F7FE2B24
:10218000880F911D9695879597F90895FA01EE0F9E
:10219000FF1F309621053105A1F16115710561F42C
:1021A0008038BFE39B0749F168949038810561F05E
:1021B0008038BFEF9B0741F099234AF5FF3FE105C7
:1021C0003105210519F1E8940894E795D901AA236E
:1021D00029F4AB2FBE2FF85FD0F310C0FF5F70F46F
:1021E000A695E0F7F73950F019F0FF3A38F49F77E9
:1021F0009F930DD00F9007FC9058089546F00C94D3
:102200000E1060E070E080E89FE308954FE79F774D
:102210005F934F933F932F930E94C1112F913F9152
:102220004F915F910E9459100C941E1129F416F0E1
:102230000C9408100C9452100C940E100E9438103C
:10224000A8F39638A0F707F80F92E8942BE33AEA40
:1022500048EB5FE70E946F100F920F920F924DB7FD
:102260005EB70F920E940912E8E6F0E00E9450115A
:102270004F915F91EF91FF91E595EE1FFF1F49F0A0
:10228000FE57E0684427EE0F441FFA95E1F74195A9
:10229000550B0E9483110F9007FE0C94771108953F
:1022A000DF93CF931F930F93FF92EF92DF927B0107
:1022B0008C01689406C0DA2EEF010E946C10FE01BA
:1022C000E894A5912591359145915591A6F3EF019B
:1022D0000E945512FE019701A801DA9469F7DF9078
:1022E000EF90FF900F911F91CF91DF9108959B0187
:1022F000AC0160E070E080E89FE30C94230F0C9445
:1023000008100C94AA120E943810D8F39923C9F32C
:10231000940F511DA3F39150504094F059F088232D
:1023200032F0660F771F881F91505040C1F79E3FD3
:1023300051052CF7880F911D9695879597F908956B
:102340005F3FACF0983E9CF0BB27869577956795EC
:10235000B79508F4B1609395C1F7BB0F58F711F426
:1023600060FFE8CF6F5F7F4F8F4F9F4FE3CF0C949D
:10237000531016F00C94AA120C940E1068940C943E
:1023800008100E943810A8F39923C1F3AEF3DF932D
:10239000CF931F930F93FF92C92FDD2788232AF035
:1023A0002197660F771F881FDAF720E030E040E8BA
:1023B0005FEB9FE3883920F0803E38F021968F77DD
:1023C0000E943E12E0E9F0E004C00E943E12EDEBF4
:1023D000F0E00E9450118B01BE01EC01FB2E6F5703
:1023E00071097595771F880B990B0E94CD0F28E115
:1023F00032E741E35FE30E946C10AF2D9801AE011C
:10240000FF900F911F91CF91DF910E9455120C9474
:102410001F10FA01DC01AA0FBB1F9B01AC01BF57C3
:1024200028F4222733274427507820C0B75190F44E
:10243000AB2F0024469537952795011CA395D2F321
:10244000002071F0220F331F441FB395DAF30ED032
:102450000C943D1261307105A0E88A07B94630F44A
:102460009B01AC016627772788279078309621F06A
:10247000208331834283538308955058BB27AA2772
:102480000E9455120C941F100E94111038F00E94E7
:10249000181020F039F49F3F19F426F40C940E1014
:1024A0000EF4E095E7FB0C940810E92F0E94301021
:1024B00058F3BA17620773078407950720F079F479
:1024C000A6F50C9452100EF4E0950B2EBA2FA02D09
:1024D0000B01B90190010C01CA01A0011124FF27D1
:1024E000591B99F0593F50F4503E68F11A16F040CC
:1024F000A22F232F342F4427585FF3CF46953795CB
:102500002795A795F0405395C9F77EF41F16BA0B8F
:10251000620B730B840BBAF09150A1F0FF0FBB1F3D
:10252000661F771F881FC2F70EC0BA0F621F731F86
:10253000841F48F4879577956795B795F7959E3FE3
:1025400008F0B0CF9395880F08F09927EE0F979574
:10255000879508959F3F31F0915020F487957795A6
:102560006795B795880F911D9695879597F908956A
:10257000991B79E004C0991F961708F0961B881FD5
:102580007A95C9F780950895AA1BBB1B51E107C036
:10259000AA1FBB1FA617B70710F0A61BB70B881FF3
:1025A000991F5A95A9F780959095BC01CD01089582
:1025B0000E94140FB7FF0895821B930B0895EE0F2E
:1025C000FF1F0590F491E02D099481E090E0F894CC
:0825D0000C94EA12F894FFCF0D
:1025D80001000000005B01C800F300A20124010211
:1025E800011601000000000806C8002E022D020D89
:1025F8000A00536567756520656D206672656E749F
:1026080065004163686F75205061726564650041BB
:1026180063686569206F20636172616C686F2074FC
:102628006F646F00474952414E444F002053303A7F
:1026380020002053313A200020207C7C2053323A5D
:1026480020002053333A200020207C7C2053343A49
:1026580020002053353A2000504F534943414F2022
:102668004345525441004150524F58494D414E4400
:102678004F0052C38900414A5553544500556C7464
:0C268800696D6F20616A75737465210034
:107E0000112484B714BE81FFF0D085E080938100F7
:107E100082E08093C00088E18093C10086E0809377
:107E2000C20080E18093C4008EE0C9D0259A86E02C
:107E300020E33CEF91E0309385002093840096BBD3
:107E4000B09BFECF1D9AA8958150A9F7CC24DD24C4
:107E500088248394B5E0AB2EA1E19A2EF3E0BF2EE7
:107E6000A2D0813461F49FD0082FAFD0023811F036
:107E7000013811F484E001C083E08DD089C08234E0
:107E800011F484E103C0853419F485E0A6D080C0E4
:107E9000853579F488D0E82EFF2485D0082F10E0AE
:107EA000102F00270E291F29000F111F8ED06801E7
:107EB0006FC0863521F484E090D080E0DECF843638
:107EC00009F040C070D06FD0082F6DD080E0C81688
:107ED00080E7D80618F4F601B7BEE895C0E0D1E017
:107EE00062D089930C17E1F7F0E0CF16F0E7DF06D8
:107EF00018F0F601B7BEE89568D007B600FCFDCFD4
:107F0000A601A0E0B1E02C9130E011968C91119780
:107F100090E0982F8827822B932B1296FA010C0160
:107F200087BEE89511244E5F5F4FF1E0A038BF0790
:107F300051F7F601A7BEE89507B600FCFDCF97BE46
:107F4000E89526C08437B1F42ED02DD0F82E2BD052
:107F50003CD0F601EF2C8F010F5F1F4F84911BD097
:107F6000EA94F801C1F70894C11CD11CFA94CF0C13
:107F7000D11C0EC0853739F428D08EE10CD085E9AC
:107F80000AD08FE07ACF813511F488E018D01DD067
:107F900080E101D065CF982F8091C00085FFFCCF94
:107FA0009093C60008958091C00087FFFCCF809118
:107FB000C00084FD01C0A8958091C6000895E0E648
:107FC000F0E098E1908380830895EDDF803219F02E
:107FD00088E0F5DFFFCF84E1DECF1F93182FE3DFCA
:107FE0001150E9F7F2DF1F91089580E0E8DFEE27F6
:047FF000FF270994CA
:027FFE00040479
:0400000300007E007B
:00000001FF
