:100000000C949E000C94C6000C94C6000C94C60080
:100010000C94C6000C94C6000C94C6000C94C60048
:100020000C94C6000C94C6000C94C6000C94C10439
:100030000C94C6000C94C6000C94C6000C94C60028
:100040000C94D5030C94C6000C94A6020C94800268
:100050000C94C6000C94C6000C94C6000C94C60008
:100060000C94C6000C94C60007634236B79BD8A711
:100070001A39685618AEBAAB558C1D3CB7CC5763CD
:10008000BD6DEDFD753EF6177231BF000000803F7B
:1000900008000000BE922449123EABAAAA2ABECD97
:1000A000CCCC4C3E00000080BEABAAAAAA3E000009
:1000B0000000BF000000803F000000000008417801
:1000C000D3BB4387D1133D190E3CC3BD4282AD2B38
:1000D0003E68EC8276BED98FE1A93E4C80EFFFBE30
:1000E00001C4FF7F3F00000000000000000024006A
:1000F00027002A0000000000250028002B0004042F
:1001000004040404040402020202020203030303BF
:10011000030301020408102040800102040810209B
:100120000102040810200000000800020100000382
:1001300004070000000000000000A60911241FBEF3
:10014000CFEFD8E0DEBFCDBF11E0A0E0B1E0EAE341
:10015000F0E202C005900D92AE34B107D9F722E06B
:10016000AEE4B1E001C01D92A838B207E1F710E09B
:10017000CEE9D0E004C02197FE010E941010CD39D5
:10018000D107C9F70E94A6060C941B100C9400001E
:10019000CF92DF92EF92FF920F931F93CF93DF9353
:1001A0006C017A018B01C0E0D0E0CE15DF0589F04B
:1001B000D8016D918D01D601ED91FC910190F081F6
:1001C000E02DC6010995892B11F47E0102C021960C
:1001D000ECCFC701DF91CF911F910F91FF90EF906E
:1001E000DF90CF900895FC01538D448D252F30E092
:1001F000842F90E0821B930B541710F0CF96089534
:1002000001970895FC01918D828D981761F0828D80
:10021000DF01A80FB11D5D968C91928D9F5F9F733A
:10022000928F90E008958FEF9FEF0895FC01918DDC
:10023000828D981731F0828DE80FF11D858D90E049
:1002400008958FEF9FEF0895FC01918D228D892FE6
:1002500090E0805C9F4F821B91098F7399270895CE
:100260008DE791E00E94240121E0892B09F420E030
:10027000822F0895FC01848DDF01A80FB11DA35AC0
:10028000BF4F2C91848D90E001968F739927848FB6
:10029000A689B7892C93A089B1898C9180648C93AD
:1002A000938D848D981306C00288F389E02D808198
:1002B0008F7D80830895EF92FF920F931F93CF93CA
:1002C000DF93EC0181E0888F9B8D8C8D981305C0A6
:1002D000E889F989808185FD24C0F62E0B8D10E018
:1002E0000F5F1F4F0F731127E02E8C8DE8120CC08B
:1002F0000FB607FCFACFE889F989808185FFF5CF31
:10030000CE010E943A01F1CF8B8DFE01E80FF11D65
:10031000E35AFF4FF0820B8FEA89FB89808180626C
:1003200007C0EE89FF896083E889F989808180644C
:10033000808381E090E0DF91CF911F910F91FF903A
:10034000EF900895CF93DF93EC01888D8823C9F057
:10035000EA89FB89808185FD05C0A889B9898C91CE
:1003600086FD0FC00FB607FCF5CF808185FFF2CF69
:10037000A889B9898C9185FFEDCFCE010E943A0101
:10038000E7CFDF91CF91089580E090E0892B29F0AD
:100390000E94300181110C94000008953FB7F89439
:1003A0008091790190917A01A0917B01B0917C01BB
:1003B00026B5A89B05C02F3F19F00196A11DB11DC0
:1003C0003FBFBA2FA92F982F8827820F911DA11DFB
:1003D000B11DBC01CD0142E0660F771F881F991F38
:1003E0004A95D1F708958F929F92AF92BF92CF9284
:1003F000DF92EF92FF926B017C010E94CE014B01D4
:100400005C01C114D104E104F104F1F00E94CE01B9
:10041000DC01CB0188199909AA09BB09883E9340E0
:10042000A105B10570F321E0C21AD108E108F10875
:1004300088EE880E83E0981EA11CB11CC114D10463
:10044000E104F10419F7DDCFFF90EF90DF90CF903A
:10045000BF90AF909F908F900895089580E090E0B6
:100460000895CF93DF9381E090E00E94AF05CAE149
:10047000D2E09987888782E090E00E94AF059B8751
:100480008A8783E090E00E94AF059D878C8784E097
:1004900090E00E94AF059F878E8785E090E00E94E4
:1004A000AF05998B888B86E090E00E94AF059B8B0F
:1004B0008A8BDF91CF910895CF93DF93009779F0E6
:1004C000FC0101900020E9F73197AF01481B590B5F
:1004D000BC018DE791E00E94C800EC0102C0C0E0C1
:1004E000D0E042E050E06FE171E08DE791E00E94E2
:1004F000C8008C0F9D1FDF91CF9108950E941610A8
:100500001F920F920FB60F9211242F933F934F9388
:100510005F936F937F938F939F93AF93BF93EF936B
:10052000FF938DE791E00E943A01FF91EF91BF9117
:10053000AF919F918F917F916F915F914F913F917B
:100540002F910F900FBE0F901F9018951F920F9232
:100550000FB60F9211242F938F939F93EF93FF93D6
:10056000E0918D01F0918E018081E0919301F091F5
:10057000940182FD12C09081809196018F5F8F73EC
:1005800020919701821751F0E0919601F0E0E35835
:10059000FE4F958F8093960101C08081FF91EF916E
:1005A0009F918F912F910F900FBE0F901F901895D4
:1005B00090E0FC01EA5DFE4F3491FC01EE5EFE4FDF
:1005C0002491FC01E250FF4FE491EE2309F43BC07B
:1005D000332339F1333091F038F43130A9F032302F
:1005E00001F584B58F7D12C0373091F03830A1F01D
:1005F0003430B9F4809180008F7D03C080918000F9
:100600008F77809380000DC084B58F7784BD09C03B
:100610008091B0008F7703C08091B0008F7D809370
:10062000B000F0E0EE0FFF1FEC50FF4FA591B4912A
:100630008FB7F894EC91611103C020952E2301C06F
:100640002E2B2C938FBF0895CF93DF93EC0160E0A6
:100650008E810E94D80261E08E810E94D80260E003
:100660008E810E94D8028BE891E00197F1F7DF912B
:10067000CF910895CF93DF9390E0FC01EE5EFE4FA3
:100680002491FC01E250FF4F8491882361F190E0B6
:10069000880F991FFC01E651FF4FC591D491FC01D1
:1006A000EC50FF4FA591B491611109C09FB7F89428
:1006B0008881209582238883EC912E230BC06230A1
:1006C00061F49FB7F8943881822F809583238883C3
:1006D000EC912E2B2C939FBF06C08FB7F894E88126
:1006E0002E2B28838FBFDF91CF9108951F93CF9337
:1006F000DF93182FEB0161E00E943A03209711F479
:1007000060E004C0CF3FD10539F461E0812FDF9173
:10071000CF911F910C94D802E12FF0E0EA5DFE4FDB
:10072000E491E330F9F048F4E130B9F0E230A1F5BA
:1007300084B5806284BDC8BD34C0E730E9F0E830DC
:1007400019F1E43049F58091800080628093800047
:10075000D0938B00C0938A0024C084B5806884BD88
:10076000C7BD1FC080918000806880938000D093B7
:100770008900C093880015C08091B0008068809384
:10078000B000C093B3000DC08091B0008062809330
:10079000B000C093B40005C0C038D1050CF0B5CF8F
:1007A000AFCFDF91CF911F9108951F920F920FB697
:1007B0000F9211242F933F938F939F93AF93BF93E7
:1007C0008091750190917601A0917701B0917801A7
:1007D0003091740123E0230F2D3720F40196A11DE1
:1007E000B11D05C026E8230F0296A11DB11D20935F
:1007F00074018093750190937601A0937701B09373
:1008000078018091790190917A01A0917B01B0915A
:100810007C010196A11DB11D8093790190937A010D
:10082000A0937B01B0937C01BF91AF919F918F9179
:100830003F912F910F900FBE0F901F901895CF9260
:10084000DF92EF92FF920F931F93CF93DF937C0180
:100850006C0187E0C80ED11CC0E0D0E0062F10E08C
:10086000B8010C2E02C0759567950A94E2F7617085
:10087000F60181916F010E94D8022196C430D10502
:1008800079F7C701DF91CF911F910F91FF90EF9002
:10089000DF90CF900C942403CF92DF92EF92FF92DF
:1008A0000F931F93CF93DF93EC01F62E642F8C816F
:1008B0000E94D8028D818F3F19F060E00E94D8021B
:1008C0008F850F2D10E084FF25C06E0187E0C80ED4
:1008D000D11CE12CF12CB8010E2C02C07595679546
:1008E0000A94E2F76170F60181916F010E94D802CB
:1008F000FFEFEF1AFF0A88E0E816F10461F7CE0176
:10090000DF91CF911F910F91FF90EF90DF90CF90EB
:100910000C942403B80184E0759567958A95E1F7F6
:10092000CE010E941F046F2DCE01DF91CF911F9148
:100930000F91FF90EF90DF90CF900C941F0441E057
:100940000E944C0481E090E00895FC0190917301B5
:100950009C30A0F481E0890F809373019083892FEC
:1009600090E0FC01EE0FFF1F8E0F9F1FFC01E15B6B
:10097000FE4F88EB9BE09283818308958FEF808305
:1009800008951F920F920FB60F9211242F933F9349
:100990004F935F936F937F938F939F93AF93BF9387
:1009A000EF93FF9380914E0187FF05C01092850061
:1009B000109284001BC020914E01022E000C330BBC
:1009C0008091730190E02817390784F480914E01DB
:1009D000082E000C990BFC01EE0FFF1F8E0F9F1FBE
:1009E000FC01E15BFE4F808186FD15C080914E01C8
:1009F0008F5F80934E0120914E01022E000C330B2D
:100A00008091730190E028173907C4F480914E015A
:100A10008C3064F113C080914E01082E000C990BAC
:100A2000FC01EE0FFF1F8E0F9F1FFC01E15BFE4FCD
:100A3000808160E08F730E94D802D8CF80918400BB
:100A400090918500049680349C4918F480E49CE9D8
:100A500005C0809184009091850004969093890050
:100A6000809388008FEF80934E013BC020918400DB
:100A70003091850080914E01082E000C990BFC01ED
:100A8000EE0FFF1F8E0F9F1FFC01E15BFE4F818168
:100A90009281820F931F90938900809388008091A8
:100AA0004E01082E000C990BFC01EE0FFF1F8E0F5C
:100AB0009F1FFC01E15BFE4F808186FF12C0809189
:100AC0004E01082E000C990BFC01EE0FFF1F8E0F3C
:100AD0009F1FFC01E15BFE4F808161E08F730E94EC
:100AE000D802FF91EF91BF91AF919F918F917F912C
:100AF0006F915F914F913F912F910F900FBE0F908B
:100B00001F901895CF93DF93EC0188810E947603A4
:100B100060E070E08A81DF91CF910C947603CF93EF
:100B2000DF93EC01862F688379835B834A8361E0DE
:100B30000E943A0361E08A81DF91CF910C943A03DD
:100B4000CF93DF93EC01BC018AE192E00E94820521
:100B5000BE018EE192E0DF91CF910C9482053F922D
:100B60004F925F926F927F928F929F92AF92BF92BD
:100B7000CF92DF92EF92FF920F931F93CF93DF9369
:100B8000CDB7DEB7CA55D1090FB6F894DEBF0FBE98
:100B9000CDBF182F60E00E943A0381E080930001EE
:100BA00082EF810F1E3008F0182F1770312E8E0142
:100BB0000D5C1F4F280128E2420E511C3801C12C48
:100BC000D12C760188248A9483E0982EA12CB12C14
:100BD000FE0131968091000120E4829FC001112422
:100BE000832980937C0080917A00806480937A00CE
:100BF00080917A0086FDFCCF809178002091790069
:100C000090E0922B81939193E017F10719F788E117
:100C100090E0FE01319620E030E0A1E0281739078E
:100C20008CF46191719140815181461757073CF4D2
:100C3000DF0112974D935C9371836083A0E02F5F77
:100C40003F4FECCFA11102C0019719F7A98DBA8DC2
:100C500028E833E10E940910A50194010E94100CBC
:100C6000CA01B9010E940A0D20E030E04AE754E4CD
:100C70000E94600C2EE03DE24AE95FEB0E94030E09
:100C800022EF32ED4DED51E40E94960D0E94D20C00
:100C9000F301619371933F01CB01770FAA0BBB0B5B
:100CA000C80ED91EEA1EFB1EE415F50509F090CF0B
:100CB000C701B60124E130E040E050E00E942F0C73
:100CC00069017A01A90160E070E0CB01F80121918E
:100CD00031918F01F901E41BF50BEE9F9001EF9F1D
:100CE000300D300D11244901330FAA08BB08680DDF
:100CF000791D8A1D9B1D0415150541F724E130E07F
:100D000040E050E00E942F0C2432310524F4C6014B
:100D10008432910514F083E290E0C65ADF4F0FB69B
:100D2000F894DEBF0FBECDBFDF91CF911F910F9121
:100D3000FF90EF90DF90CF90BF90AF909F908F90FB
:100D40007F906F905F904F903F900895789484B516
:100D5000826084BD84B5816084BD85B5826085BDB7
:100D600085B5816085BD80916E00816080936E0045
:100D70001092810080918100826080938100809137
:100D800081008160809381008091800081608093E8
:100D900080008091B10084608093B1008091B000A8
:100DA00081608093B00080917A00846080937A00A3
:100DB00080917A00826080937A0080917A008160CD
:100DC00080937A0080917A00806880937A001092F4
:100DD000C100E0918D01F0918E0182E08083E0916D
:100DE0008901F0918A011082E0918B01F0918C01D0
:100DF0008FEC808310929501E0919101F091920126
:100E000086E08083E0918F01F09190018081806184
:100E10008083E0918F01F0919001808188608083D0
:100E2000E0918F01F0919001808180688083E09152
:100E30008F01F091900180818F7D80830E9431022B
:100E4000C0E0D0E003E010E082E291E00E945C02AA
:100E5000CE01B8010E94F50F009789F482E090E07E
:100E60000E94AF05909323028093220281E090E0DC
:100E70000E94AF05909325028093240223C001971E
:100E800089F483E090E00E94AF059093270280935D
:100E9000260284E090E00E94AF059093290280939F
:100EA000280210C085E090E00E94AF0590932B02CD
:100EB00080932A0286E090E00E94AF0590932D0275
:100EC00080932C02CE010196B8010E94F50FEC012F
:100ED00088EC90E00E94A005809128029091290260
:100EE00020912602309127022332310521F48332EA
:100EF000910569F4A9CF293031054CF480E090E0E8
:100F00000E94A0050E94310203E010E03CC0099756
:100F10000CF09ACFF3CF019709F051C083E090E035
:100F20000E94AF05909327028093260284E090E010
:100F30000E94AF059093290280932802CE0101966A
:100F4000B8010E94F50FEC0160E070E080911E0294
:100F50000E94760368E770E0809120020E94760389
:100F600068E770E08AE192E00E94820580912202A7
:100F7000909123022091240230912502821B930B31
:100F80000296059768F18FE291E00E945C02CE0123
:100F9000B8010E94F50F009709F0BDCF82E090E004
:100FA0000E94AF05909323028093220281E090E09B
:100FB0000E94AF059093250280932402BFCF85E065
:100FC00090E00E94AF0590932B0280932A0286E066
:100FD00090E00E94AF0590932D0280932C02AECF3B
:100FE00080912A0290912B02839769F680912C02BE
:100FF00090912D02839739F60E94310223E0E22E70
:10100000F12C87E391E00E945C02CE01B7010E94BF
:10101000F50F009789F482E090E00E94AF0590936D
:1010200023028093220281E090E00E94AF0590931A
:1010300025028093240223C0019789F483E090E085
:101040000E94AF05909327028093260284E090E0EF
:101050000E94AF05909329028093280210C085E07A
:1010600090E00E94AF0590932B0280932A0286E0C5
:1010700090E00E94AF0590932D0280932C02CE0148
:101080000196B7010E94F50FEC0180912202909128
:101090002302839771F48091240290912502839713
:1010A00041F460ED77E080E090E00E94F30111E010
:1010B00001C010E0809128029091290201E08397FD
:1010C00039F480912A0290912B02839709F400E071
:1010D00088EC90E00E94A005111103C0002309F4E0
:1010E00090CF80E090E00E94A0050E943102002392
:1010F00009F403C182E491E00E945C0293E0E92ECE
:10110000F12CCE01B7010E94F50F009789F482E01F
:1011100090E00E94AF05909323028093220281E029
:1011200090E00E94AF05909325028093240223C093
:10113000019789F483E090E00E94AF059093270225
:101140008093260284E090E00E94AF0590932902EC
:101150008093280210C085E090E00E94AF05909334
:101160002B0280932A0286E090E00E94AF059093C4
:101170002D0280932C02CE010196B7010E94F50F3B
:10118000EC0168E770E08EE192E00E94820560E089
:1011900070E080911A020E94760368E770E0809107
:1011A0001C020E9476038091220290912302839771
:1011B00009F0A7CF8091240290912502839709F02E
:1011C000A0CF8091260290912702839709F099CFB2
:1011D0008091280290912902839709F092CF809103
:1011E0002A0290912B0220912C0230912D02821B19
:1011F000930B0296059708F084CF80E090E00E9460
:10120000A0050E94310283E0E82EF12CCE01B70147
:101210000E94F50F009789F482E090E00E94AF05EC
:10122000909323028093220281E090E00E94AF0518
:10123000909325028093240223C0019789F483E0D0
:1012400090E00E94AF05909327028093260284E0ED
:1012500090E00E94AF05909329028093280210C06D
:1012600085E090E00E94AF0590932B0280932A02C4
:1012700086E090E00E94AF0590932D0280932C02AF
:10128000CE010196B7010E94F50FEC0188EC90E0C9
:101290000E94A00580912A0290912B02839769F405
:1012A00080912C0290912D02839739F460ED77E0C4
:1012B00080E090E00E94F30103C0112309F4A6CF5F
:1012C00080E090E00E94A00560E070E080911E0246
:1012D0000E94760368E770E0809120020E94760306
:1012E00068E770E08AE192E00E94820560E777E1BA
:1012F00080E090E00E94F30111E080E090E00E9425
:10130000A0050E9431021123F1F001111CC068E711
:1013100070E08EE192E00E94820560E070E08091D2
:101320001A020E94760368E770E080911C020E9416
:10133000760360E777E180E090E00E94F30180E0CF
:1013400090E00E94A0050E94C401FDCF2F923F9221
:101350004F925F926F927F928F929F92AF92BF92C5
:10136000CF92DF92EF92FF920F931F93CF93DF9371
:10137000CDB7DEB768970FB6F894DEBF0FBECDBF0E
:101380001092800110927F0188EE93E0A0E0B0E01F
:101390008093810190938201A0938301B093840193
:1013A00085E091E090937E0180937D0185EC90E053
:1013B00090938A018093890184EC90E090938C0152
:1013C00080938B0180EC90E090938E0180938D014F
:1013D00081EC90E09093900180938F0182EC90E0FB
:1013E000909392018093910186EC90E09093940108
:1013F0008093930110929601109297011092980198
:10140000109299014AE050E069E070E084E892E0CF
:101410000E948F0547E050E068E070E080E892E0CD
:101420000E948F0543E050E062E070E08CE792E0BC
:101430000E948F05E0907C02F0907D0200917E0278
:1014400010917F028CE692E00E94A5048FE692E064
:101450000E94A5048BE090E0909373028093720247
:1014600089E090E090937702809376028AE090E0A2
:101470009093750280937402F0927902E092780260
:1014800010937B0200937A0262E086E10E943A03A5
:1014900062E088E10E943A034CE050E06BE070E0CB
:1014A00088E692E00E948F0580916A0290916B021B
:1014B00020916802309169023093630220936202A6
:1014C000909365028093640283E0482E512C5092E1
:1014D0006702409266026090800270908102809064
:1014E000820290908302A0908402B0908502C09006
:1014F0008602D090870280E1ECE6F2E0DE011196F0
:1015000001900D928A95E1F7E0907202F0907302DB
:10151000209174023091750220907602309077020B
:1015200086E0E2E6F2E0DE01519601900D928A95A6
:10153000E1F70DE010E010931B0200931A021093E4
:101540001D0200931C0210931F0200931E021093B1
:101550002102009320028EE292E02F8B388F0E94AE
:10156000A50481E392E00E94A50410933B0200933E
:101570003A0210933D0200933C0262E086E10E9431
:101580003A0362E088E10E943A0310933F0200931D
:101590003E02109341020093400281E090E090935C
:1015A00043028093420284E492E00E94A504709278
:1015B0001B0260921A0290921D0280921C02B0924D
:1015C0001F02A0921E02D0922102C0922002F0922D
:1015D0003502E092340230923902209238022F898B
:1015E000388D30933702209336028D859E85AF85E6
:1015F000B88990933B0280933A02B0933D02A09346
:101600003C0289899A89AB89BC8990933F02809377
:101610003E02B0934102A093400250924302409296
:10162000420262E086E10E943A0362E088E10E94A1
:101630003A038FE592E00E94A50410924A021092AC
:10164000490287E191E090934802809347028CE140
:1016500080934B028FEF80934C028EE180934D027A
:1016600080E280934E0282E280934F0284E2809374
:10167000500286E28093510210925202109253025D
:1016800010925402109255021092560281E08093FB
:101690005A0210925B0280E480935C0280E18093A6
:1016A0005D0280E580935E0261E08CE10E943A0376
:1016B00080914C028F3F19F061E00E943A0361E093
:1016C00080914D020E943A0300E010E080915602A2
:1016D00084FD03C084E090E002C088E090E0081739
:1016E000190754F4F801E95BFD4F61E087810E941E
:1016F0003A030F5F1F4FEACF8BE39DE00197F1F7AD
:1017000060E080914B020E94D80260E080914D021F
:101710000E94D80280914C028F3F19F060E00E9435
:10172000D8026091560264FD21C063E087E492E034
:101730000E941F040BE416E4C8010197F1F763E06F
:1017400087E492E00E941F04C8010197F1F763E06B
:1017500087E492E00E941F0483E592E00197F1F78D
:1017600062E087E492E00E941F041EC0606240E0D5
:1017700087E492E00E944C048BE496E40197F1F731
:1017800060915602606240E087E492E00E944C045F
:1017900083E592E00197F1F760915602606240E0C4
:1017A00087E492E00E944C0460915602606240E03F
:1017B00087E492E00E944C0484E08093570240E06A
:1017C0006CE087E492E00E944C0440E061E087E432
:1017D00092E00E944C048BE39FE10197F1F782E0D5
:1017E0008093580240E066E087E492E068960FB686
:1017F000F894DEBF0FBECDBFDF91CF911F910F9147
:10180000FF90EF90DF90CF90BF90AF909F908F9020
:101810007F906F905F904F903F902F900C944C046E
:10182000052E97FB1EF400940E94270C57FD07D04D
:101830000E942F0C07FC03D04EF40C94270C5095FB
:101840004095309521953F4F4F4F5F4F08959095AC
:101850008095709561957F4F8F4F9F4F0895A1E2BE
:101860001A2EAA1BBB1BFD010DC0AA1FBB1FEE1F1A
:10187000FF1FA217B307E407F50720F0A21BB30B65
:10188000E40BF50B661F771F881F991F1A9469F7E1
:1018900060957095809590959B01AC01BD01CF013D
:1018A0000895A29FB001B39FC001A39F700D811D39
:1018B0001124911DB29F700D811D1124911D089559
:1018C0000E94740C0C945C0D0E94550D58F00E94FF
:1018D0004E0D40F029F45F3F29F00C94450D511155
:1018E0000C94900D0C944B0D0E946D0D68F3992390
:1018F000B1F3552391F3951B550BBB27AA2762170C
:101900007307840738F09F5F5F4F220F331F441F18
:10191000AA1FA9F335D00E2E3AF0E0E832D091504C
:101920005040E695001CCAF72BD0FE2F29D0660F39
:10193000771F881FBB1F261737074807AB07B0E87C
:1019400009F0BB0B802DBF01FF2793585F4F3AF082
:101950009E3F510578F00C94450D0C94900D5F3F1F
:10196000E4F3983ED4F3869577956795B795F79508
:101970009F5FC9F7880F911D9695879597F90895F0
:10198000E1E0660F771F881FBB1F6217730784078C
:10199000BA0720F0621B730B840BBA0BEE1F88F79B
:1019A000E09508950E94D90C6894B1110C94900DA3
:1019B00008950E94750D88F09F5798F0B92F9927C8
:1019C000B751B0F0E1F0660F771F881F991F1AF02A
:1019D000BA95C9F714C0B13091F00E948F0DB1E0F3
:1019E00008950C948F0D672F782F8827B85F39F0F2
:1019F000B93FCCF3869577956795B395D9F73EF4C3
:101A000090958095709561957F4F8F4F9F4F08956A
:101A1000E89409C097FB3EF4909580957095619588
:101A20007F4F8F4F9F4F9923A9F0F92F96E9BB273E
:101A30009395F695879577956795B795F111F8CFBA
:101A4000FAF4BB0F11F460FF1BC06F5F7F4F8F4F25
:101A50009F4F16C0882311F096E911C0772321F01B
:101A60009EE8872F762F05C0662371F096E8862FB3
:101A700070E060E02AF09A95660F771F881FDAF70A
:101A8000880F9695879597F9089597F99F6780E84D
:101A900070E060E008959FEF80EC089500240A94C0
:101AA0001616170618060906089500240A94121639
:101AB0001306140605060895092E0394000C11F46C
:101AC000882352F0BB0F40F4BF2B11F460FF04C019
:101AD0006F5F7F4F8F4F9F4F089557FD9058440F72
:101AE000551F59F05F3F71F04795880F97FB991F7D
:101AF00061F09F3F79F0879508951216130614063A
:101B0000551FF2CF4695F1DF08C0161617061806C6
:101B1000991FF1CF86957105610508940895E894A1
:101B2000BB2766277727CB0197F908950E94A90D57
:101B30000C945C0D0E944E0D38F00E94550D20F063
:101B4000952311F00C94450D0C944B0D11240C941D
:101B5000900D0E946D0D70F3959FC1F3950F50E0AD
:101B6000551F629FF001729FBB27F00DB11D639F4F
:101B7000AA27F00DB11DAA1F649F6627B00DA11DF5
:101B8000661F829F2227B00DA11D621F739FB00D9B
:101B9000A11D621F839FA00D611D221F749F33270B
:101BA000A00D611D231F849F600D211D822F762FA4
:101BB0006A2F11249F5750409AF0F1F088234AF081
:101BC000EE0FFF1FBB1F661F771F881F91505040ED
:101BD000A9F79E3F510580F00C94450D0C94900D93
:101BE0005F3FE4F3983ED4F3869577956795B79574
:101BF000F795E7959F5FC1F7FE2B880F911D96958E
:101C0000879597F90895FA01EE0FFF1F3096210589
:101C10003105A1F16115710561F48038BFE39B07BF
:101C200049F168949038810561F08038BFEF9B07D7
:101C300041F099234AF5FF3FE1053105210519F1EE
:101C4000E8940894E795D901AA2329F4AB2FBE2F75
:101C5000F85FD0F310C0FF5F70F4A695E0F7F73996
:101C600050F019F0FF3A38F49F779F930DD00F9002
:101C700007FC9058089546F00C944B0D60E070E01E
:101C800080E89FE308954FE79F775F934F933F93DB
:101C90002F930E94FE0E2F913F914F915F910E94D2
:101CA000960D0C945B0E29F416F00C94450D0C94D3
:101CB0008F0D0C944B0D0E94750DA8F39638A0F76C
:101CC00007F80F92E8942BE33AEA48EB5FE70E94AB
:101CD000AC0D0F920F920F924DB75EB70F920E940C
:101CE000460FE8E6F0E00E948D0E4F915F91EF9174
:101CF000FF91E595EE1FFF1F49F0FE57E06844276E
:101D0000EE0F441FFA95E1F74195550B0E94C00E66
:101D10000F9007FE0C94B40E0895DF93CF931F939A
:101D20000F93FF92EF92DF927B018C01689406C0C3
:101D3000DA2EEF010E94A90DFE01E894A5912591EC
:101D4000359145915591A6F3EF010E94920FFE0146
:101D50009701A801DA9469F7DF90EF90FF900F9157
:101D60001F91CF91DF9108959B01AC0160E070E07D
:101D700080E89FE30C94600C0C94450D0C94E70FE5
:101D80000E94750DD8F39923C9F3940F511DA3F345
:101D90009150504094F059F0882332F0660F771F2D
:101DA000881F91505040C1F79E3F51052CF7880F76
:101DB000911D9695879597F908955F3FACF0983EF1
:101DC0009CF0BB27869577956795B79508F4B16029
:101DD0009395C1F7BB0F58F711F460FFE8CF6F5F21
:101DE0007F4F8F4F9F4FE3CF0C94900D16F00C94C4
:101DF000E70F0C944B0D68940C94450D0E94750DE3
:101E0000A8F39923C1F3AEF3DF93CF931F930F93FE
:101E1000FF92C92FDD2788232AF02197660F771FAD
:101E2000881FDAF720E030E040E85FEB9FE3883975
:101E300020F0803E38F021968F770E947B0FE0E9FA
:101E4000F0E004C00E947B0FEDEBF0E00E948D0EED
:101E50008B01BE01EC01FB2E6F5771097595771F41
:101E6000880B990B0E940A0D28E132E741E35FE3FA
:101E70000E94A90DAF2D9801AE01FF900F911F9107
:101E8000CF91DF910E94920F0C945C0DFA01DC015E
:101E9000AA0FBB1F9B01AC01BF5728F42227332791
:101EA0004427507820C0B75190F4AB2F00244695BA
:101EB00037952795011CA395D2F3002071F0220FCE
:101EC000331F441FB395DAF30ED00C947A0F6130B0
:101ED0007105A0E88A07B94630F49B01AC0166277A
:101EE000772788279078309621F0208331834283AA
:101EF000538308955058BB27AA270E94920F0C9431
:101F00005C0D0E944E0D38F00E94550D20F039F402
:101F10009F3F19F426F40C944B0D0EF4E095E7FB6B
:101F20000C94450DE92F0E946D0D58F3BA17620706
:101F300073078407950720F079F4A6F50C948F0DAC
:101F40000EF4E0950B2EBA2FA02D0B01B9019001D4
:101F50000C01CA01A0011124FF27591B99F0593F18
:101F600050F4503E68F11A16F040A22F232F342F60
:101F70004427585FF3CF469537952795A795F040AE
:101F80005395C9F77EF41F16BA0B620B730B840BC3
:101F9000BAF09150A1F0FF0FBB1F661F771F881F7B
:101FA000C2F70EC0BA0F621F731F841F48F48795D3
:101FB00077956795B795F7959E3F08F0B0CF9395C5
:101FC000880F08F09927EE0F9795879508959F3F02
:101FD00031F0915020F4879577956795B795880FE4
:101FE000911D9695879597F90895AA1BBB1B51E102
:101FF00007C0AA1FBB1FA617B70710F0A61BB70B79
:10200000881F991F5A95A9F780959095BC01CD011D
:1020100008950E94510CB7FF0895821B930B0895F9
:10202000EE0FFF1F0590F491E02D099481E090E000
:0A203000F8940C941B10F894FFCFF5
:10203A0001000000005B01C800F300A201240102B4
:10204A00011601000000009F04C8002E022D020D97
:10205A000A004143484152205041524544450047F5
:10206A004952414E444F0053454755452052455425
:0E207A004F004143484F55205155494E4100FB
:00000001FF
