:100000000C949E000C94C6000C94C6000C94C60080
:100010000C94C6000C94C6000C94C6000C94C60048
:100020000C94C6000C94C6000C94C6000C941005E9
:100030000C94C6000C94C6000C94C6000C94C60028
:100040000C94C6040C94C6000C9494040C946E0496
:100050000C94C6000C94C6000C94C6000C94C60008
:100060000C94C6000C94C60007634236B79BD8A711
:100070001A39685618AEBAAB558C1D3CB7CC5763CD
:10008000BD6DEDFD753EF6177231BF000000803F7B
:1000900008000000BE922449123EABAAAA2ABECD97
:1000A000CCCC4C3E00000080BEABAAAAAA3E000009
:1000B0000000BF000000803F000000000008417801
:1000C000D3BB4387D1133D190E3CC3BD4282AD2B38
:1000D0003E68EC8276BED98FE1A93E4C80EFFFBE30
:1000E00001C4FF7F3F00000000000000000024006A
:1000F00027002A0000000000250028002B0004042F
:1001000004040404040402020202020203030303BF
:10011000030301020408102040800102040810209B
:100120000102040810200000000800020100000382
:1001300004070000000000000000D10511241FBECC
:10014000CFEFD8E0DEBFCDBF11E0A0E0B1E0E0E945
:10015000F8E102C005900D92A435B107D9F722E06D
:10016000A4E5B1E001C01D92AE34B207E1F710E0A2
:10017000CEE9D0E004C02197FE010E943B0CCD39AE
:10018000D107C9F70E9494060C94460C0C94000009
:10019000CF92DF92EF92FF920F931F93CF93DF9353
:1001A0006C017A018B01C0E0D0E0CE15DF0589F04B
:1001B000D8016D918D01D601ED91FC910190F081F6
:1001C000E02DC6010995892B11F47E0102C021960C
:1001D000ECCFC701DF91CF911F910F91FF90EF906E
:1001E000DF90CF900895089580E090E00895FC019D
:1001F000538D448D252F30E0842F90E0821B930B8C
:10020000541710F0CF96089501970895FC01918D31
:10021000828D981761F0828DDF01A80FB11D5D9668
:100220008C91928D9F5F9F73928F90E008958FEFD6
:100230009FEF0895FC01918D828D981731F0828D8A
:10024000E80FF11D858D90E008958FEF9FEF0895E1
:10025000FC01918D228D892F90E0805C9F4F821B45
:1002600091098F73992708958EE591E00E942801E6
:1002700021E0892B09F420E0822F0895FC01848D70
:10028000DF01A80FB11DA35ABF4F2C91848D90E0C0
:1002900001968F739927848FA689B7892C93A0899B
:1002A000B1898C9180648C93938D848D981306C052
:1002B0000288F389E02D80818F7D80830895EF92FD
:1002C000FF920F931F93CF93DF93EC0181E0888F10
:1002D0009B8D8C8D981305C0E889F989808185FDF7
:1002E00024C0F62E0B8D10E00F5F1F4F0F731127E8
:1002F000E02E8C8DE8120CC00FB607FCFACFE8890F
:10030000F989808185FFF5CFCE010E943E01F1CFB2
:100310008B8DFE01E80FF11DE35AFF4FF0820B8F2A
:10032000EA89FB898081806207C0EE89FF8960834A
:10033000E889F98980818064808381E090E0DF91A1
:10034000CF911F910F91FF90EF900895CF93DF937E
:10035000EC01888D8823C9F0EA89FB89808185FDBD
:1003600005C0A889B9898C9186FD0FC00FB607FC1E
:10037000F5CF808185FFF2CFA889B9898C9185FF5F
:10038000EDCFCE010E943E01E7CFDF91CF910895DE
:1003900080E090E0892B29F00E94340181110C94B7
:1003A0000000089590E0FC01EA5DFE4F3491FC01ED
:1003B000EE5EFE4F2491FC01E250FF4FE491EE23EC
:1003C00009F43BC0332339F1333091F038F4313044
:1003D000A9F0323001F584B58F7D12C0373091F02D
:1003E0003830A1F03430B9F4809180008F7D03C0A3
:1003F000809180008F77809380000DC084B58F77C7
:1004000084BD09C08091B0008F7703C08091B00097
:100410008F7D8093B000F0E0EE0FFF1FEC50FF4F98
:10042000A591B4918FB7F894EC91611103C0209518
:100430002E2301C02E2B2C938FBF0895CF93DF93D3
:1004400090E0FC01EE5EFE4F2491FC01E250FF4F74
:100450008491882361F190E0880F991FFC01E65197
:10046000FF4FC591D491FC01EC50FF4FA591B49181
:10047000611109C09FB7F8948881209582238883F1
:10048000EC912E230BC0623061F49FB7F894388151
:10049000822F809583238883EC912E2B2C939FBFF2
:1004A00006C08FB7F894E8812E2B28838FBFDF9189
:1004B000CF9108951F93CF93DF93182FEB0161E045
:1004C0000E941E02209711F460E004C0CF3FD105C6
:1004D00039F461E0812FDF91CF911F910C94D2010B
:1004E000E12FF0E0EA5DFE4FE491E330F9F048F4EB
:1004F000E130B9F0E230A1F584B5806284BDC8BDB9
:1005000034C0E730E9F0E83019F1E43049F5809182
:100510008000806280938000D0938B00C0938A001B
:1005200024C084B5806884BDC7BD1FC08091800091
:10053000806880938000D0938900C093880015C0A4
:100540008091B00080688093B000C093B3000DC06C
:100550008091B00080628093B000C093B40005C069
:10056000C038D1050CF0B5CFAFCFDF91CF911F913F
:1005700008953FB7F89480915A0190915B01A09142
:100580005C01B0915D0126B5A89B05C02F3F19F015
:100590000196A11DB11D3FBFBA2FA92F982F882703
:1005A000820F911DA11DB11DBC01CD0142E0660F5E
:1005B000771F881F991F4A95D1F70895CF93DF932E
:1005C000EC0188810E945A0260E070E08A81DF912C
:1005D000CF910C945A023F924F925F926F927F920A
:1005E0008F929F92AF92BF92CF92DF92EF92FF9243
:1005F0000F931F93CF93DF93CDB7DEB7CA55D109C1
:100600000FB6F894DEBF0FBECDBF182F60E00E947A
:100610001E0281E08093000182EF810F1E3008F0FE
:10062000182F1770312E8E010D5C1F4F280128E204
:10063000420E511C3801C12CD12C760188248A9499
:1006400083E0982EA12CB12CFE01319680910001FF
:1006500020E4829FC0011124832980937C00809133
:100660007A00806480937A0080917A0086FDFCCFC6
:10067000809178002091790090E0922B8193919362
:10068000E017F10719F788E190E0FE01319620E0CC
:1006900030E0A1E0281739078CF461917191408115
:1006A0005181461757073CF4DF0112974D935C9335
:1006B00071836083A0E02F5F3F4FECCFA11102C098
:1006C000019719F7A98DBA8D28E833E10E94340CFF
:1006D000A50194010E944F08CA01B9010E9449096D
:1006E00020E030E04AE754E40E949F082EE03DE21B
:1006F0004AE95FEB0E94420A22EF32ED4DED51E4F0
:100700000E94D5090E941109F301619371933F0181
:10071000CB01770FAA0BBB0BC80ED91EEA1EFB1E1E
:10072000E415F50509F090CFC701B60124E130E0EA
:1007300040E050E00E946E0869017A01590160E0D2
:1007400070E0CB01F801219131918F01A9014A1983
:100750005B09449F9001459F300D300D1124032EFD
:10076000000C440B550B620F731F841F951FE4157B
:10077000F50541F724E130E040E050E00E946E08CA
:100780002432310534F4F1E5AF16B10414F4C60196
:1007900002C08FEF9FEFC65ADF4F0FB6F894DEBF4F
:1007A0000FBECDBFDF91CF911F910F91FF90EF90C2
:1007B000DF90CF90BF90AF909F908F907F906F9081
:1007C0005F904F903F900895009769F0FC01019071
:1007D0000020E9F73197AF01481B590BBC018EE5AA
:1007E00091E00C94C80080E090E00895CF93DF93EF
:1007F0000E94E403EC0183E191E00E94E4038C0F8A
:100800009D1FDF91CF9108958F929F92AF92BF92DB
:100810000F931F93CF93DF93CDB7DEB7A1970FB69A
:10082000F894DEBF0FBECDBF19A2423008F44AE0F3
:100830008E010F5D1F4F842E912CA12CB12CA50190
:1008400094010E946E08E62FB901CA0101501109F6
:10085000EA3014F4E05D01C0E95CD801EC93232B8D
:10086000242B252B61F7C8010E94E403A1960FB643
:10087000F894DEBF0FBECDBFDF91CF911F910F91D6
:10088000BF90AF909F908F900895CF92DF92EF929C
:10089000FF92CF93DF936B017C01E0915E01F091B9
:1008A0005F010190F081E02D6DE28EE591E0099508
:1008B000EC0166277727CB016C197D098E099F090A
:1008C0004AE00E9404048C0F9D1FDF91CF91FF909E
:1008D000EF90DF90CF9008950E94410C1F920F92ED
:1008E0000FB60F9211242F933F934F935F936F9303
:1008F0007F938F939F93AF93BF93EF93FF938EE577
:1009000091E00E943E01FF91EF91BF91AF919F91C5
:100910008F917F916F915F914F913F912F910F90A8
:100920000FBE0F901F9018951F920F920FB60F9247
:1009300011242F938F939F93EF93FF93E0916E0178
:10094000F0916F018081E0917401F091750182FD59
:1009500012C09081809177018F5F8F732091780111
:10096000821751F0E0917701F0E0E25AFE4F958F47
:100970008093770101C08081FF91EF919F918F91CA
:100980002F910F900FBE0F901F9018951F920F92EE
:100990000FB60F9211242F933F938F939F93AF9392
:1009A000BF938091560190915701A0915801B09149
:1009B00059013091550123E0230F2D3720F4019682
:1009C000A11DB11D05C026E8230F0296A11DB11D72
:1009D000209355018093560190935701A09358019D
:1009E000B093590180915A0190915B01A0915C01F3
:1009F000B0915D010196A11DB11D80935A019093A4
:100A00005B01A0935C01B0935D01BF91AF919F9199
:100A10008F913F912F910F900FBE0F901F901895BF
:100A20001F920F920FB60F9211242F933F934F9363
:100A30005F936F937F938F939F93AF93BF93EF9346
:100A4000FF938091540187FF05C01092850010929A
:100A500084001BC020915401022E000C330B8091A6
:100A60001F0290E02817390784F480915401082E62
:100A7000000C990BFC01EE0FFF1F8E0F9F1FFC0156
:100A8000E550FE4F808186FD15C0809154018F5F37
:100A90008093540120915401022E000C330B80915D
:100AA0001F0290E028173907C4F4809154018C305C
:100AB00064F113C080915401082E000C990BFC01C5
:100AC000EE0FFF1F8E0F9F1FFC01E550FE4F808130
:100AD00060E08F730E94D201D8CF80918400909102
:100AE0008500049680349C4918F480E49CE905C094
:100AF0008091840090918500049690938900809362
:100B000088008FEF809354013BC020918400309186
:100B1000850080915401082E000C990BFC01EE0F0A
:100B2000FF1F8E0F9F1FFC01E550FE4F81819281B8
:100B3000820F931F909389008093880080915401C5
:100B4000082E000C990BFC01EE0FFF1F8E0F9F1F4C
:100B5000FC01E550FE4F808186FF12C08091540158
:100B6000082E000C990BFC01EE0FFF1F8E0F9F1F2C
:100B7000FC01E550FE4F808161E08F730E94D2013D
:100B8000FF91EF91BF91AF919F918F917F916F9165
:100B90005F914F913F912F910F900FBE0F901F903B
:100BA0001895109261011092600188EE93E0A0E028
:100BB000B0E08093620190936301A0936401B093CD
:100BC000650185E091E090935F0180935E0185EC83
:100BD00090E090936B0180936A0184EC90E0909395
:100BE0006D0180936C0180EC90E090936F01809395
:100BF0006E0181EC90E0909371018093700182EC22
:100C000090E0909373018093720186EC90E0909352
:100C100075018093740110927701109278011092FF
:100C2000790110927A0189E090E090934B028093D1
:100C30004A0286E090E090934D0280934C0261E07E
:100C400089E00E941E0261E080914C020E941E0217
:100C500085E090E0909347028093460283E090E025
:100C6000909349028093480261E085E00E941E0251
:100C700061E0809148020E941E02A0914602B0915C
:100C80004702609148027091490240914A02509196
:100C90004B0220914C0230914D0280911F028C300A
:100CA000A0F491E0980F90931F028093340290E09B
:100CB000FC01EE0FFF1F8E0F9F1FFC01E550FE4F42
:100CC00088EB9BE09283818303C08FEF8093340293
:100CD00080911F028C30A0F491E0980F90931F0236
:100CE0008093370290E0FC01EE0FFF1F8E0F9F1FD5
:100CF000FC01E550FE4F88EB9BE09283818303C0AB
:100D00008FEF80933702B0932102A093200270935B
:100D100023026093220250932502409324023093D1
:100D20002702209326020895789484B5826084BDBA
:100D300084B5816084BD85B5826085BD85B58160DF
:100D400085BD80916E00816080936E00109281005D
:100D50008091810082608093810080918100816018
:100D600080938100809180008160809380008091D9
:100D7000B10084608093B1008091B0008160809365
:100D8000B00080917A00846080937A0080917A002C
:100D9000826080937A0080917A00816080937A00EB
:100DA00080917A00806880937A001092C100E0916F
:100DB0006E01F0916F0182E08083E0916A01F09111
:100DC0006B011082E0916C01F0916D0180E18083F4
:100DD00010927601E0917201F091730186E08083B8
:100DE000E0917001F0917101808180618083E091D8
:100DF0007001F0917101808188608083E0917001C1
:100E0000F0917101808180688083E0917001F091A0
:100E1000710180818F7D8083C0E0C111A5C082E017
:100E200090E00E94EB0290932D0280932C0283E0CD
:100E300090E00E94EB0290932F0280932E0220916B
:100E40002C0230912D022F3F4FEF340749F08F3F96
:100E50004FEF940729F02A30310514F40A978CF0EB
:100E600068EC70E080E292E00E94DE0268EC70E0E4
:100E700084E292E00E94DE0286E191E00E94F603A5
:100E8000CECF86E291E00E94F60386E090E00E94D9
:100E9000EB02909331028093300287E090E00E9451
:100EA000EB02909333028093320264EB70E084E2B1
:100EB00092E00E94DE0260E070E0809120020E94D9
:100EC0005A0264EB70E0809122020E945A028091E3
:100ED00030029091310220913202309133028F3FE3
:100EE0004FEF940721F42F3F4FEF340771F2821B2D
:100EF000930B97FF03C091958195910904972CF668
:100F000060E070E080E292E00E94DE0260E070E06B
:100F100084E292E00E94DE020E94B9024B015C0171
:100F200088EEC82E83E0D82EE12CF12C0E94B90265
:100F3000DC01CB0188199909AA09BB09883E9340B5
:100F4000A105B10558F081E0C81AD108E108F108FF
:100F500028EE820E23E0921EA11CB11CC114D10404
:100F6000E104F10419F7C1E082E090E00E94EB0295
:100F700090932D0280932C0283E090E00E94EB027C
:100F800090932F0280932E0283E391E00E94E4036A
:100F900060912C0270912D02072E000C880B990B8A
:100FA00097FF03C00E94450403C04AE00E94040466
:100FB00089E391E00E94E40360912E0270912F0278
:100FC000072E000C880B990B97FF03C00E94450465
:100FD00003C04AE00E94040483E191E00E94E4031C
:100FE00080912C0290912D028B30910514F4019682
:100FF00049F480912E0290912F028B3091059CF440
:10100000019689F060E070E080E292E00E94DE02EA
:1010100060E070E084E292E00E94DE028FE391E003
:101020000E94F60339C080913002909131022091E4
:101030003202309133028D30910564F02D3031054C
:101040004CF064EB70E084E292E00E94DE0266E91C
:1010500070E01DC0A9014D5F5F4F481759078CF321
:10106000AC014D5F5F4F421753071CF466E970E017
:1010700008C0821B930B0296059708F074CF64EBAF
:1010800070E084E292E00E94DE0264EB70E080E2B5
:1010900092E00E94DE02C1CE0E94C801FDCF052E63
:1010A00097FB1EF400940E94660857FD07D00E942B
:1010B0006E0807FC03D04EF40C94660850954095DA
:1010C000309521953F4F4F4F5F4F089590958095F4
:1010D000709561957F4F8F4F9F4F0895A1E21A2E13
:1010E000AA1BBB1BFD010DC0AA1FBB1FEE1FFF1FCC
:1010F000A217B307E407F50720F0A21BB30BE40B1C
:10110000F50B661F771F881F991F1A9469F7609562
:101110007095809590959B01AC01BD01CF0108951C
:10112000A29FB001B39FC001A39F700D811D112428
:10113000911DB29F700D811D1124911D08950E9473
:10114000B3080C949B090E94940958F00E948D09E1
:1011500040F029F45F3F29F00C94840951110C945C
:10116000CF090C948A090E94AC0968F39923B1F362
:10117000552391F3951B550BBB27AA2762177307BD
:10118000840738F09F5F5F4F220F331F441FAA1F51
:10119000A9F335D00E2E3AF0E0E832D0915050400D
:1011A000E695001CCAF72BD0FE2F29D0660F771FBB
:1011B000881FBB1F261737074807AB07B0E809F0A1
:1011C000BB0B802DBF01FF2793585F4F3AF09E3F26
:1011D000510578F00C9484090C94CF095F3FE4F337
:1011E000983ED4F3869577956795B795F7959F5F69
:1011F000C9F7880F911D9695879597F90895E1E0B5
:10120000660F771F881FBB1F621773078407BA0713
:1012100020F0621B730B840BBA0BEE1F88F7E0956E
:1012200008950E9418096894B1110C94CF0908958B
:101230000E94B40988F09F5798F0B92F9927B751A9
:10124000B0F0E1F0660F771F881F991F1AF0BA956A
:10125000C9F714C0B13091F00E94CE09B1E00895F1
:101260000C94CE09672F782F8827B85F39F0B93FE3
:10127000CCF3869577956795B395D9F73EF490951D
:101280008095709561957F4F8F4F9F4F0895E8949B
:1012900009C097FB3EF490958095709561957F4FBE
:1012A0008F4F9F4F9923A9F0F92F96E9BB2793956C
:1012B000F695879577956795B795F111F8CFFAF47C
:1012C000BB0F11F460FF1BC06F5F7F4F8F4F9F4FAD
:1012D00016C0882311F096E911C0772321F09EE80B
:1012E000872F762F05C0662371F096E8862F70E071
:1012F00060E02AF09A95660F771F881FDAF7880F4B
:101300009695879597F9089597F99F6780E870E01B
:1013100060E008959FEF80EC089500240A9416166B
:10132000170618060906089500240A9412161306D3
:10133000140605060895092E0394000C11F4882361
:1013400052F0BB0F40F4BF2B11F460FF04C06F5F7D
:101350007F4F8F4F9F4F089557FD9058440F551F53
:1013600059F05F3F71F04795880F97FB991F61F027
:101370009F3F79F087950895121613061406551F9E
:10138000F2CF4695F1DF08C0161617061806991F0A
:10139000F1CF86957105610508940895E894BB27FF
:1013A00066277727CB0197F908950E94E8090C94E6
:1013B0009B090E948D0938F00E94940920F0952322
:1013C00011F00C9484090C948A0911240C94CF090F
:1013D0000E94AC0970F3959FC1F3950F50E0551F23
:1013E000629FF001729FBB27F00DB11D639FAA277A
:1013F000F00DB11DAA1F649F6627B00DA11D661FC9
:10140000829F2227B00DA11D621F739FB00DA11DE9
:10141000621F839FA00D611D221F749F3327A00DA3
:10142000611D231F849F600D211D822F762F6A2F3F
:1014300011249F5750409AF0F1F088234AF0EE0FA4
:10144000FF1FBB1F661F771F881F91505040A9F7D1
:101450009E3F510580F00C9484090C94CF095F3FA6
:10146000E4F3983ED4F3869577956795B795F7950D
:10147000E7959F5FC1F7FE2B880F911D9695879585
:1014800097F90895FA01EE0FFF1F309621053105F7
:10149000A1F16115710561F48038BFE39B0749F143
:1014A00068949038810561F08038BFEF9B0741F068
:1014B00099234AF5FF3FE1053105210519F1E8942B
:1014C0000894E795D901AA2329F4AB2FBE2FF85F22
:1014D000D0F310C0FF5F70F4A695E0F7F73950F035
:1014E00019F0FF3A38F49F779F930DD00F9007FCC7
:1014F0009058089546F00C948A0960E070E080E806
:101500009FE308954FE79F775F934F933F932F9308
:101510000E943D0B2F913F914F915F910E94D50901
:101520000C949A0A29F416F00C9484090C94CE09B0
:101530000C948A090E94B409A8F39638A0F707F81A
:101540000F92E8942BE33AEA48EB5FE70E94EB093D
:101550000F920F920F924DB75EB70F920E94850BBC
:10156000E8E6F0E00E94CC0A4F915F91EF91FF9185
:10157000E595EE1FFF1F49F0FE57E0684427EE0F88
:10158000441FFA95E1F74195550B0E94FF0A0F9011
:1015900007FE0C94F30A0895DF93CF931F930F93E4
:1015A000FF92EF92DF927B018C01689406C0DA2EE5
:1015B000EF010E94E809FE01E894A591259135917B
:1015C00045915591A6F3EF010E94D10BFE019701C1
:1015D000A801DA9469F7DF90EF90FF900F911F91C7
:1015E000CF91DF9108959B01AC0160E070E080E84D
:1015F0009FE30C949F080C9484090C94260C0E9481
:10160000B409D8F39923C9F3940F511DA3F3915052
:10161000504094F059F0882332F0660F771F881FEE
:1016200091505040C1F79E3F51052CF7880F911DF6
:101630009695879597F908955F3FACF0983E9CF09A
:10164000BB27869577956795B79508F4B160939514
:10165000C1F7BB0F58F711F460FFE8CF6F5F7F4F02
:101660008F4F9F4FE3CF0C94CF0916F00C94260CAC
:101670000C948A0968940C9484090E94B409A8F314
:101680009923C1F3AEF3DF93CF931F930F93FF9290
:10169000C92FDD2788232AF02197660F771F881F1F
:1016A000DAF720E030E040E85FEB9FE3883920F094
:1016B000803E38F021968F770E94BA0BE0E9F0E087
:1016C00004C00E94BA0BEDEBF0E00E94CC0A8B0143
:1016D000BE01EC01FB2E6F5771097595771F880BC2
:1016E000990B0E94490928E132E741E35FE30E9438
:1016F000E809AF2D9801AE01FF900F911F91CF9196
:10170000DF910E94D10B0C949B09FA01DC01AA0F16
:10171000BB1F9B01AC01BF5728F422273327442766
:10172000507820C0B75190F4AB2F002446953795E0
:101730002795011CA395D2F3002071F0220F331FCF
:10174000441FB395DAF30ED00C94B90B61307105D8
:10175000A0E88A07B94630F49B01AC0166277727D9
:1017600088279078309621F02083318342835383F9
:1017700008955058BB27AA270E94D10B0C949B09AF
:101780000E948D0938F00E94940920F039F49F3F9F
:1017900019F426F40C948A090EF4E095E7FB0C94F6
:1017A0008409E92F0E94AC0958F3BA17620773073E
:1017B0008407950720F079F4A6F50C94CE090EF471
:1017C000E0950B2EBA2FA02D0B01B90190010C0151
:1017D000CA01A0011124FF27591B99F0593F50F469
:1017E000503E68F11A16F040A22F232F342F4427C1
:1017F000585FF3CF469537952795A795F0405395B9
:10180000C9F77EF41F16BA0B620B730B840BBAF088
:101810009150A1F0FF0FBB1F661F771F881FC2F7F3
:101820000EC0BA0F621F731F841F48F48795779507
:101830006795B795F7959E3F08F0B0CF9395880FC1
:1018400008F09927EE0F9795879508959F3F31F0FF
:10185000915020F4879577956795B795880F911DDE
:101860009695879597F908950E949008B7FF089577
:10187000821B930B0895EE0FFF1F0590F491E02D4E
:10188000099481E090E0F8940C94460CF894FFCF12
:1018900001000000005F01C800F700A60128010652
:1018A000011A010D0A00536567756520656D206694
:1018B00072656E7465004163686F75205061726572
:1018C0006465002053323A20002053333A2000410F
:1018D00063686569206F20636172616C686F207452
:0418E0006F646F00C2
:107E0000112484B714BE81FFF0D085E080938100F7
:107E100082E08093C00088E18093C10086E0809377
:107E2000C20080E18093C4008EE0C9D0259A86E02C
:107E300020E33CEF91E0309385002093840096BBD3
:107E4000B09BFECF1D9AA8958150A9F7CC24DD24C4
:107E500088248394B5E0AB2EA1E19A2EF3E0BF2EE7
:107E6000A2D0813461F49FD0082FAFD0023811F036
:107E7000013811F484E001C083E08DD089C08234E0
:107E800011F484E103C0853419F485E0A6D080C0E4
:107E9000853579F488D0E82EFF2485D0082F10E0AE
:107EA000102F00270E291F29000F111F8ED06801E7
:107EB0006FC0863521F484E090D080E0DECF843638
:107EC00009F040C070D06FD0082F6DD080E0C81688
:107ED00080E7D80618F4F601B7BEE895C0E0D1E017
:107EE00062D089930C17E1F7F0E0CF16F0E7DF06D8
:107EF00018F0F601B7BEE89568D007B600FCFDCFD4
:107F0000A601A0E0B1E02C9130E011968C91119780
:107F100090E0982F8827822B932B1296FA010C0160
:107F200087BEE89511244E5F5F4FF1E0A038BF0790
:107F300051F7F601A7BEE89507B600FCFDCF97BE46
:107F4000E89526C08437B1F42ED02DD0F82E2BD052
:107F50003CD0F601EF2C8F010F5F1F4F84911BD097
:107F6000EA94F801C1F70894C11CD11CFA94CF0C13
:107F7000D11C0EC0853739F428D08EE10CD085E9AC
:107F80000AD08FE07ACF813511F488E018D01DD067
:107F900080E101D065CF982F8091C00085FFFCCF94
:107FA0009093C60008958091C00087FFFCCF809118
:107FB000C00084FD01C0A8958091C6000895E0E648
:107FC000F0E098E1908380830895EDDF803219F02E
:107FD00088E0F5DFFFCF84E1DECF1F93182FE3DFCA
:107FE0001150E9F7F2DF1F91089580E0E8DFEE27F6
:047FF000FF270994CA
:027FFE00040479
:0400000300007E007B
:00000001FF
