:100000000C945D000C9485000C9485000C94850084
:100010000C9485000C9485000C9485000C9485004C
:100020000C9485000C9485000C9485000C9492042B
:100030000C9485000C9485000C9485000C9485002C
:100040000C9448040C9485000C9416040C94F00352
:100050000C9485000C9485000C9485000C9485000C
:100060000C9485000C9485000000000024002700FB
:100070002A0000000000250028002B0004040404CE
:100080000404040402020202020203030303030342
:10009000010204081020408001020408102001021F
:1000A00004081020000000080002010000030407FB
:1000B0000000000000000000530511241FBECFEF18
:1000C000D8E0DEBFCDBF11E0A0E0B1E0ECE7F1E1A8
:1000D00002C005900D92AE31B107D9F722E0AEE132
:1000E000B1E001C01D92A036B207E1F710E0CDE506
:1000F000D0E004C02197FE010E94B108CC35D107A1
:10010000C9F70E94EB070C94BC080C94000080E433
:1001100080937C0080917A00806480937A00809143
:100120007A0086FDFCCF809178002091790090E0E4
:10013000922B0895CF92DF92EF92FF920F931F932D
:10014000CF93DF936C017A018B01C0E0D0E0CE1534
:10015000DF0589F0D8016D918D01D601ED91FC91FB
:100160000190F081E02DC6010995892B11F47E01E3
:1001700002C02196ECCFC701DF91CF911F910F9163
:10018000FF90EF90DF90CF900895FC01538D448D48
:10019000252F30E0842F90E0821B930B541710F032
:1001A000CF96089501970895FC01918D828D98173F
:1001B00061F0828DDF01A80FB11D5D968C91928D4B
:1001C0009F5F9F73928F90E008958FEF9FEF089548
:1001D000FC01918D828D981731F0828DE80FF11D11
:1001E000858D90E008958FEF9FEF0895FC01918D2C
:1001F000228D892F90E0805C9F4F821B91098F7325
:10020000992708958DE491E00E94F60021E0892B62
:1002100009F420E0822F0895FC01848DDF01A80FEE
:10022000B11DA35ABF4F2C91848D90E001968F731E
:100230009927848FA689B7892C93A089B1898C913D
:1002400080648C93938D848D981306C00288F38903
:10025000E02D80818F7D80830895EF92FF920F9330
:100260001F93CF93DF93EC0181E0888F9B8D8C8D62
:10027000981305C0E889F989808185FD24C0F62E90
:100280000B8D10E00F5F1F4F0F731127E02E8C8D29
:10029000E8120CC00FB607FCFACFE889F989808113
:1002A00085FFF5CFCE010E940C01F1CF8B8DFE01B1
:1002B000E80FF11DE35AFF4FF0820B8FEA89FB89AB
:1002C0008081806207C0EE89FF896083E889F989AF
:1002D00080818064808381E090E0DF91CF911F91E5
:1002E0000F91FF90EF900895CF93DF93EC01888DED
:1002F0008823C9F0EA89FB89808185FD05C0A8892A
:10030000B9898C9186FD0FC00FB607FCF5CF8081AF
:1003100085FFF2CFA889B9898C9185FFEDCFCE01F9
:100320000E940C01E7CFDF91CF91089580E090E02B
:10033000892B29F00E94020181110C94000008957C
:1003400090E0FC01EC55FF4F3491FC01E057FF4F6A
:100350002491FC01E458FF4FE491EE2309F43BC0E3
:10036000332339F1333091F038F43130A9F03230A1
:1003700001F584B58F7D12C0373091F03830A1F08F
:100380003430B9F4809180008F7D03C0809180006B
:100390008F77809380000DC084B58F7784BD09C0AE
:1003A0008091B0008F7703C08091B0008F7D8093E3
:1003B000B000F0E0EE0FFF1FEE58FF4FA591B49193
:1003C0008FB7F894EC91611103C020952E2301C0E2
:1003D0002E2B2C938FBF0895CF93DF9390E0FC01D9
:1003E000E057FF4F2491FC01E458FF4F849188238C
:1003F00061F190E0880F991FFC01E859FF4FC5910A
:10040000D491FC01EE58FF4FA591B491611109C040
:100410009FB7F8948881209582238883EC912E23BE
:100420000BC0623061F49FB7F8943881822F8095B9
:1004300083238883EC912E2B2C939FBF06C08FB70C
:10044000F894E8812E2B28838FBFDF91CF910895F8
:100450001F93CF93DF93182FEB0161E00E94EC0113
:10046000209711F460E004C0CF3FD10539F461E07A
:10047000812FDF91CF911F910C94A001E12FF0E02B
:10048000EC55FF4FE491E330F9F048F4E130B9F076
:10049000E230A1F584B5806284BDC8BD34C0E730C8
:1004A000E9F0E83019F1E43049F58091800080628C
:1004B00080938000D0938B00C0938A0024C084B5C1
:1004C000806884BDC7BD1FC0809180008068809314
:1004D0008000D0938900C093880015C08091B0003F
:1004E00080688093B000C093B3000DC08091B000CD
:1004F00080628093B000C093B40005C0C038D105BD
:100500000CF0B5CFAFCFDF91CF911F910895CF936E
:10051000DF93CAE3D2E0BC0188810E94280260E038
:1005200070E08A81DF91CF910C942802CF93DF9302
:10053000662321F0DF91CF910C948702EC0160E0FB
:1005400070E080913A020E942802BE0180913C0234
:10055000DF91CF910C9428023FB7F8948091490124
:1005600090914A01A0914B01B0914C0126B5A89BF6
:1005700005C02F3F19F00196A11DB11D3FBFBA2F35
:10058000A92F982F8827820F911DA11DB11DBC0195
:10059000CD0142E0660F771F881F991F4A95D1F75A
:1005A00008958F929F92AF92BF92CF92DF92EF9277
:1005B000FF920E94AC024B015C0188EEC82E83E0E2
:1005C000D82EE12CF12C0E94AC02DC01CB01881961
:1005D0009909AA09BB09883E9340A105B10558F0C5
:1005E00021E0C21AD108E108F10888EE880E83E004
:1005F000981EA11CB11CC114D104E104F10419F727
:10060000FF90EF90DF90CF90BF90AF909F908F9032
:1006100008950E94870060E0893492402CF48FEFA7
:1006200090E00E949602F5CF80E090E00E94960252
:100630000E94D10283E090E090933F0280933E02BB
:100640000895CF93DF93EC0160E08E810E94A001BA
:1006500061E08E810E94A00160E08E810E94A00175
:100660008BE891E00197F1F7DF91CF910895CF9258
:10067000DF92EF92FF920F931F93CF93DF937C0152
:100680006C0187E0C80ED11CC0E0D0E0062F10E05E
:10069000B8010C2E02C0759567950A94E2F7617057
:1006A000F60181916F010E94A0012196C430D1050D
:1006B00079F7C701DF91CF911F910F91FF90EF90D4
:1006C000DF90CF900C942103CF92DF92EF92FF92B4
:1006D0000F931F93CF93DF93EC01F62E642F8C8141
:1006E0000E94A0018D818F3F19F060E00E94A0015F
:1006F0008F850F2D10E084FF25C06E0187E0C80EA6
:10070000D11CE12CF12CB8010E2C02C07595679517
:100710000A94E2F76170F60181916F010E94A001D5
:10072000FFEFEF1AFF0A88E0E816F10461F7CE0147
:10073000DF91CF911F910F91FF90EF90DF90CF90BD
:100740000C942103B80184E0759567958A95E1F7CB
:10075000CE010E9437036F2DCE01DF91CF911F9103
:100760000F91FF90EF90DF90CF900C94370341E012
:100770000E94640381E090E00895089580E090E095
:100780000895FC01909143019C30A0F481E0890F11
:10079000809343019083892F90E0FC01EE0FFF1FAF
:1007A0008E0F9F1FFC01E15EFE4F88EB9BE0928362
:1007B000818308958FEF80830895CF93DF93EC01B9
:1007C000862F688379835B834A8361E00E94EC0112
:1007D00061E08A81DF91CF910C94EC010E94B7080F
:1007E0001F920F920FB60F9211242F933F934F93A6
:1007F0005F936F937F938F939F93AF93BF93EF9389
:10080000FF938DE491E00E940C01FF91EF91BF9165
:10081000AF919F918F917F916F915F914F913F9198
:100820002F910F900FBE0F901F9018951F920F924F
:100830000FB60F9211242F938F939F93EF93FF93F3
:10084000E0915D01F0915E018081E0916301F091A2
:10085000640182FD12C09081809166018F5F8F7369
:1008600020916701821751F0E0916601F0E0E35BAF
:10087000FE4F958F8093660101C08081FF91EF91BB
:100880009F918F912F910F900FBE0F901F901895F1
:100890001F920F920FB60F9211242F933F938F93B5
:1008A0009F93AF93BF938091450190914601A09192
:1008B0004701B09148013091440123E0230F2D37C7
:1008C00020F40196A11DB11D05C026E8230F029654
:1008D000A11DB11D209344018093450190934601D1
:1008E000A0934701B09348018091490190914A013A
:1008F000A0914B01B0914C010196A11DB11D8093B7
:10090000490190934A01A0934B01B0934C01BF91D0
:10091000AF919F918F913F912F910F900FBE0F90AC
:100920001F9018951F920F920FB60F9211242F93BC
:100930003F934F935F936F937F938F939F93AF9367
:10094000BF93EF93FF9380911E0187FF05C0109224
:100950008500109284001BC020911E01022E000C05
:10096000330B8091430190E02817390784F480917C
:100970001E01082E000C990BFC01EE0FFF1F8E0FBD
:100980009F1FFC01E15EFE4F808186FD15C08091B6
:100990001E018F5F80931E0120911E01022E000C0C
:1009A000330B8091430190E028173907C4F48091FC
:1009B0001E018C3064F113C080911E01082E000CC2
:1009C000990BFC01EE0FFF1F8E0F9F1FFC01E15ED4
:1009D000FE4F808160E08F730E94A001D8CF80918C
:1009E000840090918500049680349C4918F480E43A
:1009F0009CE905C0809184009091850004969093B5
:100A00008900809388008FEF80931E013BC0209166
:100A100084003091850080911E01082E000C990BF6
:100A2000FC01EE0FFF1F8E0F9F1FFC01E15EFE4FCA
:100A300081819281820F931F909389008093880017
:100A400080911E01082E000C990BFC01EE0FFF1F78
:100A50008E0F9F1FFC01E15EFE4F808186FF12C05A
:100A600080911E01082E000C990BFC01EE0FFF1F58
:100A70008E0F9F1FFC01E15EFE4F808161E08F734E
:100A80000E94A001FF91EF91BF91AF919F918F9133
:100A90007F916F915F914F913F912F910F900FBE7A
:100AA0000F901F9018952F923F924F925F926F92E6
:100AB0007F928F929F92AF92BF92CF92DF92EF92EE
:100AC000FF920F931F93CF93DF93CDB7DEB76E974F
:100AD0000FB6F894DEBF0FBECDBF1092500110923A
:100AE0004F0188EE93E0A0E0B0E080935101909335
:100AF0005201A0935301B093540184E091E090938C
:100B00004E0180934D0185EC90E090935A018093C3
:100B1000590184EC90E090935C0180935B0180EC40
:100B200090E090935E0180935D0181EC90E0909362
:100B3000600180935F0182EC90E09093620180936A
:100B4000610186EC90E090936401809363011092C0
:100B500066011092670110926801109269014AE0E3
:100B600050E069E070E08CE592E00E94DD0347E030
:100B700050E068E070E088E592E00E94DD0343E029
:100B800050E062E070E084E592E00E94DD03E090D6
:100B90005402F0905502009156021091570284E4DD
:100BA00092E00E94C10387E492E00E94C1038BE0BF
:100BB00090E090934B0280934A0289E090E09093FA
:100BC0004F0280934E028AE090E090934D02809312
:100BD0004C02F0925102E0925002109353020093A3
:100BE000520262E086E10E94EC0162E088E10E942C
:100BF000EC014CE050E06BE070E080E492E00E9499
:100C0000DD03809142029091430220914002309195
:100C1000410230933B0220933A0290933D0280932D
:100C20003C0201E010E010933F0200933E0244E0DA
:100C300050E065E070E086E392E00E94DD036090A2
:100C400058027090590280905A0290905B02A090D6
:100C50005C02B0905D02C0905E02D0905F0280E1C5
:100C6000E4E4F2E0DE01119601900D928A95E1F73D
:100C7000E0904A02F0904B0220914C0230914D02DC
:100C800020904E0230904F0286E0EAE3F2E0DE016F
:100C9000519601900D928A95E1F740913E02509154
:100CA0003F028091360290913702988F8F8B80910E
:100CB0003802909139029A8F898F8DE0482E512CFD
:100CC000509206024092050250920802409207029A
:100CD00050920A024092090250920C0240920B027A
:100CE00050920E0240920D025092100240920F025A
:100CF0008DE192E02D8F3E8F4B8F5C8F0E94C10360
:100D000080E292E00E94C10350922A02409229029E
:100D100050922C0240922B0262E086E10E94EC018C
:100D200062E088E10E94EC0150922E0240922D0276
:100D30005092300240922F021093320200933102FF
:100D400083E392E00E94C103709206026092050262
:100D50009092080280920702B0920A02A0920902C1
:100D6000D0920C02C0920B02F0922402E092230275
:100D700030922802209227022D8D3E8D309326023C
:100D8000209325028D859E85AF85B88990932A0290
:100D900080932902B0932C02A0932B0289899A890F
:100DA000AB89BC8990932E0280932D02B0933002C0
:100DB000A0932F024B8D5C8D5093320240933102F1
:100DC00062E086E10E94EC0162E088E10E94EC01B1
:100DD0008F89988D90930E0280930D02898D9A8D44
:100DE0009093100280930F0282E092E00E94C10370
:100DF0001092ED011092EC0186E191E09093EB01ED
:100E00008093EA018CE18093EE018FEF8093EF01F4
:100E10008EE18093F00180E28093F10182E2809381
:100E2000F20184E28093F30186E28093F401109250
:100E3000F5011092F6011092F7011092F80110924C
:100E4000F90181E08093FD011092FE0180E480931E
:100E5000FF0180E18093000280E58093010261E060
:100E60008CE10E94EC018091EF018F3F19F061E06D
:100E70000E94EC0161E08091F0010E94EC0100E031
:100E800010E08091F90184FD03C084E090E002C08D
:100E900088E090E00817190754F4F801E651FE4F76
:100EA00061E087810E94EC010F5F1F4FEACF8BE367
:100EB0009DE00197F1F760E08091EE010E94A001B2
:100EC00060E08091F0010E94A0018091EF018F3FCE
:100ED00019F060E00E94A0016091F90164FD21C059
:100EE00063E08AEE91E00E9437030BE416E4C80148
:100EF0000197F1F763E08AEE91E00E943703C801A1
:100F00000197F1F763E08AEE91E00E94370383E5F1
:100F100092E00197F1F762E08AEE91E00E943703D8
:100F20001EC0606240E08AEE91E00E9464038BE4A0
:100F300096E40197F1F76091F901606240E08AEE72
:100F400091E00E94640383E592E00197F1F76091DC
:100F5000F901606240E08AEE91E00E9464036091D2
:100F6000F901606240E08AEE91E00E94640384E04F
:100F70008093FA0140E06CE08AEE91E00E94640305
:100F800040E061E08AEE91E00E9464038BE39FE120
:100F90000197F1F782E08093FB0140E066E08AEE82
:100FA00091E06E960FB6F894DEBF0FBECDBFDF9115
:100FB000CF911F910F91FF90EF90DF90CF90BF9056
:100FC000AF909F908F907F906F905F904F903F90E9
:100FD0002F900C946403789484B5826084BD84B5AA
:100FE000816084BD85B5826085BD85B5816085BD24
:100FF00080916E00816080936E00109281008091DC
:101000008100826080938100809181008160809363
:101010008100809180008160809380008091B10088
:1010200084608093B1008091B00081608093B000B3
:1010300080917A00846080937A0080917A00826047
:1010400080937A0080917A00816080937A00809109
:101050007A00806880937A001092C100E0915D016F
:10106000F0915E0182E08083E0915901F0915A0194
:101070001082E0915B01F0915C018FEC8083109213
:101080006501E0916101F091620186E08083E09169
:101090005F01F0916001808180618083E0915F0158
:1010A000F0916001808188608083E0915F01F09120
:1010B0006001808180688083E0915F01F091600130
:1010C00080818F7D808302E010E0C1E0D0E00E944B
:1010D000090380913E0290913F028130910581F495
:1010E0000E94870060E0833092402CF48FEF90E004
:1010F0000E949602F5CF80E090E00E94960213C015
:10110000039789F40E948700843092402CF08FEF7F
:1011100090E00E948702F6CF60E080E090E00E94BD
:1011200096020E94D10210933F0200933E020E9459
:1011300009030E948700813E91402CF08FEF90E0E0
:101140000E948702F6CF60E080E090E00E94960265
:101150000E94D102D0933F02C0933E020E949601AA
:10116000B6CFEE0FFF1F0590F491E02D099481E0BA
:0C11700090E0F8940C94BC08F894FFCFB9
:10117C00000000002D019A00C5007401F600D40097
:0E118C00E80000000000B7039A00BE03BD0398
:107E0000112484B714BE81FFF0D085E080938100F7
:107E100082E08093C00088E18093C10086E0809377
:107E2000C20080E18093C4008EE0C9D0259A86E02C
:107E300020E33CEF91E0309385002093840096BBD3
:107E4000B09BFECF1D9AA8958150A9F7CC24DD24C4
:107E500088248394B5E0AB2EA1E19A2EF3E0BF2EE7
:107E6000A2D0813461F49FD0082FAFD0023811F036
:107E7000013811F484E001C083E08DD089C08234E0
:107E800011F484E103C0853419F485E0A6D080C0E4
:107E9000853579F488D0E82EFF2485D0082F10E0AE
:107EA000102F00270E291F29000F111F8ED06801E7
:107EB0006FC0863521F484E090D080E0DECF843638
:107EC00009F040C070D06FD0082F6DD080E0C81688
:107ED00080E7D80618F4F601B7BEE895C0E0D1E017
:107EE00062D089930C17E1F7F0E0CF16F0E7DF06D8
:107EF00018F0F601B7BEE89568D007B600FCFDCFD4
:107F0000A601A0E0B1E02C9130E011968C91119780
:107F100090E0982F8827822B932B1296FA010C0160
:107F200087BEE89511244E5F5F4FF1E0A038BF0790
:107F300051F7F601A7BEE89507B600FCFDCF97BE46
:107F4000E89526C08437B1F42ED02DD0F82E2BD052
:107F50003CD0F601EF2C8F010F5F1F4F84911BD097
:107F6000EA94F801C1F70894C11CD11CFA94CF0C13
:107F7000D11C0EC0853739F428D08EE10CD085E9AC
:107F80000AD08FE07ACF813511F488E018D01DD067
:107F900080E101D065CF982F8091C00085FFFCCF94
:107FA0009093C60008958091C00087FFFCCF809118
:107FB000C00084FD01C0A8958091C6000895E0E648
:107FC000F0E098E1908380830895EDDF803219F02E
:107FD00088E0F5DFFFCF84E1DECF1F93182FE3DFCA
:107FE0001150E9F7F2DF1F91089580E0E8DFEE27F6
:047FF000FF270994CA
:027FFE00040479
:0400000300007E007B
:00000001FF
