:100000000C949E000C94C6000C94C6000C94C60080
:100010000C94C6000C94C6000C94C6000C94C60048
:100020000C94C6000C94C6000C94C6000C94C60038
:100030000C94C6000C94C6000C94C6000C94C60028
:100040000C947F040C94C6000C94EF040C94C90427
:100050000C94C6000C94C6000C94C6000C94C60008
:100060000C94C6000C94C60007634236B79BD8A711
:100070001A39685618AEBAAB558C1D3CB7CC5763CD
:10008000BD6DEDFD753EF6177231BF000000803F7B
:1000900008000000BE922449123EABAAAA2ABECD97
:1000A000CCCC4C3E00000080BEABAAAAAA3E000009
:1000B0000000BF000000803F000000000008417801
:1000C000D3BB4387D1133D190E3CC3BD4282AD2B38
:1000D0003E68EC8276BED98FE1A93E4C80EFFFBE30
:1000E00001C4FF7F3F00000000000000000024006A
:1000F00027002A0000000000250028002B0004042F
:1001000004040404040402020202020203030303BF
:10011000030301020408102040800102040810209B
:100120000102040810200000000800020100000382
:1001300004070000000000000000210511241FBE7C
:10014000CFEFD8E0DEBFCDBF11E0A0E0B1E0EEE53B
:10015000F5E102C005900D92A435B107D9F722E070
:10016000A4E5B1E001C01D92A631B207E1F710E0AD
:10017000CEE9D0E004C02197FE010E94A20ACD3949
:10018000D107C9F70E948F050C94AD0A0C940000AA
:10019000CF92DF92EF92FF920F931F93CF93DF9353
:1001A0006C017A018B01C0E0D0E0CE15DF0589F04B
:1001B000D8016D918D01D601ED91FC910190F081F6
:1001C000E02DC6010995892B11F47E0102C021960C
:1001D000ECCFC701DF91CF911F910F91FF90EF906E
:1001E000DF90CF900895089580E090E00895FC019D
:1001F000538D448D252F30E0842F90E0821B930B8C
:10020000541710F0CF96089501970895FC01918D31
:10021000828D981761F0828DDF01A80FB11D5D9668
:100220008C91928D9F5F9F73928F90E008958FEFD6
:100230009FEF0895FC01918D828D981731F0828D8A
:10024000E80FF11D858D90E008958FEF9FEF0895E1
:10025000FC01918D228D892F90E0805C9F4F821B45
:1002600091098F73992708958DE591E00E942801E7
:1002700021E0892B09F420E0822F0895FC01848D70
:10028000DF01A80FB11DA35ABF4F2C91848D90E0C0
:1002900001968F739927848FA689B7892C93A0899B
:1002A000B1898C9180648C93938D848D981306C052
:1002B0000288F389E02D80818F7D80830895EF92FD
:1002C000FF920F931F93CF93DF93EC0181E0888F10
:1002D0009B8D8C8D981305C0E889F989808185FDF7
:1002E00024C0F62E0B8D10E00F5F1F4F0F731127E8
:1002F000E02E8C8DE8120CC00FB607FCFACFE8890F
:10030000F989808185FFF5CFCE010E943E01F1CFB2
:100310008B8DFE01E80FF11DE35AFF4FF0820B8F2A
:10032000EA89FB898081806207C0EE89FF8960834A
:10033000E889F98980818064808381E090E0DF91A1
:10034000CF911F910F91FF90EF900895CF93DF937E
:10035000EC01888D8823C9F0EA89FB89808185FDBD
:1003600005C0A889B9898C9186FD0FC00FB607FC1E
:10037000F5CF808185FFF2CFA889B9898C9185FF5F
:10038000EDCFCE010E943E01E7CFDF91CF910895DE
:1003900080E090E0892B29F00E94340181110C94B7
:1003A0000000089590E0FC01EA5DFE4F3491FC01ED
:1003B000EE5EFE4F2491FC01E250FF4FE491EE23EC
:1003C00009F43BC0332339F1333091F038F4313044
:1003D000A9F0323001F584B58F7D12C0373091F02D
:1003E0003830A1F03430B9F4809180008F7D03C0A3
:1003F000809180008F77809380000DC084B58F77C7
:1004000084BD09C08091B0008F7703C08091B00097
:100410008F7D8093B000F0E0EE0FFF1FEC50FF4F98
:10042000A591B4918FB7F894EC91611103C0209518
:100430002E2301C02E2B2C938FBF0895CF93DF93D3
:1004400090E0FC01EE5EFE4F2491FC01E250FF4F74
:100450008491882361F190E0880F991FFC01E65197
:10046000FF4FC591D491FC01EC50FF4FA591B49181
:10047000611109C09FB7F8948881209582238883F1
:10048000EC912E230BC0623061F49FB7F894388151
:10049000822F809583238883EC912E2B2C939FBFF2
:1004A00006C08FB7F894E8812E2B28838FBFDF9189
:1004B000CF9108951F93CF93DF93182FEB0161E045
:1004C0000E941E02209711F460E004C0CF3FD105C6
:1004D00039F461E0812FDF91CF911F910C94D2010B
:1004E000E12FF0E0EA5DFE4FE491E330F9F048F4EB
:1004F000E130B9F0E230A1F584B5806284BDC8BDB9
:1005000034C0E730E9F0E83019F1E43049F5809182
:100510008000806280938000D0938B00C0938A001B
:1005200024C084B5806884BDC7BD1FC08091800091
:10053000806880938000D0938900C093880015C0A4
:100540008091B00080688093B000C093B3000DC06C
:100550008091B00080628093B000C093B40005C069
:10056000C038D1050CF0B5CFAFCFDF91CF911F913F
:100570000895CF93DF93EC0188810E945A0260E0D6
:1005800070E08A81DF91CF910C945A02CF93DF9370
:10059000EC01BC018AEF91E00E94B902BE018EEF2E
:1005A00091E0DF91CF910C94B9023F924F925F920C
:1005B0006F927F928F929F92AF92BF92CF92DF9273
:1005C000EF92FF920F931F93CF93DF93CDB7DEB7D8
:1005D000CA55D1090FB6F894DEBF0FBECDBF182F94
:1005E00060E00E941E0281E08093000182EF810F93
:1005F0001E3008F0182F1770312E8E010D5C1F4F22
:10060000280128E2420E511C3801C12CD12C760160
:1006100088248A9483E0982EA12CB12CFE01319677
:100620008091000120E4829FC001112483298093DE
:100630007C0080917A00806480937A0080917A00B7
:1006400086FDFCCF809178002091790090E0922B7C
:1006500081939193E017F10719F788E190E0FE018B
:10066000319620E030E0A1E0281739078CF4619141
:10067000719140815181461757073CF4DF01129771
:100680004D935C9371836083A0E02F5F3F4FECCF6D
:10069000A11102C0019719F7A98DBA8D28E833E19D
:1006A0000E949B0AA50194010E94B606CA01B901E5
:1006B0000E94B00720E030E04AE754E40E940607B9
:1006C0002EE03DE24AE95FEB0E94A90822EF32EDFD
:1006D0004DED51E40E943C080E947807F3016193BC
:1006E00071933F01CB01770FAA0BBB0BC80ED91E2C
:1006F000EA1EFB1EE415F50509F090CFC701B6010F
:1007000024E130E040E050E00E94D50669017A0122
:10071000A90160E070E0CB01F801219131918F01D6
:10072000F901E41BF50BEE9F9001EF9F300D300DAA
:1007300011244901330FAA08BB08680D791D8A1DD1
:100740009B1D0415150541F724E130E040E050E021
:100750000E94D5062432310514F4C60102C08FEF81
:100760009FEFC65ADF4F0FB6F894DEBF0FBECDBF66
:10077000DF91CF911F910F91FF90EF90DF90CF907D
:10078000BF90AF909F908F907F906F905F904F90B1
:100790003F900895CF93DF9383E090E00E94D502CD
:1007A000CAEFD1E09987888782E090E00E94D50265
:1007B0009B878A8781E090E00E94D5029D878C8785
:1007C00080E090E00E94D5029F878E8784E090E0D1
:1007D0000E94D502998B888B85E090E00E94D5021B
:1007E0009B8B8A8BDF91CF910895009769F0FC0174
:1007F00001900020E9F73197AF01481B590BBC016C
:100800008DE591E00C94C80080E090E00895CF93CE
:10081000DF930E94F503EC0183E191E00E94F50370
:100820008C0F9D1FDF91CF9108958F929F92AF9271
:10083000BF920F931F93CF93DF93CDB7DEB7A197EE
:100840000FB6F894DEBF0FBECDBF19A2423008F438
:100850004AE08E010F5D1F4F842E912CA12CB12CEC
:10086000A50194010E94D506E62FB901CA010150E5
:100870001109EA3014F4E05D01C0E95CD801EC93A1
:10088000232B242B252B61F7C8010E94F503A19689
:100890000FB6F894DEBF0FBECDBFDF91CF911F9191
:1008A0000F91BF90AF909F908F900895CF92DF925D
:1008B000EF92FF92CF93DF936B017C01E0915D019A
:1008C000F0915E010190F081E02D6DE28DE591E007
:1008D0000995EC0166277727CB016C197D098E09F4
:1008E0009F094AE00E9415048C0F9D1FDF91CF9154
:1008F000FF90EF90DF90CF9008950E94A80A1F927A
:100900000F920FB60F9211242F933F938F939F93C3
:10091000AF93BF938091590190915A01A0915B01CF
:10092000B0915C013091580123E0230F2D3720F462
:100930000196A11DB11D05C026E8230F0296A11D39
:10094000B11D209358018093590190935A01A093AF
:100950005B01B0935C018091540190915501A0918D
:100960005601B09157010196A11DB11D809354010C
:1009700090935501A0935601B0935701BF91AF9149
:100980009F918F913F912F910F900FBE0F901F90CD
:1009900018951F920F920FB60F9211242F933F9329
:1009A0004F935F936F937F938F939F93AF93BF9377
:1009B000EF93FF938DE591E00E943E01FF91EF914F
:1009C000BF91AF919F918F917F916F915F914F9167
:1009D0003F912F910F900FBE0F901F9018951F926F
:1009E0000F920FB60F9211242F938F939F93EF9333
:1009F000FF93E0916D01F0916E018081E0917301B0
:100A0000F091740182FD12C09081809176018F5F18
:100A10008F7320917701821751F0E0917601F0E019
:100A2000E35AFE4F958F8093760101C08081FF913C
:100A3000EF919F918F912F910F900FBE0F901F906C
:100A400018950F931F93CF93DF93EDE5F1E0138299
:100A5000128288EE93E0A0E0B0E084839583A683C1
:100A6000B78385E091E09183808385EC90E0958762
:100A7000848784EC90E09787868780EC90E0918B68
:100A8000808B81EC90E0938B828B82EC90E0958B55
:100A9000848B86EC90E0978B868B118E128E138E52
:100AA000148E02E112E085E090E0F80191838083EA
:100AB00083E090E09383828361E085E00E941E02E0
:100AC00061E0F80182810E941E02CEE0D2E089E05E
:100AD00090E09983888386E090E09B838A8361E03D
:100AE00089E00E941E0261E08A810E941E024A8102
:100AF0005B81F8012081318182819381EAEFF1E00D
:100B00006881798171836083538342833583248331
:100B100097838683DF91CF911F910F9108957894E9
:100B200084B5826084BD84B5816084BD85B58260F2
:100B300085BD85B5816085BD80916E0081608093A3
:100B40006E0010928100809181008260809381000C
:100B5000809181008160809381008091800081601C
:100B6000809380008091B10084608093B100809177
:100B7000B00081608093B00080917A00846080939F
:100B80007A0080917A00826080937A0080917A0066
:100B9000816080937A0080917A00806880937A00E7
:100BA0001092C100E0916D01F0916E0182E08083AE
:100BB000E0916901F0916A011082E0916B01F0917E
:100BC0006C018FEC808310927501E0917101F091BE
:100BD000720186E08083E0916F01F0917001808165
:100BE00080618083E0916F01F09170018081886065
:100BF0008083E0916F01F091700180818068808333
:100C0000E0916F01F091700180818F7D8083C0E061
:100C10000E94CA038091020290910302C11183C015
:100C20008F3F2FEF920769F0209104023091050267
:100C30002F3F4FEF340729F00C971CF42C3031056F
:100C40004CF088EC90E00E94C60286E191E00E94A0
:100C50000704DECF86E291E00E94070480E090E086
:100C60000E94C6020E94CA0368EC70E08EEF91E019
:100C70000E94B90260E070E08091FA010E945A027D
:100C800068EC70E08091FC010E945A0283E391E0DD
:100C90000E94F5036091060270910702072E000C76
:100CA000880B990B97FF03C00E94560403C04AE0CB
:100CB0000E94150489E391E00E94F5036091080207
:100CC00070910902072E000C880B990B97FF03C047
:100CD0000E94560403C04AE00E94150483E191E09B
:100CE0000E94F5038091060290910702209108026C
:100CF000309109028F3F4FEF940729F42F3F4FEFB8
:100D0000340709F4AFCF821B930B97FF03C0919573
:100D10008195910906970CF0A5CF80E090E00E94A4
:100D2000C602C1E075CF8F3F2FEF920739F4809153
:100D3000040290910502019649F413C00D9734F016
:100D400080910402909105020D975CF480E090E0A0
:100D50000E94C6028FE391E00E9407040E94C8012E
:100D600056CF88EC90E00E94C60252CF052E97FB2A
:100D70001EF400940E94CD0657FD07D00E94D506B0
:100D800007FC03D04EF40C94CD0650954095309559
:100D900021953F4F4F4F5F4F0895909580957095E7
:100DA00061957F4F8F4F9F4F0895A1E21A2EAA1B86
:100DB000BB1BFD010DC0AA1FBB1FEE1FFF1FA2170B
:100DC000B307E407F50720F0A21BB30BE40BF50B08
:100DD000661F771F881F991F1A9469F76095709591
:100DE000809590959B01AC01BD01CF010895A29F14
:100DF000B001B39FC001A39F700D811D1124911DEF
:100E0000B29F700D811D1124911D08950E941A0733
:100E10000C9402080E94FB0758F00E94F40740F06F
:100E200029F45F3F29F00C94EB0751110C9436081C
:100E30000C94F1070E94130868F39923B1F355232A
:100E400091F3951B550BBB27AA27621773078407DD
:100E500038F09F5F5F4F220F331F441FAA1FA9F373
:100E600035D00E2E3AF0E0E832D091505040E69561
:100E7000001CCAF72BD0FE2F29D0660F771F881FC2
:100E8000BB1F261737074807AB07B0E809F0BB0BB5
:100E9000802DBF01FF2793585F4F3AF09E3F5105C9
:100EA00078F00C94EB070C9436085F3FE4F3983E1F
:100EB000D4F3869577956795B795F7959F5FC9F7B2
:100EC000880F911D9695879597F90895E1E0660F33
:100ED000771F881FBB1F621773078407BA0720F0AC
:100EE000621B730B840BBA0BEE1F88F7E095089515
:100EF0000E947F076894B1110C94360808950E94EF
:100F00001B0888F09F5798F0B92F9927B751B0F078
:100F1000E1F0660F771F881F991F1AF0BA95C9F77D
:100F200014C0B13091F00E943508B1E008950C94DE
:100F30003508672F782F8827B85F39F0B93FCCF391
:100F4000869577956795B395D9F73EF490958095FA
:100F5000709561957F4F8F4F9F4F0895E89409C01A
:100F600097FB3EF490958095709561957F4F8F4FDC
:100F70009F4F9923A9F0F92F96E9BB279395F695F2
:100F8000879577956795B795F111F8CFFAF4BB0F70
:100F900011F460FF1BC06F5F7F4F8F4F9F4F16C0D4
:100FA000882311F096E911C0772321F09EE8872F5E
:100FB000762F05C0662371F096E8862F70E060E01A
:100FC0002AF09A95660F771F881FDAF7880F969593
:100FD000879597F9089597F99F6780E870E060E03A
:100FE00008959FEF80EC089500240A9416161706C2
:100FF00018060906089500240A941216130614060A
:1010000005060895092E0394000C11F4882352F06C
:10101000BB0F40F4BF2B11F460FF04C06F5F7F4F24
:101020008F4F9F4F089557FD9058440F551F59F00B
:101030005F3F71F04795880F97FB991F61F09F3FC5
:1010400079F087950895121613061406551FF2CFEE
:101050004695F1DF08C0161617061806991FF1CF3E
:1010600086957105610508940895E894BB27662765
:101070007727CB0197F908950E944F080C94020836
:101080000E94F40738F00E94FB0720F0952311F02E
:101090000C94EB070C94F10711240C9436080E9471
:1010A000130870F3959FC1F3950F50E0551F629F91
:1010B000F001729FBB27F00DB11D639FAA27F00DB1
:1010C000B11DAA1F649F6627B00DA11D661F829FD8
:1010D0002227B00DA11D621F739FB00DA11D621FBD
:1010E000839FA00D611D221F749F3327A00D611DDA
:1010F000231F849F600D211D822F762F6A2F1124BC
:101100009F5750409AF0F1F088234AF0EE0FFF1FEE
:10111000BB1F661F771F881F91505040A9F79E3F45
:10112000510580F00C94EB070C9436085F3FE4F314
:10113000983ED4F3869577956795B795F795E7959B
:101140009F5FC1F7FE2B880F911D9695879597F9A4
:101150000895FA01EE0FFF1F309621053105A1F128
:101160006115710561F48038BFE39B0749F168940C
:101170009038810561F08038BFEF9B0741F09923DB
:101180004AF5FF3FE1053105210519F1E89408947E
:10119000E795D901AA2329F4AB2FBE2FF85FD0F32E
:1011A00010C0FF5F70F4A695E0F7F73950F019F022
:1011B000FF3A38F49F779F930DD00F9007FC90581B
:1011C000089546F00C94F10760E070E080E89FE33A
:1011D00008954FE79F775F934F933F932F930E941C
:1011E000A4092F913F914F915F910E943C080C946C
:1011F000010929F416F00C94EB070C9435080C94B3
:10120000F1070E941B08A8F39638A0F707F80F9281
:10121000E8942BE33AEA48EB5FE70E9452080F920A
:101220000F920F924DB75EB70F920E94EC09E8E65D
:10123000F0E00E9433094F915F91EF91FF91E595A6
:10124000EE1FFF1F49F0FE57E0684427EE0F441FD2
:10125000FA95E1F74195550B0E9466090F9007FE3C
:101260000C945A090895DF93CF931F930F93FF9225
:10127000EF92DF927B018C01689406C0DA2EEF01B9
:101280000E944F08FE01E894A59125913591459162
:101290005591A6F3EF010E94380AFE019701A801BB
:1012A000DA9469F7DF90EF90FF900F911F91CF9143
:1012B000DF9108959B01AC0160E070E080E89FE35E
:1012C0000C9406070C94EB070C948D0A0E941B08E3
:1012D000D8F39923C9F3940F511DA3F391505040B3
:1012E00094F059F0882332F0660F771F881F9150D1
:1012F0005040C1F79E3F51052CF7880F911D9695E0
:10130000879597F908955F3FACF0983E9CF0BB2716
:10131000869577956795B79508F4B1609395C1F771
:10132000BB0F58F711F460FFE8CF6F5F7F4F8F4F0F
:101330009F4FE3CF0C94360816F00C948D0A0C9452
:10134000F10768940C94EB070E941B08A8F39923FB
:10135000C1F3AEF3DF93CF931F930F93FF92C92F87
:10136000DD2788232AF02197660F771F881FDAF779
:1013700020E030E040E85FEB9FE3883920F0803EDA
:1013800038F021968F770E94210AE0E9F0E004C04E
:101390000E94210AEDEBF0E00E9433098B01BE01AF
:1013A000EC01FB2E6F5771097595771F880B990B10
:1013B0000E94B00728E132E741E35FE30E944F0853
:1013C000AF2D9801AE01FF900F911F91CF91DF914A
:1013D0000E94380A0C940208FA01DC01AA0FBB1F14
:1013E0009B01AC01BF5728F42227332744275078AC
:1013F00020C0B75190F4AB2F002446953795279520
:10140000011CA395D2F3002071F0220F331F441F5B
:10141000B395DAF30ED00C94200A61307105A0E880
:101420008A07B94630F49B01AC01662777278827E5
:101430009078309621F0208331834283538308953E
:101440005058BB27AA270E94380A0C9402080E9411
:10145000F40738F00E94FB0720F039F49F3F19F49D
:1014600026F40C94F1070EF4E095E7FB0C94EB07DF
:10147000E92F0E94130858F3BA176207730784070D
:10148000950720F079F4A6F50C9435080EF4E09554
:101490000B2EBA2FA02D0B01B90190010C01CA012E
:1014A000A0011124FF27591B99F0593F50F4503ED9
:1014B00068F11A16F040A22F232F342F4427585FCB
:1014C000F3CF469537952795A795F0405395C9F7E3
:1014D0007EF41F16BA0B620B730B840BBAF091509B
:1014E000A1F0FF0FBB1F661F771F881FC2F70EC03A
:1014F000BA0F621F731F841F48F48795779567950D
:10150000B795F7959E3F08F0B0CF9395880F08F0F8
:101510009927EE0F9795879508959F3F31F0915049
:1015200020F4879577956795B795880F911D9695C7
:10153000879597F908950E94F706B7FF0895821BD3
:10154000930B0895EE0FFF1F0590F491E02D099481
:0E15500081E090E0F8940C94AD0AF894FFCF7F
:10155E0001000000005F01C800F700A60128010687
:10156E00011A010D0A00536567756520656D2066C9
:10157E0072656E7465004163686F752050617265A7
:10158E006465002053323A20002053333A20004144
:10159E0063686569206F20636172616C686F207487
:0415AE006F646F00F7
:00000001FF
