:100000000C945D000C947A000C947A000C947A00A5
:100010000C947A000C947A000C947A000C947A0078
:100020000C947A000C947A000C947A000C947A0068
:100030000C947A000C947A000C947A000C947A0058
:100040000C94AF010C947A000C947A000C947A0012
:100050000C947A000C947A000C947A000C947A0038
:100060000C947A000C947A00000000080002010051
:100070000003040700000000000000000000000072
:10008000250028002B0000000000240027002A0083
:10009000040404040404040402020202020203032E
:1000A0000303030301020408102040800102040836
:1000B0001020010204081020790211241FBECFEF86
:1000C000D8E0DEBFCDBF21E0A0E0B1E001C01D92CD
:1000D000AB31B207E1F710E0CDE5D0E004C02197E5
:1000E000FE010E94B702CC35D107C9F70E94F90181
:1000F0000C94BD020C94000090E0FC01EC55FF4F05
:100100002491FC01E057FF4F8491882399F090E0FF
:10011000880F991FFC01EA57FF4FA591B491FC018C
:10012000E458FF4F859194918FB7F894EC91E22BAE
:10013000EC938FBF089590E0FC01E859FF4F349194
:10014000FC01EC55FF4F2491FC01E057FF4FE49177
:10015000EE2309F43BC0332339F1333091F038F406
:100160003130A9F0323001F584B58F7D12C03730BF
:1001700091F03830A1F03430B9F4809180008F7D57
:1001800003C0809180008F77809380000DC084B57C
:100190008F7784BD09C08091B0008F7703C08091B4
:1001A000B0008F7D8093B000F0E0EE0FFF1FE458A9
:1001B000FF4FA591B4918FB7F894EC91611103C0F2
:1001C00020952E2301C02E2B2C938FBF08951F93B3
:1001D000CF93DF93182FEB010E947C00209711F43E
:1001E00060E004C0CF3FD10539F461E0812FDF9199
:1001F000CF911F910C949B00E12FF0E0E859FF4F45
:10020000E491E330F9F048F4E130B9F0E230A1F5DF
:1002100084B5806284BDC8BD34C0E730E9F0E83001
:1002200019F1E43049F5809180008062809380006C
:10023000D0938B00C0938A0024C084B5806884BDAD
:10024000C7BD1FC080918000806880938000D093DC
:100250008900C093880015C08091B00080688093A9
:10026000B000C093B3000DC08091B0008062809355
:10027000B000C093B40005C0C038D1050CF0B5CFB4
:10028000AFCFDF91CF911F9108953FB7F894809140
:100290000D0190910E01A0910F01B091100126B5B2
:1002A000A89B05C02F3F19F00196A11DB11D3FBFAE
:1002B000BA2FA92F982F8827820F911DA11DB11D3C
:1002C000BC01CD0142E0660F771F881F991F4A9538
:1002D000D1F708958F929F92AF92BF92CF92DF9203
:1002E000EF92FF920E9445014B015C0188EEC82EFF
:1002F00083E0D82EE12CF12C0E944501DC01CB01DA
:1003000088199909AA09BB09883E9340A105B1053E
:1003100058F021E0C21AD108E108F10888EE880EF1
:1003200083E0981EA11CB11CC114D104E104F104A6
:1003300019F7FF90EF90DF90CF90BF90AF909F9014
:100340008F900895CF93DF93EC0188810E94E7009E
:1003500060E070E08A81DF91CF910C94E7001F92FA
:100360000F920FB60F9211242F933F938F939F9369
:10037000AF93BF938091090190910A01A0910B0165
:10038000B0910C013091080123E0230F2D3720F4A8
:100390000196A11DB11D05C026E8230F0296A11DDF
:1003A000B11D209308018093090190930A01A09345
:1003B0000B01B0930C0180910D0190910E01A09161
:1003C0000F01B09110010196A11DB11D80930D0187
:1003D00090930E01A0930F01B0931001BF91AF91C4
:1003E0009F918F913F912F910F900FBE0F901F9073
:1003F0001895789484B5826084BD84B5816084BD8D
:1004000085B5826085BD85B5816085BD80916E00B2
:10041000816080936E0010928100809181008260E3
:100420008093810080918100816080938100809120
:1004300080008160809380008091B100846080930F
:10044000B1008091B00081608093B00080917A000B
:10045000846080937A0080917A00826080937A0031
:1004600080917A00816080937A0080917A00806820
:1004700080937A001092C100C0E0D0E06FEF70E08E
:1004800081E191E00E94A2016FEF70E085E191E0CF
:100490000E94A2010E946A0160E070E08091110157
:1004A0000E94E7006FEF70E0809113010E94E70067
:1004B00060E070E0809115010E94E7006FEF70E04E
:1004C000809117010E94E7000E946A0160EF70E0CE
:1004D00081E191E00E94A20168E770E085E191E08E
:1004E0000E94A2010E946A01209741F20E9400002E
:1004F000C5CF0F931F93CF93DF93C4E0D1E086E085
:1005000090E09983888389E090E09B838A8386E0EA
:100510000E947C008A810E947C0000E011E083E060
:1005200090E0F8019183808385E090E0938382835B
:1005300083E00E947C00F80182810E947C004A8155
:100540005B81F8012081318182819381E1E1F1E0D9
:1005500068817981718360835383428335832483E7
:1005600097838683DF91CF911F910F910895EE0FAE
:0E057000FF1F0590F491E02D0994F894FFCF41
:00000001FF
