:100000000C949E000C94C6000C94C6000C94C60080
:100010000C94C6000C94C6000C94C6000C94C60048
:100020000C94C6000C94C6000C94C6000C94A00559
:100030000C94C6000C94C6000C94C6000C94C60028
:100040000C9456050C94C6000C9424050C94FE04E4
:100050000C94C6000C94C6000C94C6000C94C60008
:100060000C94C6000C94C60007634236B79BD8A711
:100070001A39685618AEBAAB558C1D3CB7CC5763CD
:10008000BD6DEDFD753EF6177231BF000000803F7B
:1000900008000000BE922449123EABAAAA2ABECD97
:1000A000CCCC4C3E00000080BEABAAAAAA3E000009
:1000B0000000BF000000803F000000000008417801
:1000C000D3BB4387D1133D190E3CC3BD4282AD2B38
:1000D0003E68EC8276BED98FE1A93E4C80EFFFBE30
:1000E00001C4FF7F3F00000000000000000024006A
:1000F00027002A0000000000250028002B0004042F
:1001000004040404040402020202020203030303BF
:10011000030301020408102040800102040810209B
:100120000102040810200000000800020100000382
:1001300004070000000000000000610611241FBE3B
:10014000CFEFD8E0DEBFCDBF11E0A0E0B1E0E8E541
:10015000F9E102C005900D92AA33B107D9F722E068
:10016000AAE3B1E001C01D92A635B207E1F710E0A5
:10017000CEE9D0E004C02197FE010E949F0CCD394A
:10018000D107C9F70E94CF070C94AA0C0C94000069
:10019000CF92DF92EF92FF920F931F93CF93DF9353
:1001A0006C017A018B01C0E0D0E0CE15DF0589F04B
:1001B000D8016D918D01D601ED91FC910190F081F6
:1001C000E02DC6010995892B11F47E0102C021960C
:1001D000ECCFC701DF91CF911F910F91FF90EF906E
:1001E000DF90CF900895089580E090E00895FC019D
:1001F000538D448D252F30E0842F90E0821B930B8C
:10020000541710F0CF96089501970895FC01918D31
:10021000828D981761F0828DDF01A80FB11D5D9668
:100220008C91928D9F5F9F73928F90E008958FEFD6
:100230009FEF0895FC01918D828D981731F0828D8A
:10024000E80FF11D858D90E008958FEF9FEF0895E1
:10025000FC01918D228D892F90E0805C9F4F821B45
:1002600091098F739927089589E691E00E942801EA
:1002700021E0892B09F420E0822F0895FC01848D70
:10028000DF01A80FB11DA35ABF4F2C91848D90E0C0
:1002900001968F739927848FA689B7892C93A0899B
:1002A000B1898C9180648C93938D848D981306C052
:1002B0000288F389E02D80818F7D80830895EF92FD
:1002C000FF920F931F93CF93DF93EC0181E0888F10
:1002D0009B8D8C8D981305C0E889F989808185FDF7
:1002E00024C0F62E0B8D10E00F5F1F4F0F731127E8
:1002F000E02E8C8DE8120CC00FB607FCFACFE8890F
:10030000F989808185FFF5CFCE010E943E01F1CFB2
:100310008B8DFE01E80FF11DE35AFF4FF0820B8F2A
:10032000EA89FB898081806207C0EE89FF8960834A
:10033000E889F98980818064808381E090E0DF91A1
:10034000CF911F910F91FF90EF900895CF93DF937E
:10035000EC01888D8823C9F0EA89FB89808185FDBD
:1003600005C0A889B9898C9186FD0FC00FB607FC1E
:10037000F5CF808185FFF2CFA889B9898C9185FF5F
:10038000EDCFCE010E943E01E7CFDF91CF910895DE
:1003900080E090E0892B29F00E94340181110C94B7
:1003A0000000089590E0FC01EA5DFE4F3491FC01ED
:1003B000EE5EFE4F2491FC01E250FF4FE491EE23EC
:1003C00009F43BC0332339F1333091F038F4313044
:1003D000A9F0323001F584B58F7D12C0373091F02D
:1003E0003830A1F03430B9F4809180008F7D03C0A3
:1003F000809180008F77809380000DC084B58F77C7
:1004000084BD09C08091B0008F7703C08091B00097
:100410008F7D8093B000F0E0EE0FFF1FEC50FF4F98
:10042000A591B4918FB7F894EC91611103C0209518
:100430002E2301C02E2B2C938FBF0895CF93DF93D3
:1004400090E0FC01EE5EFE4F2491FC01E250FF4F74
:100450008491882361F190E0880F991FFC01E65197
:10046000FF4FC591D491FC01EC50FF4FA591B49181
:10047000611109C09FB7F8948881209582238883F1
:10048000EC912E230BC0623061F49FB7F894388151
:10049000822F809583238883EC912E2B2C939FBFF2
:1004A00006C08FB7F894E8812E2B28838FBFDF9189
:1004B000CF910895CF92DF92EF92FF92CF93DF9387
:1004C000EC01603282E078070CF03DC077FD06C099
:1004D000653B71052CF064EB70E002C060E070E0F9
:1004E000898128E830E06901C81AD10887FDD394D2
:1004F000CC0CDD1CCC0CDD1C0D2C000CEE08FF0818
:100500008A8128E532E0281B310987FD3395220FC7
:10051000331F220F331FC901330FAA0BBB0B9C01E2
:10052000AD012C193D094E095F09DB010E94BE088F
:1005300024EB30E040E050E00E949408C20ED31E4D
:10054000E41EF51EB60188818C3080F5998148E85B
:1005500050E0491B510997FD5395440F551F440F17
:10056000551F6417750784F09A8128E532E0291B2E
:10057000310997FD3395220F331F220F331FAB0133
:10058000261737070CF4A90142505109440F551F93
:100590002FB7F89490E0FC01EE0FFF1F8E0F9F1F06
:1005A000FC01E45CFE4F528341832FBFDF91CF916A
:1005B000FF90EF90DF90CF9008951F93CF93DF933C
:1005C000EC01162F88818C3008F04EC061E0812F3D
:1005D0000E941E028881E82FF0E09F01220F331F46
:1005E000E20FF31FE45CFE4F1F739081907C192B88
:1005F000108319821A826CE00E948C0C9CE0899F07
:10060000B001112440E050E09A01260F371FF90194
:10061000EE0FFF1F2E0F3F1FF901E45CFE4F90818C
:1006200096FD16C04F5F5F4F4C30510569F7811141
:100630000FC01092800082E08093810010928500AC
:1006400010928400B19A80916F00826080936F0055
:10065000E881F0E0CF01880F991FE80FF91FE45CF3
:10066000FE4F8081806480838881DF91CF911F91CC
:100670000895FC0190913B019C30A0F481E0890F2A
:1006800080933B019083892F90E0FC01EE0FFF1FC8
:100690008E0F9F1FFC01E45CFE4F88EB9BE0928372
:1006A000818308958FEF80830895CF93DF93EC01CA
:1006B000862F688379835B834A8361E00E941E02F0
:1006C00061E08A81DF91CF910C941E021F93CF933A
:1006D000DF93EC01188161E0812F0E941E0260E02F
:1006E000812F0E94D201CA8161E08C2F0E941E02DC
:1006F00060E08C2FDF91CF911F910C94D2013F923B
:100700004F925F926F927F928F929F92AF92BF9221
:10071000CF92DF92EF92FF920F931F93CF93DF93CD
:10072000CDB7DEB7CA55D1090FB6F894DEBF0FBEFC
:10073000CDBF182F60E00E941E0281E0809300016F
:1007400082EF810F1E3008F0182F1770312E8E01A6
:100750000D5C1F4F280128E2420E511C3801C12CAC
:10076000D12C760188248A9483E0982EA12CB12C78
:10077000FE0131968091000120E4829FC001112486
:10078000832980937C0080917A00806480937A0032
:1007900080917A0086FDFCCF8091780020917900CD
:1007A00090E0922B81939193E017F10719F788E17C
:1007B00090E0FE01319620E030E0A1E028173907F3
:1007C0008CF46191719140815181461757073CF437
:1007D000DF0112974D935C9371836083A0E02F5FDC
:1007E0003F4FECCFA11102C0019719F7A98DBA8D27
:1007F00028E833E10E94980CA50194010E94940816
:10080000CA01B9010E94A10920E030E04AE754E49E
:100810000E94F7082EE03DE24AE95FEB0E949A0A47
:1008200022EF32ED4DED51E40E942D0A0E9469093C
:10083000F301619371933F01CB01770FAA0BBB0BBF
:10084000C80ED91EEA1EFB1EE415F50509F090CF6F
:10085000C701B60124E130E040E050E00E94C60844
:1008600069017A01590160E070E0CB01F801219142
:1008700031918F01A9014A195B09449F9001459F5D
:10088000300D300D1124032E000C440B550B620F5C
:10089000731F841F951FE415F50541F724E130E02F
:1008A00040E050E00E94C6082432310534F4F1E5FE
:1008B000AF16B10414F4C60102C08FEF9FEFC65A01
:1008C000DF4F0FB6F894DEBF0FBECDBFDF91CF91E3
:1008D0001F910F91FF90EF90DF90CF90BF90AF905E
:1008E0009F908F907F906F905F904F903F90089572
:1008F000009769F0FC0101900020E9F73197AF0102
:10090000481B590BBC0189E691E00C94C80080E0BB
:1009100090E008958F929F92AF92BF920F931F9392
:10092000CF93DF93CDB7DEB7A1970FB6F894DEBFB4
:100930000FBECDBF19A2423008F44AE08E010F5D10
:100940001F4F842E912CA12CB12CA50194010E9443
:10095000C608E62FB901CA0101501109EA3014F4A2
:10096000E05D01C0E95CD801EC93232B242B252BFF
:1009700061F7C8010E947804A1960FB6F894DEBF13
:100980000FBECDBFDF91CF911F910F91BF90AF9060
:100990009F908F900895CF92DF92EF92FF92CF9326
:1009A000DF936B017C01E0916901F0916A01019094
:1009B000F081E02D6DE289E691E00995EC01662772
:1009C0007727CB016C197D098E099F094AE00E94A7
:1009D0008A048C0F9D1FDF91CF91FF90EF90DF90E5
:1009E000CF900895BC01990F880B990B97FD0C943B
:1009F000CB044AE00C948A040E94A50C1F920F922B
:100A00000FB60F9211242F933F934F935F936F93E1
:100A10007F938F939F93AF93BF93EF93FF9389E659
:100A200091E00E943E01FF91EF91BF91AF919F91A4
:100A30008F917F916F915F914F913F912F910F9087
:100A40000FBE0F901F9018951F920F920FB60F9226
:100A500011242F938F939F93EF93FF93E09179014C
:100A6000F0917A018081E0917F01F091800182FD17
:100A700012C09081809182018F5F8F7320918301DA
:100A8000821751F0E0918201F0E0E759FE4F958F17
:100A90008093820101C08081FF91EF919F918F919E
:100AA0002F910F900FBE0F901F9018951F920F92CD
:100AB0000FB60F9211242F933F938F939F93AF9371
:100AC000BF938091650190916601A0916701B091FB
:100AD00068013091640123E0230F2D3720F4019643
:100AE000A11DB11D05C026E8230F0296A11DB11D51
:100AF000209364018093650190936601A093670140
:100B0000B09368018091600190916101A0916201B0
:100B1000B09163010196A11DB11D80936001909376
:100B20006101A0936201B0936301BF91AF919F9166
:100B30008F913F912F910F900FBE0F901F9018959E
:100B40001F920F920FB60F9211242F933F934F9342
:100B50005F936F937F938F939F93AF93BF93EF9325
:100B6000FF9380913A0187FF05C010928500109293
:100B700084001BC020913A01022E000C330B80919F
:100B80003B0190E02817390784F480913A01082E40
:100B9000000C990BFC01EE0FFF1F8E0F9F1FFC0135
:100BA000E45CFE4F808186FD15C080913A018F5F25
:100BB00080933A0120913A01022E000C330B809170
:100BC0003B0190E028173907C4F480913A018C303A
:100BD00064F113C080913A01082E000C990BFC01BE
:100BE000EE0FFF1F8E0F9F1FFC01E45CFE4F808104
:100BF00060E08F730E94D201D8CF809184009091E1
:100C00008500049680349C4918F480E49CE905C072
:100C10008091840090918500049690938900809340
:100C200088008FEF80933A013BC02091840030917F
:100C3000850080913A01082E000C990BFC01EE0F03
:100C4000FF1F8E0F9F1FFC01E45CFE4F818192818C
:100C5000820F931F909389008093880080913A01BE
:100C6000082E000C990BFC01EE0FFF1F8E0F9F1F2B
:100C7000FC01E45CFE4F808186FF12C080913A0146
:100C8000082E000C990BFC01EE0FFF1F8E0F9F1F0B
:100C9000FC01E45CFE4F808161E08F730E94D20111
:100CA000FF91EF91BF91AF919F918F917F916F9144
:100CB0005F914F913F912F910F900FBE0F901F901A
:100CC00018952F923F924F925F926F927F928F92E0
:100CD0009F92AF92BF92CF92DF92EF92FF920F93CB
:100CE0001F93CF93DF93CDB7DEB76D970FB6F89410
:100CF000DEBF0FBECDBFE9E6F1E01382128288EEBF
:100D000093E0A0E0B0E084839583A683B78385E079
:100D100091E09183808385EC90E09587848784ECD3
:100D200090E09787868780EC90E0918B808B81ECB8
:100D300090E0938B828B82EC90E0958B848B86EC99
:100D400090E0978B868B118E128E138E148E4AE054
:100D500050E06BE070E082E592E00E94550349E0CC
:100D600050E068E070E08EE492E00E94550345E0B8
:100D700050E064E070E08AE492E00E945503EAE407
:100D8000F2E0A080B180C280D3808AE392E00E942A
:100D900039038DE392E00E9439030AE312E08DE00B
:100DA000E82EF12CF801F586E486F786E68663E006
:100DB00070E0C8010E94DD0262E070E08DE392E025
:100DC0000E94DD0288E090E0F8019783868389E045
:100DD00090E0938782878AE090E091878087B5864C
:100DE000A486D786C6864DE050E06CE070E086E3CE
:100DF00092E00E945503A6E3B2E012968D919C9179
:100E00001397E0E3F2E02D913C91318320839383AB
:100E1000828393E0692E712C75826482EEE4F2E0A5
:100E200080809180A280B380E2E5F2E0C080D18032
:100E30004280538080E1F801DE01119601900D920D
:100E40008A95E1F7F8012680378040855185228513
:100E5000338586E0E0E3F2E0DE01519601900D92E9
:100E60008A95E1F706E012E0F801F182E082F38270
:100E7000E282F582E482F782E6828AE192E02C8FB8
:100E80003D8F4A8F5B8F0E9439038DE192E00E9473
:100E90003903F801F1A2E0A2F3A2E2A2F5A2E4A2D2
:100EA000F7A2E6A281E090E091A780A791828082DC
:100EB000B382A282D582C48257824682C8010E9430
:100EC00066038AE092E00E946603F801338E228E68
:100ED0002C8D3D8D378F268F4A8D5B8D558F448F9E
:100EE0008D859E85AF85B88991A380A3B3A3A2A366
:100EF00084899589A6898F8B988FA98F63E070E08C
:100F0000CE0147960E94DD02F8018789908DA18D60
:100F10008F8B988FA98F62E070E0CE0147960E9478
:100F2000DD02F80184899589A6898F8B988FA98F16
:100F300060E070E0CE0147960E945A02F80187896E
:100F4000908DA18D8F8B988FA98F62E870E0CE0174
:100F500047960E945A0289899A89AB89BC89F8010F
:100F600095A384A3B7A3A6A371A660A66D960FB69A
:100F7000F894DEBF0FBECDBFDF91CF911F910F91CF
:100F8000FF90EF90DF90CF90BF90AF909F908F90A9
:100F90007F906F905F904F903F902F90089578943E
:100FA00084B5826084BD84B5816084BD85B582606E
:100FB00085BD85B5816085BD80916E00816080931F
:100FC0006E00109281008091810082608093810088
:100FD0008091810081608093810080918000816098
:100FE000809380008091B10084608093B1008091F3
:100FF000B00081608093B00080917A00846080931B
:101000007A0080917A00826080937A0080917A00E1
:10101000816080937A0080917A00806880937A0062
:101020001092C100E0917901F0917A0182E0808311
:10103000E0917501F09176011082E0917701F091D5
:1010400078018FEC808310928101E0917D01F09115
:101050007E0186E08083E0917B01F0917C018081BC
:1010600080618083E0917B01F0917C0180818860C8
:101070008083E0917B01F0917C0180818068808396
:10108000E0917B01F0917C0180818F7D808383E101
:1010900091E00E94780480E090E00E947F030E942B
:1010A000F20489E191E00E94780481E090E00E94DE
:1010B0007F030E94F2048FE191E00E94780482E0B5
:1010C00090E00E947F030E94F20485E291E00E947A
:1010D000780483E090E00E947F030E94F2048BE298
:1010E00091E00E94780485E090E00E947F030E94D6
:1010F000F20481E391E00E94780484E090E00E9491
:101100007F03BC01990F880B990B97FF03C00E94C6
:10111000CB0403C04AE00E948A0487E391E00E9466
:1011200078040E94C801B3CF052E97FB1EF40094EB
:101130000E94AB0857FD07D00E94C60807FC03D0E9
:101140004EF40C94AB0850954095309521953F4F47
:101150004F4F5F4F089590958095709561957F4FA3
:101160008F4F9F4F08950E94E808A59F900DB49F50
:10117000900DA49F800D911D11240895B7FF0C942C
:10118000B3080E94B308821B930B0895A1E21A2EA4
:10119000AA1BBB1BFD010DC0AA1FBB1FEE1FFF1F1B
:1011A000A217B307E407F50720F0A21BB30BE40B6B
:1011B000F50B661F771F881F991F1A9469F76095B2
:1011C0007095809590959B01AC01BD01CF0108956C
:1011D000A29FB001B39FC001A39F700D811D112478
:1011E000911DB29F700D811D1124911D08950E94C3
:1011F0000B090C94F3090E94EC0958F00E94E509D0
:1012000040F029F45F3F29F00C94DC0951110C9453
:10121000270A0C94E2090E94040A68F39923B1F3A7
:10122000552391F3951B550BBB27AA27621773070C
:10123000840738F09F5F5F4F220F331F441FAA1FA0
:10124000A9F335D00E2E3AF0E0E832D0915050405C
:10125000E695001CCAF72BD0FE2F29D0660F771F0A
:10126000881FBB1F261737074807AB07B0E809F0F0
:10127000BB0B802DBF01FF2793585F4F3AF09E3F75
:10128000510578F00C94DC090C94270A5F3FE4F3D5
:10129000983ED4F3869577956795B795F7959F5FB8
:1012A000C9F7880F911D9695879597F90895E1E004
:1012B000660F771F881FBB1F621773078407BA0763
:1012C00020F0621B730B840BBA0BEE1F88F7E095BE
:1012D00008950E9470096894B1110C94270A08952A
:1012E0000E940C0A88F09F5798F0B92F9927B751A0
:1012F000B0F0E1F0660F771F881F991F1AF0BA95BA
:10130000C9F714C0B13091F00E94260AB1E00895E7
:101310000C94260A672F782F8827B85F39F0B93FD9
:10132000CCF3869577956795B395D9F73EF490956C
:101330008095709561957F4F8F4F9F4F0895E894EA
:1013400009C097FB3EF490958095709561957F4F0D
:101350008F4F9F4F9923A9F0F92F96E9BB279395BB
:10136000F695879577956795B795F111F8CFFAF4CB
:10137000BB0F11F460FF1BC06F5F7F4F8F4F9F4FFC
:1013800016C0882311F096E911C0772321F09EE85A
:10139000872F762F05C0662371F096E8862F70E0C0
:1013A00060E02AF09A95660F771F881FDAF7880F9A
:1013B0009695879597F9089597F99F6780E870E06B
:1013C00060E008959FEF80EC089500240A941616BB
:1013D000170618060906089500240A941216130623
:1013E000140605060895092E0394000C11F48823B1
:1013F00052F0BB0F40F4BF2B11F460FF04C06F5FCD
:101400007F4F8F4F9F4F089557FD9058440F551FA2
:1014100059F05F3F71F04795880F97FB991F61F076
:101420009F3F79F087950895121613061406551FED
:10143000F2CF4695F1DF08C0161617061806991F59
:10144000F1CF86957105610508940895E894BB274E
:1014500066277727CB0197F908950E94400A0C94DC
:10146000F3090E94E50938F00E94EC0920F0952369
:1014700011F00C94DC090C94E20911240C94270A55
:101480000E94040A70F3959FC1F3950F50E0551F19
:10149000629FF001729FBB27F00DB11D639FAA27C9
:1014A000F00DB11DAA1F649F6627B00DA11D661F18
:1014B000829F2227B00DA11D621F739FB00DA11D39
:1014C000621F839FA00D611D221F749F3327A00DF3
:1014D000611D231F849F600D211D822F762F6A2F8F
:1014E00011249F5750409AF0F1F088234AF0EE0FF4
:1014F000FF1FBB1F661F771F881F91505040A9F721
:101500009E3F510580F00C94DC090C94270A5F3F44
:10151000E4F3983ED4F3869577956795B795F7955C
:10152000E7959F5FC1F7FE2B880F911D96958795D4
:1015300097F90895FA01EE0FFF1F30962105310546
:10154000A1F16115710561F48038BFE39B0749F192
:1015500068949038810561F08038BFEF9B0741F0B7
:1015600099234AF5FF3FE1053105210519F1E8947A
:101570000894E795D901AA2329F4AB2FBE2FF85F71
:10158000D0F310C0FF5F70F4A695E0F7F73950F084
:1015900019F0FF3A38F49F779F930DD00F9007FC16
:1015A0009058089546F00C94E20960E070E080E8FD
:1015B0009FE308954FE79F775F934F933F932F9358
:1015C0000E94950B2F913F914F915F910E942D0AA0
:1015D0000C94F20A29F416F00C94DC090C94260AF7
:1015E0000C94E2090E940C0AA8F39638A0F707F8B9
:1015F0000F92E8942BE33AEA48EB5FE70E94430A34
:101600000F920F920F924DB75EB70F920E94DD0BB3
:10161000E8E6F0E00E94240B4F915F91EF91FF917B
:10162000E595EE1FFF1F49F0FE57E0684427EE0FD7
:10163000441FFA95E1F74195550B0E94570B0F9007
:1016400007FE0C944B0B0895DF93CF931F930F93DA
:10165000FF92EF92DF927B018C01689406C0DA2E34
:10166000EF010E94400AFE01E894A5912591359171
:1016700045915591A6F3EF010E94290CFE019701B7
:10168000A801DA9469F7DF90EF90FF900F911F9116
:10169000CF91DF9108959B01AC0160E070E080E89C
:1016A0009FE30C94F7080C94DC090C947E0C0E94C8
:1016B0000C0AD8F39923C9F3940F511DA3F3915049
:1016C000504094F059F0882332F0660F771F881F3E
:1016D00091505040C1F79E3F51052CF7880F911D46
:1016E0009695879597F908955F3FACF0983E9CF0EA
:1016F000BB27869577956795B79508F4B160939564
:10170000C1F7BB0F58F711F460FFE8CF6F5F7F4F51
:101710008F4F9F4FE3CF0C94270A16F00C947E0C4A
:101720000C94E20968940C94DC090E940C0AA8F35A
:101730009923C1F3AEF3DF93CF931F930F93FF92DF
:10174000C92FDD2788232AF02197660F771F881F6E
:10175000DAF720E030E040E85FEB9FE3883920F0E3
:10176000803E38F021968F770E94120CE0E9F0E07D
:1017700004C00E94120CEDEBF0E00E94240B8B01E0
:10178000BE01EC01FB2E6F5771097595771F880B11
:10179000990B0E94A10928E132E741E35FE30E942F
:1017A000400AAF2D9801AE01FF900F911F91CF918C
:1017B000DF910E94290C0C94F309FA01DC01AA0FB5
:1017C000BB1F9B01AC01BF5728F4222733274427B6
:1017D000507820C0B75190F4AB2F00244695379530
:1017E0002795011CA395D2F3002071F0220F331F1F
:1017F000441FB395DAF30ED00C94110C61307105CF
:10180000A0E88A07B94630F49B01AC016627772728
:1018100088279078309621F0208331834283538348
:1018200008955058BB27AA270E94290C0C94F3094D
:101830000E94E50938F00E94EC0920F039F49F3F3E
:1018400019F426F40C94E2090EF4E095E7FB0C94ED
:10185000DC09E92F0E94040A58F3BA1762077307DC
:101860008407950720F079F4A6F50C94260A0EF467
:10187000E0950B2EBA2FA02D0B01B90190010C01A0
:10188000CA01A0011124FF27591B99F0593F50F4B8
:10189000503E68F11A16F040A22F232F342F442710
:1018A000585FF3CF469537952795A795F040539508
:1018B000C9F77EF41F16BA0B620B730B840BBAF0D8
:1018C0009150A1F0FF0FBB1F661F771F881FC2F743
:1018D0000EC0BA0F621F731F841F48F48795779557
:1018E0006795B795F7959E3F08F0B0CF9395880F11
:1018F00008F09927EE0F9795879508959F3F31F04F
:10190000915020F4879577956795B795880F911D2D
:101910009695879597F90895991B79E004C0991FCA
:10192000961708F0961B881F7A95C9F78095089539
:101930000E94E808B7FF0895821B930B0895EE0FED
:10194000FF1F0590F491E02D099481E090E0F89458
:081950000C94AA0CF894FFCFDF
:1019580001000000005F01C800F700A60128010689
:10196800011A012053303A20002053313A20002038
:1019780053323A20002053333A20002053343A207F
:0A198800002053353A20000D0A003C
:00000001FF
