:100000000C949E000C94C6000C94C6000C94C60080
:100010000C94C6000C94C6000C94C6000C94C60048
:100020000C94C6000C94C6000C94C6000C94930467
:100030000C94C6000C94C6000C94C6000C94C60028
:100040000C94A7030C94C6000C9478020C945202F2
:100050000C94C6000C94C6000C94C6000C94C60008
:100060000C94C6000C94C60007634236B79BD8A711
:100070001A39685618AEBAAB558C1D3CB7CC5763CD
:10008000BD6DEDFD753EF6177231BF000000803F7B
:1000900008000000BE922449123EABAAAA2ABECD97
:1000A000CCCC4C3E00000080BEABAAAAAA3E000009
:1000B0000000BF000000803F000000000008417801
:1000C000D3BB4387D1133D190E3CC3BD4282AD2B38
:1000D0003E68EC8276BED98FE1A93E4C80EFFFBE30
:1000E00001C4FF7F3F00000000000000000024006A
:1000F00027002A0000000000250028002B0004042F
:1001000004040404040402020202020203030303BF
:10011000030301020408102040800102040810209B
:100120000102040810200000000800020100000382
:1001300004070000000000000000BF0C11241FBED7
:10014000CFEFD8E0DEBFCDBF11E0A0E0B1E0ECE63C
:10015000F6E202C005900D92AE35B107D9F722E064
:10016000AEE5B1E001C01D92A839B207E1F710E099
:10017000CEE9D0E004C02197FE010E942913CD39B9
:10018000D107C9F70E94CF060C9434130C940000D9
:10019000CF92DF92EF92FF920F931F93CF93DF9353
:1001A0006C017A018B01C0E0D0E0CE15DF0589F04B
:1001B000D8016D918D01D601ED91FC910190F081F6
:1001C000E02DC6010995892B11F47E0102C021960C
:1001D000ECCFC701DF91CF911F910F91FF90EF906E
:1001E000DF90CF900895FC01538D448D252F30E092
:1001F000842F90E0821B930B541710F0CF96089534
:1002000001970895FC01918D828D981761F0828D80
:10021000DF01A80FB11D5D968C91928D9F5F9F733A
:10022000928F90E008958FEF9FEF0895FC01918DDC
:10023000828D981731F0828DE80FF11D858D90E049
:1002400008958FEF9FEF0895FC01918D228D892FE6
:1002500090E0805C9F4F821B91098F7399270895CE
:100260008DE891E00E94240121E0892B09F420E02F
:10027000822F0895FC01848DDF01A80FB11DA35AC0
:10028000BF4F2C91848D90E001968F739927848FB6
:10029000A689B7892C93A089B1898C9180648C93AD
:1002A000938D848D981306C00288F389E02D808198
:1002B0008F7D80830895EF92FF920F931F93CF93CA
:1002C000DF93EC0181E0888F9B8D8C8D981305C0A6
:1002D000E889F989808185FD24C0F62E0B8D10E018
:1002E0000F5F1F4F0F731127E02E8C8DE8120CC08B
:1002F0000FB607FCFACFE889F989808185FFF5CF31
:10030000CE010E943A01F1CF8B8DFE01E80FF11D65
:10031000E35AFF4FF0820B8FEA89FB89808180626C
:1003200007C0EE89FF896083E889F989808180644C
:10033000808381E090E0DF91CF911F910F91FF903A
:10034000EF900895CF93DF93EC01888D8823C9F057
:10035000EA89FB89808185FD05C0A889B9898C91CE
:1003600086FD0FC00FB607FCF5CF808185FFF2CF69
:10037000A889B9898C9185FFEDCFCE010E943A0101
:10038000E7CFDF91CF91089580E090E0892B29F0AD
:100390000E94300181110C94000008953FB7F89439
:1003A0008091890190918A01A0918B01B0918C017B
:1003B00026B5A89B05C02F3F19F00196A11DB11DC0
:1003C0003FBFBA2FA92F982F8827820F911DA11DFB
:1003D000B11DBC01CD0142E0660F771F881F991F38
:1003E0004A95D1F708952FB7F894609185017091DF
:1003F000860180918701909188012FBF089508950B
:1004000080E090E00895CF93DF9381E090E00E9438
:10041000D805CAE2D2E09987888782E090E00E94FE
:10042000D8059B878A8783E090E00E94D8059D8746
:100430008C8784E090E00E94D8059F878E8785E0B6
:1004400090E00E94D805998B888B86E090E00E940E
:10045000D8059B8B8A8BDF91CF910895CF93DF9343
:10046000009779F0FC0101900020E9F73197AF0186
:10047000481B590BBC018DE891E00E94C800EC01BB
:1004800002C0C0E0D0E042E050E06FE171E08DE8F2
:1004900091E00E94C8008C0F9D1FDF91CF910895BD
:1004A0000E942F131F920F920FB60F9211242F93B9
:1004B0003F934F935F936F937F938F939F93AF93EC
:1004C000BF93EF93FF938DE891E00E943A01FF9173
:1004D000EF91BF91AF919F918F917F916F915F91BC
:1004E0004F913F912F910F900FBE0F901F90189535
:1004F0001F920F920FB60F9211242F938F939F93F9
:10050000EF93FF93E0919D01F0919E018081E09136
:10051000A301F091A40182FD12C090818091A601F7
:100520008F5F8F732091A701821751F0E091A60190
:10053000F0E0E357FE4F958F8093A60101C08081C4
:10054000FF91EF919F918F912F910F900FBE0F9080
:100550001F90189590E0FC01EA5DFE4F3491FC017C
:10056000EE5EFE4F2491FC01E250FF4FE491EE233A
:1005700009F43BC0332339F1333091F038F4313092
:10058000A9F0323001F584B58F7D12C0373091F07B
:100590003830A1F03430B9F4809180008F7D03C0F1
:1005A000809180008F77809380000DC084B58F7715
:1005B00084BD09C08091B0008F7703C08091B000E6
:1005C0008F7D8093B000F0E0EE0FFF1FEC50FF4FE7
:1005D000A591B4918FB7F894EC91611103C0209567
:1005E0002E2301C02E2B2C938FBF0895CF93DF9322
:1005F000EC0160E08E810E94AA0261E08E810E947F
:10060000AA0260E08E810E94AA028BE891E0019725
:10061000F1F7DF91CF910895CF93DF9390E0FC0144
:10062000EE5EFE4F2491FC01E250FF4F849188233F
:1006300061F190E0880F991FFC01E651FF4FC591D1
:10064000D491FC01EC50FF4FA591B491611109C008
:100650009FB7F8948881209582238883EC912E237C
:100660000BC0623061F49FB7F8943881822F809577
:1006700083238883EC912E2B2C939FBF06C08FB7CA
:10068000F894E8812E2B28838FBFDF91CF910895B6
:100690001F93CF93DF93182FEB0161E00E940C03AF
:1006A000209711F460E004C0CF3FD10539F461E038
:1006B000812FDF91CF911F910C94AA02E12FF0E0DE
:1006C000EA5DFE4FE491E330F9F048F4E130B9F02F
:1006D000E230A1F584B5806284BDC8BD34C0E73086
:1006E000E9F0E83019F1E43049F58091800080624A
:1006F00080938000D0938B00C0938A0024C084B57F
:10070000806884BDC7BD1FC08091800080688093D1
:100710008000D0938900C093880015C08091B000FC
:1007200080688093B000C093B3000DC08091B0008A
:1007300080628093B000C093B40005C0C038D1057A
:100740000CF0B5CFAFCFDF91CF911F9108951F92DD
:100750000F920FB60F9211242F933F938F939F9375
:10076000AF93BF938091850190918601A0918701FD
:10077000B09188013091840123E0230F2D3720F4BC
:100780000196A11DB11D05C026E8230F0296A11DEB
:10079000B11D209384018093850190938601A093DD
:1007A0008701B09388018091890190918A01A0917D
:1007B0008B01B0918C010196A11DB11D809389011F
:1007C00090938A01A0938B01B0938C01BF91AF915C
:1007D0009F918F913F912F910F900FBE0F901F907F
:1007E0001895CF92DF92EF92FF920F931F93CF93C2
:1007F000DF937C016C0187E0C80ED11CC0E0D0E023
:10080000062F10E0B8010C2E02C0759567950A946A
:10081000E2F76170F60181916F010E94AA022196B0
:10082000C430D10579F7C701DF91CF911F910F91A6
:10083000FF90EF90DF90CF900C94F602CF92DF9272
:10084000EF92FF920F931F93CF93DF93EC01F62E5D
:10085000642F8C810E94AA028D818F3F19F060E085
:100860000E94AA028F850F2D10E084FF25C06E0123
:1008700087E0C80ED11CE12CF12CB8010E2C02C06F
:10088000759567950A94E2F76170F60181916F01A1
:100890000E94AA02FFEFEF1AFF0A88E0E816F104AF
:1008A00061F7CE01DF91CF911F910F91FF90EF90F3
:1008B000DF90CF900C94F602B80184E075956795AF
:1008C0008A95E1F7CE010E94F1036F2DCE01DF91F1
:1008D000CF911F910F91FF90EF90DF90CF900C94EC
:1008E000F10341E00E941E0481E090E00895FC01C4
:1008F000909183019C30A0F481E0890F8093830163
:100900009083892F90E0FC01EE0FFF1F8E0F9F1F39
:10091000FC01E15AFE4F88EB9BE0928381830895AE
:100920008FEF808308951F920F920FB60F921124BC
:100930002F933F934F935F936F937F938F939F93E7
:10094000AF93BF93EF93FF9380915E0187FF05C044
:1009500010928500109284001BC020915E01022E2F
:10096000000C330B8091830190E02817390784F441
:1009700080915E01082E000C990BFC01EE0FFF1F09
:100980008E0F9F1FFC01E15AFE4F808186FD15C02E
:1009900080915E018F5F80935E0120915E01022E47
:1009A000000C330B8091830190E028173907C4F4C1
:1009B00080915E018C3064F113C080915E01082E3D
:1009C000000C990BFC01EE0FFF1F8E0F9F1FFC0107
:1009D000E15AFE4F808160E08F730E94AA02D8CF57
:1009E0008091840090918500049680349C4918F48D
:1009F00080E49CE905C08091840090918500049674
:100A000090938900809388008FEF80935E013BC0B4
:100A1000209184003091850080915E01082E000CA9
:100A2000990BFC01EE0FFF1F8E0F9F1FFC01E15A77
:100A3000FE4F81819281820F931F90938900809352
:100A4000880080915E01082E000C990BFC01EE0FCE
:100A5000FF1F8E0F9F1FFC01E15AFE4F808186FF12
:100A600012C080915E01082E000C990BFC01EE0F64
:100A7000FF1F8E0F9F1FFC01E15AFE4F808161E036
:100A80008F730E94AA02FF91EF91BF91AF919F9146
:100A90008F917F916F915F914F913F912F910F9027
:100AA0000FBE0F901F901895CF93DF93EC018881B4
:100AB0000E94480360E070E08A81DF91CF910C943E
:100AC0004803CF93DF93EC01862F688379835B83A0
:100AD0004A8361E00E940C0361E08A81DF91CF913B
:100AE0000C940C030F931F93CF93DF938C01EB01B6
:100AF00097FF0FC060E070E080912E020E944803D3
:100B000066277727601B710B809130020E94480393
:100B100005C0BC018EE292E00E945405D7FF12C0CE
:100B200060E070E080912A020E94480366277727E0
:100B30006C1B7D0B80912C02DF91CF911F910F9147
:100B40000C944803BE018AE292E0DF91CF911F919D
:100B50000F910C945405CF93DF93EC01BC018AE212
:100B600092E00E945405BE018EE292E0DF91CF91A7
:100B70000C94540580E090E00C94AB05CF93DF9388
:100B8000CAE2D2E060E070E088810E94480368EC2D
:100B900070E08A810E94480360E070E08C810E94CE
:100BA000480368EC70E08E81DF91CF910C9448038C
:100BB0003F924F925F926F927F928F929F92AF92ED
:100BC000BF92CF92DF92EF92FF920F931F93CF933A
:100BD000DF93CDB7DEB7CA55D1090FB6F894DEBFA3
:100BE0000FBECDBF182F60E00E940C0381E0809300
:100BF000000182EF810F1E3008F0182F1770312E80
:100C00008E010D5C1F4F280128E2420E511C380155
:100C1000C12CD12C760188248A9483E0982EA12CB3
:100C2000B12CFE0131968091000120E4829FC00129
:100C30001124832980937C0080917A0080648093C2
:100C40007A0080917A0086FDFCCF80917800209117
:100C5000790090E0922B81939193E017F10719F7B7
:100C600088E190E0FE01319620E030E0A1E0281715
:100C700039078CF461917191408151814617570772
:100C80003CF4DF0112974D935C9371836083A0E085
:100C90002F5F3F4FECCFA11102C0019719F7A98D2B
:100CA000BA8D28E833E10E942213A50194010E9425
:100CB000290FCA01B9010E94231020E030E04AE761
:100CC00054E40E94790F2EE03DE24AE95FEB0E9476
:100CD0001C1122EF32ED4DED51E40E94AF100E9445
:100CE000EB0FF301619371933F01CB01770FAA0BD7
:100CF000BB0BC80ED91EEA1EFB1EE415F50509F054
:100D000090CFC701B60124E130E040E050E00E94FE
:100D1000480F69017A01A90160E070E0CB01F80198
:100D2000219131918F01F901E41BF50BEE9F9001A8
:100D3000EF9F300D300D11244901330FAA08BB0875
:100D4000680D791D8A1D9B1D0415150541F724E1C9
:100D500030E040E050E00E94480F2432310524F496
:100D6000C6018432910514F083E290E0C65ADF4F49
:100D70000FB6F894DEBF0FBECDBFDF91CF911F91AC
:100D80000F91FF90EF90DF90CF90BF90AF909F902A
:100D90008F907F906F905F904F903F9008957894E0
:100DA00084B5826084BD84B5816084BD85B5826070
:100DB00085BD85B5816085BD80916E008160809321
:100DC0006E0010928100809181008260809381008A
:100DD000809181008160809381008091800081609A
:100DE000809380008091B10084608093B1008091F5
:100DF000B00081608093B00080917A00846080931D
:100E00007A0080917A00826080937A0080917A00E3
:100E1000816080937A0080917A00806880937A0064
:100E20001092C100E0919D01F0919E0182E08083CB
:100E3000E0919901F0919A011082E0919B01F0916B
:100E40009C018FEC80831092A501E091A101F091AB
:100E5000A20186E08083E0919F01F091A001808152
:100E600080618083E0919F01F091A0018081886082
:100E70008083E0919F01F091A00180818068808350
:100E8000E0919F01F091A00180818F7D8083C0E07F
:100E9000D0E0E12CD12CF12C03E010E082E291E0D3
:100EA0000E942E02CE01B8010E940E13009789F411
:100EB00082E090E00E94D805909333028093320242
:100EC00081E090E00E94D80590933502809334022F
:100ED00023C0019789F483E090E00E94D8059093A5
:100EE00037028093360284E090E00E94D805909308
:100EF00039028093380210C085E090E00E94D80546
:100F000090933B0280933A0286E090E00E94D805DD
:100F100090933D0280933C02CE010196B8010E945D
:100F20000E13EC0188EC90E00E94AB058091380232
:100F30009091390220913602309137028332910527
:100F400019F42F3031054CF02332310551F48F3034
:100F500091053CF4EE24E39402C0DD24D394FF24F5
:100F6000F3942332310521F48332910559F496CF5D
:100F7000203131053CF40E94BA050E94030203E0CF
:100F800010E03AC040970CF089CFF5CF019709F0F7
:100F90004FC083E090E00E94D80590933702809381
:100FA000360284E090E00E94D80590933902809345
:100FB0003802CE010196B8010E940E13EC0168E7D9
:100FC00070E088E89FEF0E94720580913202909154
:100FD000330283329105E9F12091340230913502D8
:100FE00023323105B1F1821B930B97FF03C091951A
:100FF0008195910903976CF18FE291E00E942E0296
:10100000CE01B8010E940E13009709F0BFCF82E015
:1010100090E00E94D805909333028093320281E0E1
:1010200090E00E94D8059093350280933402C1CF9E
:1010300085E090E00E94D80590933B0280933A02AD
:1010400086E090E00E94D80590933D0280933C0298
:10105000B0CF0E94030203E010E02BC0019709F01B
:1010600043C083E090E00E94D805909337028093BC
:10107000360284E090E00E94D80590933902809374
:101080003802CE010196B8010E940E13EC0188ECE3
:1010900090E00E94AB05809136029091370280313A
:1010A00091059CF5209132023091330223323105B3
:1010B000A1F587E391E00E942E02CE01B8010E94C3
:1010C0000E13009759F682E090E00E94D8059093A5
:1010D00033028093320281E090E00E94D805909321
:1010E000350280933402CDCF85E090E00E94D80590
:1010F00090933B0280933A0286E090E00E94D805EC
:1011000090933D0280933C02BCCF209138023091F5
:1011100039022031310534F213C02091340230916C
:1011200035022332310529F2839719F28091380272
:1011300090913902839709F4BCCF10E001E002C01E
:1011400011E000E00E94BA050E940302112309F495
:10115000D1C082E491E00E942E0203E010E0CE01B3
:10116000B8010E940E13009789F482E090E00E947B
:10117000D805909333028093320281E090E00E9480
:10118000D805909335028093340223C0019789F4E7
:1011900083E090E00E94D805909337028093360256
:1011A00084E090E00E94D805909339028093380241
:1011B00010C085E090E00E94D80590933B02809398
:1011C0003A0286E090E00E94D80590933D02809319
:1011D0003C02CE010196B8010E940E13EC0168E8B2
:1011E0007FEF88E790E00E94720580913A0290912B
:1011F0003B028332910539F40E94BA050E94030232
:1012000003E010E04FC020913C0230913D022332B8
:10121000310591F340913802509139024332510522
:1012200059F340913602509137024332510521F370
:10123000821B930B97FF03C09195819591090397AA
:101240000CF08DCFD9CF019709F043C083E090E037
:101250000E94D805909337028093360284E090E094
:101260000E94D8059093390280933802CE010196EE
:10127000B8010E940E13EC0188EC90E00E94AB05CF
:1012800080913A0290913B028397B1F180913602AE
:1012900090913702839781F58091380290913902BD
:1012A000839751F5CE01B8010E940E13009759F6AD
:1012B00082E090E00E94D80590933302809332023E
:1012C00081E090E00E94D80590933502809334022B
:1012D000CDCF85E090E00E94D80590933B028093AB
:1012E0003A0286E090E00E94D80590933D028093F8
:1012F0003C02BCCF10E002C011E001E00E94BA0540
:101300000E940302FF2009F4C3C08EE491E00E9412
:101310002E02DD2009F458C063E0E62EF12CCE0148
:10132000B7010E940E13009789F482E090E00E94BA
:10133000D805909333028093320281E090E00E94BE
:10134000D805909335028093340223C0019789F425
:1013500083E090E00E94D805909337028093360294
:1013600084E090E00E94D80590933902809338027F
:1013700010C085E090E00E94D80590933B028093D6
:101380003A0286E090E00E94D80590933D02809357
:101390003C02CE010196B7010E940E13EC0168E7F2
:1013A00070E088E89FEF0E94720580913202909170
:1013B0003302839709F06CC080913402909135021A
:1013C000839709F065C0ABCFEE2009F461C053E00C
:1013D000E52EF12CCE01B7010E940E13009789F47F
:1013E00082E090E00E94D80590933302809332020D
:1013F00081E090E00E94D8059093350280933402FA
:1014000023C0019789F483E090E00E94D80590936F
:1014100037028093360284E090E00E94D8059093D2
:1014200039028093380210C085E090E00E94D80510
:1014300090933B0280933A0286E090E00E94D805A8
:1014400090933D0280933C02CE010196B7010E9429
:101450000E13EC0168E87FEF88E790E00E947205C8
:1014600080913202909133028332910589F020916C
:101470003402309135022332310551F0821B930B37
:1014800097FF03C091958195910903970CF0A2CF26
:10149000002309F471C20E94F3012B013C0143E0D7
:1014A000E42EF12C112309F4E0C0CE01B7010E9413
:1014B0000E13009789F482E090E00E94D805909383
:1014C00033028093320281E090E00E94D80590932D
:1014D00035028093340223C0019789F483E090E0C1
:1014E0000E94D805909337028093360284E090E002
:1014F0000E94D805909339028093380210C085E08D
:1015000090E00E94D80590933B0280933A0286E0D7
:1015100090E00E94D80590933D0280933C02CE015A
:101520000196B7010E940E13EC0188EC90E00E9436
:10153000AB0580913A0290913B02839709F4B5CFB5
:101540000E94F3016B01C418D508D7FE03C02FEF2A
:10155000C21AD20AD594C7940E94F3012B010E94AB
:10156000BA0533E0A32EB12C052C000C66087708D1
:101570000D2C000CEE08FF08CE01B5010E940E13E1
:10158000009789F482E090E00E94D805909333029E
:101590008093320281E090E00E94D805909335025A
:1015A0008093340223C0019789F483E090E00E9485
:1015B000D805909337028093360284E090E00E9431
:1015C000D805909339028093380210C085E090E0EE
:1015D0000E94D80590933B0280933A0286E090E007
:1015E0000E94D80590933D0280933C02CE01019663
:1015F000B5010E940E13EC010E94BE050E94F3018A
:10160000DC01CB0184199509A609B7098C159D0544
:10161000AE05BF0509F4B0CFB5C00197E9F583E089
:1016200090E00E94D805909337028093360284E0C0
:1016300090E00E94D8059093390280933802CE0141
:101640000196B7010E940E13EC0188EC90E00E9415
:10165000AB058091340290913502839771F18091AE
:10166000320290913302839741F5CE01B7010E9477
:101670000E13009791F682E090E00E94D8059093B7
:1016800033028093320281E090E00E94D80590936B
:10169000350280933402D3CF85E090E00E94D805D4
:1016A00090933B0280933A0286E090E00E94D80536
:1016B00090933D0280933C02C2CF0E94F3016B01E4
:1016C000C418D5080E94F3012B010E94BA0593E0CB
:1016D000A92EB12C052C000C660877080D2C000CE7
:1016E000EE08FF0827C00197E1F583E090E00E9433
:1016F000D805909337028093360284E090E00E94F0
:10170000D8059093390280933802CE010196B50135
:101710000E940E13EC010E94BE050E94F301DC0141
:10172000CB0184199509A609B7098C159D05AE054D
:10173000BF0541F5CE01B5010E940E13009799F641
:1017400082E090E00E94D8059093330280933202A9
:1017500081E090E00E94D805909335028093340296
:10176000D4CF85E090E00E94D80590933B0280930F
:101770003A0286E090E00E94D80590933D02809363
:101780003C02C3CF0E94BA05112309F471C003E0E3
:1017900010E0CE01B8010E940E13009789F482E098
:1017A00090E00E94D805909333028093320281E04A
:1017B00090E00E94D805909335028093340223C0B4
:1017C000019789F483E090E00E94D8059093370256
:1017D0008093360284E090E00E94D805909339020D
:1017E0008093380210C085E090E00E94D805909365
:1017F0003B0280933A0286E090E00E94D8059093E5
:101800003D0280933C02CE010196B8010E940E1366
:10181000EC0168E770E088E89FEF0E947205809114
:101820003A0290913B02839779F488EC90E00E9411
:10183000AB050E94CE012B013C0188EEC82E83E04F
:10184000D82EE12CF12C79C080913C0290913D0280
:10185000839759F38091360290913702839729F349
:101860008091380290913902839709F092CFDDCFB1
:1018700003E010E0CE01B8010E940E13009789F436
:1018800082E090E00E94D805909333028093320268
:1018900081E090E00E94D805909335028093340255
:1018A00023C0019789F483E090E00E94D8059093CB
:1018B00037028093360284E090E00E94D80590932E
:1018C00039028093380210C085E090E00E94D8056C
:1018D00090933B0280933A0286E090E00E94D80504
:1018E00090933D0280933C02CE010196B8010E9484
:1018F0000E13EC0168E87FEF88E790E00E94720524
:101900008091320290913302839709F48ECF8091B7
:10191000340290913502839709F487CF8091360283
:1019200090913702839709F480CF8091380290918B
:101930003902839709F09ECF78CF0E94CE01DC0157
:10194000CB0184199509A609B709883E9340A105E2
:10195000B10558F081E0C81AD108E108F10828EE75
:10196000420E23E0521E611C711CC114D104E1041B
:10197000F10419F70E94BA050E94C401FDCF2F920D
:101980003F924F925F926F927F928F929F92AF920F
:10199000BF92CF92DF92EF92FF920F931F93CF935C
:1019A000DF93CDB7DEB768970FB6F894DEBF0FBEF2
:1019B000CDBF1092900110928F0188EE93E0A0E0CD
:1019C000B0E08093910190939201A0939301B09322
:1019D000940185E091E090938E0180938D0185ECD8
:1019E00090E090939A018093990184EC90E0909319
:1019F0009C0180939B0180EC90E090939E018093EA
:101A00009D0181EC90E09093A00180939F0182EC76
:101A100090E09093A2018093A10186EC90E09093D6
:101A2000A4018093A3011092A6011092A701109225
:101A3000A8011092A9014AE050E069E070E084E951
:101A400092E00E94610547E050E068E070E080E9C4
:101A500092E00E94610543E050E062E070E08CE8B3
:101A600092E00E946105E0908C02F0908D0200915E
:101A70008E0210918F028CE792E00E9477048FE72C
:101A800092E00E9477048BE090E090938302809331
:101A9000820289E090E090938702809386028AE038
:101AA00090E09093850280938402F0928902E09204
:101AB000880210938B0200938A0262E086E10E9402
:101AC0000C0362E088E10E940C034CE050E06BE004
:101AD00070E088E792E00E94610580917A0290911F
:101AE0007B02209178023091790230937302209327
:101AF0007202909375028093740283E0482E512CF9
:101B0000509277024092760260909002709091021B
:101B10008090920290909302A0909402B0909502CF
:101B2000C0909602D090970280E1ECE7F2E0DE01EF
:101B3000119601900D928A95E1F7E0908202F09063
:101B40008302209184023091850220908602309099
:101B5000870286E0E2E7F2E0DE01519601900D9205
:101B60008A95E1F70DE010E010932B0200932A0212
:101B700010932D0200932C0210932F0200932E023B
:101B800010933102009330028EE392E02F8B388F56
:101B90000E94770481E492E00E94770410934B0244
:101BA00000934A0210934D0200934C0262E086E1DA
:101BB0000E940C0362E088E10E940C0310934F0224
:101BC00000934E02109351020093500281E090E086
:101BD000909353028093520284E592E00E9477042E
:101BE00070922B0260922A0290922D0280922C0217
:101BF000B0922F02A0922E02D0923102C0923002F7
:101C0000F0924502E092440230924902209248024A
:101C10002F89388D30934702209346028D859E850B
:101C2000AF85B88990934B0280934A02B0934D02DE
:101C3000A0934C0289899A89AB89BC8990934F0201
:101C400080934E02B0935102A093500250925302DF
:101C50004092520262E086E10E940C0362E088E159
:101C60000E940C038FE692E00E94770410925A02C1
:101C70001092590287E191E09093580280935702A5
:101C80008CE180935B028FEF80935C028EE1809306
:101C90005D0280E280935E0282E280935F0284E2D2
:101CA0008093600286E28093610210926202109239
:101CB000630210926402109265021092660281E043
:101CC00080936A0210926B0280E480936C0280E140
:101CD00080936D0280E580936E0261E08CE10E944A
:101CE0000C0380915C028F3F19F061E00E940C03AD
:101CF00061E080915D020E940C0300E010E08091A1
:101D0000660284FD03C084E090E002C088E090E0B9
:101D10000817190754F4F801E95AFD4F61E087816B
:101D20000E940C030F5F1F4FEACF8BE39DE00197EA
:101D3000F1F760E080915B020E94AA0260E080916E
:101D40005D020E94AA0280915C028F3F19F060E060
:101D50000E94AA026091660264FD21C063E087E5EB
:101D600092E00E94F1030BE416E4C8010197F1F739
:101D700063E087E592E00E94F103C8010197F1F763
:101D800063E087E592E00E94F10383E592E001972A
:101D9000F1F762E087E592E00E94F1031EC0606205
:101DA00040E087E592E00E941E048BE496E40197F0
:101DB000F1F760916602606240E087E592E00E9480
:101DC0001E0483E592E00197F1F76091660260627C
:101DD00040E087E592E00E941E0460916602606226
:101DE00040E087E592E00E941E0484E08093670251
:101DF00040E06CE087E592E00E941E0440E061E074
:101E000087E592E00E941E048BE39FE10197F1F7C2
:101E100082E08093680240E066E087E592E06896A1
:101E20000FB6F894DEBF0FBECDBFDF91CF911F91EB
:101E30000F91FF90EF90DF90CF90BF90AF909F9069
:101E40008F907F906F905F904F903F902F900C9469
:101E50001E04052E97FB1EF400940E94400F57FDB0
:101E600007D00E94480F07FC03D04EF40C94400F9B
:101E700050954095309521953F4F4F4F5F4F0895B6
:101E800090958095709561957F4F8F4F9F4F0895E6
:101E9000A1E21A2EAA1BBB1BFD010DC0AA1FBB1F6E
:101EA000EE1FFF1FA217B307E407F50720F0A21BE0
:101EB000B30BE40BF50B661F771F881F991F1A944D
:101EC00069F760957095809590959B01AC01BD0177
:101ED000CF010895A29FB001B39FC001A39F700DD1
:101EE000811D1124911DB29F700D811D1124911D22
:101EF00008950E948D0F0C9475100E946E1058F07A
:101F00000E94671040F029F45F3F29F00C945E10A6
:101F100051110C94A9100C9464100E94861068F35F
:101F20009923B1F3552391F3951B550BBB27AA2792
:101F300062177307840738F09F5F5F4F220F331FCC
:101F4000441FAA1FA9F335D00E2E3AF0E0E832D094
:101F500091505040E695001CCAF72BD0FE2F29D097
:101F6000660F771F881FBB1F261737074807AB0769
:101F7000B0E809F0BB0B802DBF01FF2793585F4FDE
:101F80003AF09E3F510578F00C945E100C94A91025
:101F90005F3FE4F3983ED4F3869577956795B795C0
:101FA000F7959F5FC9F7880F911D9695879597F9CB
:101FB0000895E1E0660F771F881FBB1F6217730744
:101FC0008407BA0720F0621B730B840BBA0BEE1F59
:101FD00088F7E09508950E94F20F6894B1110C946F
:101FE000A91008950E948E1088F09F5798F0B92F7D
:101FF0009927B751B0F0E1F0660F771F881F991F3E
:102000001AF0BA95C9F714C0B13091F00E94A81027
:10201000B1E008950C94A810672F782F8827B85F37
:1020200039F0B93FCCF3869577956795B395D9F795
:102030003EF490958095709561957F4F8F4F9F4F9F
:102040000895E89409C097FB3EF4909580957095AB
:1020500061957F4F8F4F9F4F9923A9F0F92F96E9F4
:10206000BB279395F695879577956795B795F11169
:10207000F8CFFAF4BB0F11F460FF1BC06F5F7F4F06
:102080008F4F9F4F16C0882311F096E911C0772318
:1020900021F09EE8872F762F05C0662371F096E821
:1020A000862F70E060E02AF09A95660F771F881FF0
:1020B000DAF7880F9695879597F9089597F99F67AE
:1020C00080E870E060E008959FEF80EC08950024C0
:1020D0000A941616170618060906089500240A948D
:1020E00012161306140605060895092E0394000C13
:1020F00011F4882352F0BB0F40F4BF2B11F460FFA2
:1021000004C06F5F7F4F8F4F9F4F089557FD9058CA
:10211000440F551F59F05F3F71F04795880F97FBAB
:10212000991F61F09F3F79F0879508951216130665
:102130001406551FF2CF4695F1DF08C01616170694
:102140001806991FF1CF86957105610508940895C9
:10215000E894BB2766277727CB0197F908950E945B
:10216000C2100C9475100E94671038F00E946E1017
:1021700020F0952311F00C945E100C94641011243F
:102180000C94A9100E94861070F3959FC1F3950FCF
:1021900050E0551F629FF001729FBB27F00DB11DEB
:1021A000639FAA27F00DB11DAA1F649F6627B00D7B
:1021B000A11D661F829F2227B00DA11D621F739F64
:1021C000B00DA11D621F839FA00D611D221F749F72
:1021D0003327A00D611D231F849F600D211D822FB9
:1021E000762F6A2F11249F5750409AF0F1F08823E0
:1021F0004AF0EE0FFF1FBB1F661F771F881F91500D
:102200005040A9F79E3F510580F00C945E100C944D
:10221000A9105F3FE4F3983ED4F3869577956795D0
:10222000B795F795E7959F5FC1F7FE2B880F911D36
:102230009695879597F90895FA01EE0FFF1F30964E
:1022400021053105A1F16115710561F48038BFE305
:102250009B0749F168949038810561F08038BFEFA1
:102260009B0741F099234AF5FF3FE1053105210520
:1022700019F1E8940894E795D901AA2329F4AB2F22
:10228000BE2FF85FD0F310C0FF5F70F4A695E0F7A3
:10229000F73950F019F0FF3A38F49F779F930DD03B
:1022A0000F9007FC9058089546F00C94641060E07D
:1022B00070E080E89FE308954FE79F775F934F9327
:1022C0003F932F930E9417122F913F914F915F914F
:1022D0000E94AF100C94741129F416F00C945E1047
:1022E0000C94A8100C9464100E948E10A8F39638D9
:1022F000A0F707F80F92E8942BE33AEA48EB5FE780
:102300000E94C5100F920F920F924DB75EB70F92B9
:102310000E945F12E8E6F0E00E94A6114F915F91E3
:10232000EF91FF91E595EE1FFF1F49F0FE57E06822
:102330004427EE0F441FFA95E1F74195550B0E9493
:10234000D9110F9007FE0C94CD110895DF93CF9310
:102350001F930F93FF92EF92DF927B018C016894A1
:1023600006C0DA2EEF010E94C210FE01E894A5918A
:102370002591359145915591A6F3EF010E94AB123D
:10238000FE019701A801DA9469F7DF90EF90FF90C2
:102390000F911F91CF91DF9108959B01AC0160E0F7
:1023A00070E080E89FE30C94790F0C945E100C941D
:1023B00000130E948E10D8F39923C9F3940F511D76
:1023C000A3F39150504094F059F0882332F0660FF7
:1023D000771F881F91505040C1F79E3F51052CF741
:1023E000880F911D9695879597F908955F3FACF0FA
:1023F000983E9CF0BB27869577956795B79508F42E
:10240000B1609395C1F7BB0F58F711F460FFE8CFA7
:102410006F5F7F4F8F4F9F4FE3CF0C94A91016F043
:102420000C9400130C94641068940C945E100E9439
:102430008E10A8F39923C1F3AEF3DF93CF931F93CC
:102440000F93FF92C92FDD2788232AF02197660F6B
:10245000771F881FDAF720E030E040E85FEB9FE36A
:10246000883920F0803E38F021968F770E949412B0
:10247000E0E9F0E004C00E949412EDEBF0E00E946D
:10248000A6118B01BE01EC01FB2E6F5771097595EA
:10249000771F880B990B0E94231028E132E741E354
:1024A0005FE30E94C210AF2D9801AE01FF900F9123
:1024B0001F91CF91DF910E94AB120C947510FA011D
:1024C000DC01AA0FBB1F9B01AC01BF5728F42227D8
:1024D00033274427507820C0B75190F4AB2F002405
:1024E000469537952795011CA395D2F3002071F0EE
:1024F000220F331F441FB395DAF30ED00C949312BE
:1025000061307105A0E88A07B94630F49B01AC013F
:102510006627772788279078309621F020833183AB
:102520004283538308955058BB27AA270E94AB12B9
:102530000C9475100E94671038F00E946E1020F005
:1025400039F49F3F19F426F40C9464100EF4E095CE
:10255000E7FB0C945E10E92F0E94861058F3BA171F
:10256000620773078407950720F079F4A6F50C94A9
:10257000A8100EF4E0950B2EBA2FA02D0B01B90177
:1025800090010C01CA01A0011124FF27591B99F0E9
:10259000593F50F4503E68F11A16F040A22F232FF5
:1025A000342F4427585FF3CF469537952795A79545
:1025B000F0405395C9F77EF41F16BA0B620B730BEC
:1025C000840BBAF09150A1F0FF0FBB1F661F771F5D
:1025D000881FC2F70EC0BA0F621F731F841F48F412
:1025E000879577956795B795F7959E3F08F0B0CF9B
:1025F0009395880F08F09927EE0F97958795089582
:102600009F3F31F0915020F4879577956795B79566
:10261000880F911D9695879597F90895AA1BBB1B66
:1026200051E107C0AA1FBB1FA617B70710F0A61BD2
:10263000B70B881F991F5A95A9F780959095BC01F3
:10264000CD0108950E946A0FB7FF0895821B930B76
:102650000895EE0FFF1F0590F491E02D099481E09D
:0C26600090E0F8940C943413F894FFCF31
:10266C0001000000005B01C800F300A2012401027C
:10267C00011601000000007104C8000002FF010DEA
:10268C000A004143484152205041524544450047BD
:10269C004952414E444F00534547554520524554ED
:1026AC004F004143484F55205155494E410041433D
:0E26BC00484F5520504F52544549524100009E
:107E0000112484B714BE81FFF0D085E080938100F7
:107E100082E08093C00088E18093C10086E0809377
:107E2000C20080E18093C4008EE0C9D0259A86E02C
:107E300020E33CEF91E0309385002093840096BBD3
:107E4000B09BFECF1D9AA8958150A9F7CC24DD24C4
:107E500088248394B5E0AB2EA1E19A2EF3E0BF2EE7
:107E6000A2D0813461F49FD0082FAFD0023811F036
:107E7000013811F484E001C083E08DD089C08234E0
:107E800011F484E103C0853419F485E0A6D080C0E4
:107E9000853579F488D0E82EFF2485D0082F10E0AE
:107EA000102F00270E291F29000F111F8ED06801E7
:107EB0006FC0863521F484E090D080E0DECF843638
:107EC00009F040C070D06FD0082F6DD080E0C81688
:107ED00080E7D80618F4F601B7BEE895C0E0D1E017
:107EE00062D089930C17E1F7F0E0CF16F0E7DF06D8
:107EF00018F0F601B7BEE89568D007B600FCFDCFD4
:107F0000A601A0E0B1E02C9130E011968C91119780
:107F100090E0982F8827822B932B1296FA010C0160
:107F200087BEE89511244E5F5F4FF1E0A038BF0790
:107F300051F7F601A7BEE89507B600FCFDCF97BE46
:107F4000E89526C08437B1F42ED02DD0F82E2BD052
:107F50003CD0F601EF2C8F010F5F1F4F84911BD097
:107F6000EA94F801C1F70894C11CD11CFA94CF0C13
:107F7000D11C0EC0853739F428D08EE10CD085E9AC
:107F80000AD08FE07ACF813511F488E018D01DD067
:107F900080E101D065CF982F8091C00085FFFCCF94
:107FA0009093C60008958091C00087FFFCCF809118
:107FB000C00084FD01C0A8958091C6000895E0E648
:107FC000F0E098E1908380830895EDDF803219F02E
:107FD00088E0F5DFFFCF84E1DECF1F93182FE3DFCA
:107FE0001150E9F7F2DF1F91089580E0E8DFEE27F6
:047FF000FF270994CA
:027FFE00040479
:0400000300007E007B
:00000001FF
