:100000000C945D000C9485000C9485000C94850084
:100010000C9485000C9485000C9485000C9485004C
:100020000C9485000C9485000C9485000C9480043D
:100030000C9485000C9485000C9485000C9485002C
:100040000C9436040C9485000C9404040C94DE0388
:100050000C9485000C9485000C9485000C9485000C
:100060000C9485000C9485000000000024002700FB
:100070002A0000000000250028002B0004040404CE
:100080000404040402020202020203030303030342
:10009000010204081020408001020408102001021F
:1000A00004081020000000080002010000030407FB
:1000B0000000000000000000410511241FBECFEF2A
:1000C000D8E0DEBFCDBF11E0A0E0B1E0E0E6FFE0A8
:1000D00002C005900D92AA33B107D9F722E0AAE336
:1000E000B1E001C01D92A635B207E1F710E0CDE501
:1000F000D0E004C02197FE010E94A307CC35D107B0
:10010000C9F70E9473060C94AE070C940000CF92BE
:10011000DF92EF92FF920F931F93CF93DF936C01C7
:100120007A018B01C0E0D0E0CE15DF0589F0D8015F
:100130006D918D01D601ED91FC910190F081E02D42
:10014000C6010995892B11F47E0102C02196ECCFDE
:10015000C701DF91CF911F910F91FF90EF90DF903A
:10016000CF900895089580E090E00895FC01538DAC
:10017000448D252F30E0842F90E0821B930B541781
:1001800010F0CF96089501970895FC01918D828D0E
:10019000981761F0828DDF01A80FB11D5D968C91DB
:1001A000928D9F5F9F73928F90E008958FEF9FEFE6
:1001B0000895FC01918D828D981731F0828DE80FA2
:1001C000F11D858D90E008958FEF9FEF0895FC015C
:1001D000918D228D892F90E0805C9F4F821B910929
:1001E0008F739927089589E691E00E94E70021E046
:1001F000892B09F420E0822F0895FC01848DDF0112
:10020000A80FB11DA35ABF4F2C91848D90E0019689
:100210008F739927848FA689B7892C93A089B18978
:100220008C9180648C93938D848D981306C0028882
:10023000F389E02D80818F7D80830895EF92FF9276
:100240000F931F93CF93DF93EC0181E0888F9B8DF9
:100250008C8D981305C0E889F989808185FD24C0BB
:10026000F62E0B8D10E00F5F1F4F0F731127E02E3E
:100270008C8DE8120CC00FB607FCFACFE889F9891B
:10028000808185FFF5CFCE010E94FD00F1CF8B8DDF
:10029000FE01E80FF11DE35AFF4FF0820B8FEA8950
:1002A000FB898081806207C0EE89FF896083E889CD
:1002B000F98980818064808381E090E0DF91CF9133
:1002C0001F910F91FF90EF900895CF93DF93EC0172
:1002D000888D8823C9F0EA89FB89808185FD05C066
:1002E000A889B9898C9186FD0FC00FB607FCF5CFA0
:1002F000808185FFF2CFA889B9898C9185FFEDCFE8
:10030000CE010E94FD00E7CFDF91CF91089580E0FC
:1003100090E0892B29F00E94F30081110C940000D9
:10032000089590E0FC01EC55FF4F3491FC01E0573B
:10033000FF4F2491FC01E458FF4FE491EE2309F4B0
:100340003BC0332339F1333091F038F43130A9F028
:10035000323001F584B58F7D12C0373091F03830DE
:10036000A1F03430B9F4809180008F7D03C080917A
:1003700080008F77809380000DC084B58F7784BD17
:1003800009C08091B0008F7703C08091B0008F7D4D
:100390008093B000F0E0EE0FFF1FEE58FF4FA591E5
:1003A000B4918FB7F894EC91611103C020952E237E
:1003B00001C02E2B2C938FBF0895CF93DF9390E035
:1003C000FC01E057FF4F2491FC01E458FF4F84915A
:1003D000882361F190E0880F991FFC01E859FF4FD5
:1003E000C591D491FC01EE58FF4FA591B4916111D4
:1003F00009C09FB7F8948881209582238883EC9167
:100400002E230BC0623061F49FB7F8943881822F9D
:10041000809583238883EC912E2B2C939FBF06C05D
:100420008FB7F894E8812E2B28838FBFDF91CF916F
:1004300008951F93CF93DF93182FEB0161E00E9483
:10044000DD01209711F460E004C0CF3FD10539F4FD
:1004500061E0812FDF91CF911F910C949101E12FE9
:10046000F0E0EC55FF4FE491E330F9F048F4E1306F
:10047000B9F0E230A1F584B5806284BDC8BD34C056
:10048000E730E9F0E83019F1E43049F58091800077
:10049000806280938000D0938B00C0938A0024C038
:1004A00084B5806884BDC7BD1FC08091800080680E
:1004B00080938000D0938900C093880015C08091FC
:1004C000B00080688093B000C093B3000DC08091ED
:1004D000B00080628093B000C093B40005C0C03803
:1004E000D1050CF0B5CFAFCFDF91CF911F9108951B
:1004F000CF93DF93C0E3D2E0BC0188810E94190250
:1005000060E070E08A81DF91CF910C941902CF9363
:10051000DF93662321F0DF91CF910C947802EC01F8
:1005200060E070E0809130020E941902BE0180916B
:100530003202DF91CF910C9419023FB7F894809169
:10054000650190916601A0916701B091680126B59F
:10055000A89B05C02F3F19F00196A11DB11D3FBFFB
:10056000BA2FA92F982F8827820F911DA11DB11D89
:10057000BC01CD0142E0660F771F881F991F4A9585
:10058000D1F708958F929F92AF92BF92CF92DF9250
:10059000EF92FF920E949D024B015C0188EEC82EF3
:1005A00083E0D82EE12CF12C0E949D02DC01CB01CE
:1005B00088199909AA09BB09883E9340A105B1058C
:1005C00058F021E0C21AD108E108F10888EE880E3F
:1005D00083E0981EA11CB11CC114D104E104F104F4
:1005E00019F7FF90EF90DF90CF90BF90AF909F9062
:1005F0008F900895FC0190915F019C30A0F481E000
:10060000890F80935F019083892F90E0FC01EE0FAA
:10061000FF1F8E0F9F1FFC01E55CFE4F88EB9BE0E8
:100620009283818308958FEF80830895CF93DF9322
:10063000EC01862F688379835B834A8361E00E94A3
:10064000DD0161E08A81DF91CF910C94DD0180E4CE
:1006500080937C0080917A00806480937A008091FE
:100660007A0086FDFCCF809178002091790090E09F
:10067000922B0895009769F0FC0101900020E9F7A2
:100680003197AF01481B590BBC0189E691E00C94EE
:10069000870080E090E00895CF93DF930E943A03B3
:1006A000EC0182E191E00E943A038C0F9D1FDF91E3
:1006B000CF9108958F929F92AF92BF92CF92DF9287
:1006C000EF92FF920F931F93CF93DF93CDB7DEB7D7
:1006D000A1970FB6F894DEBF0FBECDBF6C01990F86
:1006E000EE08FF08F7FE31C0E0916901F0916A0160
:1006F0000190F081E02D6DE289E691E009958C0191
:1007000022273327A9012C193D094E095F0919A297
:10071000CE0181967C019AE0892E912CA12CB12CDE
:10072000CA01B901A50194010E948107605DF7012A
:1007300062937F01211531054105510589F7CF01EC
:100740000E943A03080F191F1EC0A701960119A2A3
:100750008E010F5D1F4F8AE0C82ED12CE12CF12CA9
:10076000CA01B901A70196010E948107605DF801E5
:1007700062938F01211531054105510589F7CF019C
:100780000E943A038C0182E191E00E943A03800FBB
:10079000911FA1960FB6F894DEBF0FBECDBFDF91BB
:1007A000CF911F910F91FF90EF90DF90CF90BF906E
:1007B000AF909F908F9008950E94A9071F920F926B
:1007C0000FB60F9211242F933F934F935F936F9324
:1007D0007F938F939F93AF93BF93EF93FF9389E69C
:1007E00091E00E94FD00FF91EF91BF91AF919F9129
:1007F0008F917F916F915F914F913F912F910F90CA
:100800000FBE0F901F9018951F920F920FB60F9268
:1008100011242F938F939F93EF93FF93E09179018E
:10082000F0917A018081E0917F01F091800182FD59
:1008300012C09081809182018F5F8F73209183011C
:10084000821751F0E0918201F0E0E759FE4F958F59
:100850008093820101C08081FF91EF919F918F91E0
:100860002F910F900FBE0F901F9018951F920F920F
:100870000FB60F9211242F933F938F939F93AF93B3
:10088000BF938091610190916201A0916301B09149
:1008900064013091600123E0230F2D3720F401968D
:1008A000A11DB11D05C026E8230F0296A11DB11D93
:1008B000209360018093610190936201A093630192
:1008C000B09364018091650190916601A0916701E8
:1008D000B09168010196A11DB11D809365019093AF
:1008E0006601A0936701B0936801BF91AF919F919A
:1008F0008F913F912F910F900FBE0F901F901895E1
:100900001F920F920FB60F9211242F933F934F9384
:100910005F936F937F938F939F93AF93BF93EF9367
:10092000FF9380913A0187FF05C0109285001092D5
:1009300084001BC020913A01022E000C330B8091E1
:100940005F0190E02817390784F480913A01082E5E
:10095000000C990BFC01EE0FFF1F8E0F9F1FFC0177
:10096000E55CFE4F808186FD15C080913A018F5F66
:1009700080933A0120913A01022E000C330B8091B2
:100980005F0190E028173907C4F480913A018C3058
:1009900064F113C080913A01082E000C990BFC0100
:1009A000EE0FFF1F8E0F9F1FFC01E55CFE4F808145
:1009B00060E08F730E949101D8CF80918400909164
:1009C0008500049680349C4918F480E49CE905C0B5
:1009D0008091840090918500049690938900809383
:1009E00088008FEF80933A013BC0209184003091C2
:1009F000850080913A01082E000C990BFC01EE0F46
:100A0000FF1F8E0F9F1FFC01E55CFE4F81819281CD
:100A1000820F931F909389008093880080913A0100
:100A2000082E000C990BFC01EE0FFF1F8E0F9F1F6D
:100A3000FC01E55CFE4F808186FF12C080913A0187
:100A4000082E000C990BFC01EE0FFF1F8E0F9F1F4D
:100A5000FC01E55CFE4F808161E08F730E94910193
:100A6000FF91EF91BF91AF919F918F917F916F9186
:100A70005F914F913F912F910F900FBE0F901F905C
:100A800018952F923F924F925F926F927F928F9222
:100A90009F92AF92BF92CF92DF92EF92FF920F930D
:100AA0001F93CF93DF93CDB7DEB76A970FB6F89455
:100AB000DEBF0FBECDBFE9E6F1E01382128288EE01
:100AC00093E0A0E0B0E084839583A683B78384E0BD
:100AD00091E09183808385EC90E09587848784EC16
:100AE00090E09787868780EC90E0918B808B81ECFB
:100AF00090E0938B828B82EC90E0958B848B86ECDC
:100B000090E0978B868B118E128E138E148E49E097
:100B100050E06AE070E082E592E00E94160348E04F
:100B200050E067E070E08EE492E00E94160342E03D
:100B300050E063E070E08AE492E00E941603EAE489
:100B4000F2E0C080D180E280F3808AE392E00E94EC
:100B5000FA028DE392E00E94FA020AE312E08BE0CF
:100B600090E0F8019783868389E090E093878287FD
:100B70008AE090E091878087D586C486F786E686EE
:100B800062E086E10E94DD0162E088E10E94DD0111
:100B90004CE050E06BE070E086E392E00E941603C8
:100BA000A6E3B2E012968D919C911397E0E3F2E0F8
:100BB0002D913C91318320839383828366246394B7
:100BC000712C75826482EEE4F2E080809180A280D4
:100BD000B380E2E5F2E0C080D180E280F38080E182
:100BE000F801DE01119601900D928A95E1F7F80166
:100BF00026803780408551852285338586E0E0E375
:100C0000F2E0DE01519601900D928A95E1F706E03F
:100C100012E09DE0492E512CF8015182408253820E
:100C2000428255824482578246828AE192E0298F2D
:100C30003A8F4F8B588F0E94FA028DE192E00E940A
:100C4000FA02F80151A240A253A242A262E086E158
:100C50000E94DD0162E088E10E94DD01F8019182DD
:100C60008082B382A282D582C482F782E682338EEA
:100C7000228E298D3A8D378F268F4F89588D558F2B
:100C8000448F8D859E85AF85B88991A380A3B3A33A
:100C9000A2A389899A89AB89BC8995A384A3B7A3A8
:100CA000A6A371A660A662E086E10E94DD0162E073
:100CB00088E16A960FB6F894DEBF0FBECDBFDF9114
:100CC000CF911F910F91FF90EF90DF90CF90BF9049
:100CD000AF909F908F907F906F905F904F903F90DC
:100CE0002F900C94DD01789484B5826084BD84B526
:100CF000816084BD85B5826085BD85B5816085BD17
:100D000080916E00816080936E00109281008091CE
:100D10008100826080938100809181008160809356
:100D20008100809180008160809380008091B1007B
:100D300084608093B1008091B00081608093B000A6
:100D400080917A00846080937A0080917A0082603A
:100D500080937A0080917A00816080937A008091FC
:100D60007A00806880937A001092C100E091790146
:100D7000F0917A0182E08083E0917501F091760133
:100D80001082E0917701F09178018FEC80831092CE
:100D90008101E0917D01F0917E0186E08083E09108
:100DA0007B01F0917C01808180618083E0917B01F7
:100DB000F0917C01808188608083E0917B01F091DB
:100DC0007C01808180688083E0917B01F0917C01CF
:100DD00080818F7D8083C3E0D0E001E010E082E07D
:100DE000E82EF12C85E191E00E944C030E9427033C
:100DF000883E934054F40E9427030E945A0360E007
:100E00008FEF90E00E948702F1CF0E942703843683
:100E100091058CF360E080E090E00E9487020E94E0
:100E2000C202D0933502C093340281E291E00E9465
:100E30004C030E9427038F3591400CF050C00E9454
:100E40002703843691050CF44AC060E080E090E00E
:100E50000E9487020E94C20210933502009334025E
:100E60008DE291E00E944C03809134029091350212
:100E700081309105D1F40E9427038632924054F4C8
:100E80000E9427030E945A0360E08FEF90E00E94C7
:100E90008702F1CF0E942703843691058CF360E02E
:100EA00080E090E00E94870213C0039789F40E94BB
:100EB000270387329240E4F40E9427038436910589
:100EC000BCF060E080E090E00E9487020E94C202D5
:100ED000F0923502E09234020E94870183CF0E9493
:100EE00027030E945A038FEF90E00E947802A1CF5F
:100EF0000E9427030E945A038FEF90E00E9478021D
:100F0000D6CFA1E21A2EAA1BBB1BFD010DC0AA1F42
:100F1000BB1FEE1FFF1FA217B307E407F50720F062
:100F2000A21BB30BE40BF50B661F771F881F991FDD
:100F30001A9469F760957095809590959B01AC0126
:100F4000BD01CF010895EE0FFF1F0590F491E02D34
:100F5000099481E090E0F8940C94AE07F894FFCFE8
:100F6000000000001E018700B6006501E700C50013
:100F7000D9000D0A00696E646F2070726F203033E3
:100F800000696E646F2070726F20303100696E648A
:0A0F90006F2070726F2030320000F5
:107E0000112484B714BE81FFF0D085E080938100F7
:107E100082E08093C00088E18093C10086E0809377
:107E2000C20080E18093C4008EE0C9D0259A86E02C
:107E300020E33CEF91E0309385002093840096BBD3
:107E4000B09BFECF1D9AA8958150A9F7CC24DD24C4
:107E500088248394B5E0AB2EA1E19A2EF3E0BF2EE7
:107E6000A2D0813461F49FD0082FAFD0023811F036
:107E7000013811F484E001C083E08DD089C08234E0
:107E800011F484E103C0853419F485E0A6D080C0E4
:107E9000853579F488D0E82EFF2485D0082F10E0AE
:107EA000102F00270E291F29000F111F8ED06801E7
:107EB0006FC0863521F484E090D080E0DECF843638
:107EC00009F040C070D06FD0082F6DD080E0C81688
:107ED00080E7D80618F4F601B7BEE895C0E0D1E017
:107EE00062D089930C17E1F7F0E0CF16F0E7DF06D8
:107EF00018F0F601B7BEE89568D007B600FCFDCFD4
:107F0000A601A0E0B1E02C9130E011968C91119780
:107F100090E0982F8827822B932B1296FA010C0160
:107F200087BEE89511244E5F5F4FF1E0A038BF0790
:107F300051F7F601A7BEE89507B600FCFDCF97BE46
:107F4000E89526C08437B1F42ED02DD0F82E2BD052
:107F50003CD0F601EF2C8F010F5F1F4F84911BD097
:107F6000EA94F801C1F70894C11CD11CFA94CF0C13
:107F7000D11C0EC0853739F428D08EE10CD085E9AC
:107F80000AD08FE07ACF813511F488E018D01DD067
:107F900080E101D065CF982F8091C00085FFFCCF94
:107FA0009093C60008958091C00087FFFCCF809118
:107FB000C00084FD01C0A8958091C6000895E0E648
:107FC000F0E098E1908380830895EDDF803219F02E
:107FD00088E0F5DFFFCF84E1DECF1F93182FE3DFCA
:107FE0001150E9F7F2DF1F91089580E0E8DFEE27F6
:047FF000FF270994CA
:027FFE00040479
:0400000300007E007B
:00000001FF
