:100000000C94A3000C94CB000C94CB000C94CB006C
:100010000C94CB000C94CB000C94CB000C94CB0034
:100020000C94CB000C94CB000C94CB000C94660782
:100030000C94CB000C94CB000C94CB000C94CB0014
:100040000C949B050C94CB000C947E030C941E0125
:100050000C94CB000C94CB000C94CB000C94CB00F4
:100060000C94CB000C94CB0007634236B79BD8A707
:100070001A39685618AEBAAB558C1D3CB7CC5763CD
:10008000BD6DEDFD753EF6177231BF000000803F7B
:1000900008000000BE922449123EABAAAA2ABECD97
:1000A000CCCC4C3E00000080BEABAAAAAA3E000009
:1000B0000000BF000000803F000000000008417801
:1000C000D3BB4387D1133D190E3CC3BD4282AD2B38
:1000D0003E68EC8276BED98FE1A93E4C80EFFFBE30
:1000E00001C4FF7F3F00000000000000000024006A
:1000F00027002A0000000000250028002B00000037
:10010000000023002600290004040404040404045D
:1001100002020202020203030303030301020408B2
:100120001020408001020408102001020408102061
:1001300000000008000201000003040700000000A6
:1001400000000000CD0C11241FBECFEFD8E0DEBFB1
:10015000CDBF11E0A0E0B1E0EEE9F6E202C005900B
:100160000D92AA3AB107D9F722E0AAEAB1E001C09C
:100170001D92A43EB207E1F710E0C3EAD0E004C04C
:100180002197FE010E944213C23AD107C9F70E948B
:1001900060080C944D130C940000CF92DF92EF9204
:1001A000FF920F931F93CF93DF936C017A018B0122
:1001B000C0E0D0E0CE15DF0589F0D8016D918D014A
:1001C000D601ED91FC910190F081E02DC6010995D9
:1001D000892B11F47E0102C02196ECCFC701DF917B
:1001E000CF911F910F91FF90EF90DF90CF900895E6
:1001F000CF93DF930E945C01EC018FE191E00E94BC
:100200005C018C0F9D1FDF91CF9108950C945C01D0
:10021000BC01990F880B990B97FD0C94AF014AE034
:100220000C946E010E9448138AEA91E00E94160322
:1002300021E0892B09F420E0822F08951F920F926C
:100240000FB60F9211242F933F934F935F936F93A9
:100250007F938F939F93AF93BF93EF93FF938AEA1C
:1002600091E00E94B003FF91EF91BF91AF919F91F8
:100270008F917F916F915F914F913F912F910F904F
:100280000FBE0F901F9018956EE270E08BE592E024
:100290000E94EE066CE270E08EE592E00E94EE06AF
:1002A00060E070E08BE592E00E946B0662E870E02F
:1002B0008EE592E00C946B06009769F0FC010190CA
:1002C0000020E9F73197AF01481B590BBC018AEABE
:1002D00091E00C94CD0080E090E008958F929F9281
:1002E000AF92BF920F931F93CF93DF93CDB7DEB73B
:1002F000A1970FB6F894DEBF0FBECDBF19A2423052
:1003000008F44AE08E010F5D1F4F842E912CA12C22
:10031000B12CA50194010E94690FE62FB901CA0111
:1003200001501109EA3014F4E05D01C0E95CD80124
:10033000EC93232B242B252B61F7C8010E945C0131
:10034000A1960FB6F894DEBF0FBECDBFDF91CF915F
:100350001F910F91BF90AF909F908F900895CF9273
:10036000DF92EF92FF92CF93DF936B017C01E091DC
:10037000AA01F091AB010190F081E02D6DE28AEAD3
:1003800091E00995EC0166277727CB016C197D096F
:100390008E099F094AE00E946E018C0F9D1FDF911C
:1003A000CF91FF90EF90DF90CF900895CF93DF93A0
:1003B000BC01990F880B990B97FF03C00E94AF01F6
:1003C00003C04AE00E946E01EC018FE191E00E94BF
:1003D0005C018C0F9D1FDF91CF910895CF93DF9328
:1003E000EC01BC0187E492E00E942708BE018BE487
:1003F00092E0DF91CF910C94270880E090E00C947C
:10040000EE012F923F924F925F926F927F928F9266
:100410009F92AF92BF92CF92DF92EF92FF920F9393
:100420001F93CF93DF93CDB7DEB7CB55D1090FB66E
:10043000F894DEBF0FBECDBF6C968FAF6C9760E0B7
:100440000E94A90481E0809300018E010D5C1F4F82
:10045000180188E2280E311C4801C12CD12C7601EC
:1004600044244A9483E0582E612C712CCE010196CD
:100470005C016C968FAD6C970E944405F5018193E9
:1004800091935F01E017F107A1F748E150E0FE0109
:10049000319680E090E0A1E08417950784F46191A3
:1004A000719120813181261737073CF4DF011297C3
:1004B0002D933C9371836083A0E00196EDCFA11151
:1004C00003C04150510919F7A98DBA8D28E833E1CD
:1004D0000E943B13A30192010E94370FCA01B90188
:1004E0000E94441020E030E04AE754E40E949A0F52
:1004F0002EE03DE24AE95FEB0E943D1122EF32ED32
:100500004DED51E40E94D0100E940C10F401619353
:1005100071934F01CB01770FAA0BBB0BC80ED91EED
:10052000EA1EFB1EE215F30509F0A0CFC701B601D4
:1005300024E130E040E050E00E94690F69017A0157
:10054000A90160E070E0CB01F801219131918F01A8
:10055000F901E41BF50BEE9F9001EF9F300D300D7C
:1005600011242901330F66087708640D751D861D57
:10057000971D0215130541F724E130E040E050E0FB
:100580000E94690F2432310524F4C601843291059A
:1005900014F083E290E0C55ADF4F0FB6F894DEBF47
:1005A0000FBECDBFDF91CF911F910F91FF90EF90C4
:1005B000DF90CF90BF90AF909F908F907F906F9083
:1005C0005F904F903F902F900895FC01538D448D84
:1005D000252F30E0842F90E0821B930B541710F0EE
:1005E000CF96089501970895FC01918D828D9817FB
:1005F00061F0828DDF01A80FB11D5D968C91928D07
:100600009F5F9F73928F90E008958FEF9FEF089503
:10061000FC01918D828D981731F0828DE80FF11DCC
:10062000858D90E008958FEF9FEF0895FC01918DE7
:10063000228D892F90E0805C9F4F821B91098F73E0
:100640009927089580E090E0892B29F00E941401F9
:1006500081110C9400000895833081F028F48130DA
:1006600099F08230A1F008958730A9F08830B9F070
:100670008430D1F4809180008F7D03C08091800010
:100680008F7780938000089584B58F7702C084B5FA
:100690008F7D84BD08958091B0008F7703C08091D5
:1006A000B0008F7D8093B00008953FB7F89480919B
:1006B000E0029091E102A091E202B091E30226B53E
:1006C000A89B05C02F3F19F00196A11DB11D3FBF8A
:1006D000BA2FA92F982F8827820F911DA11DB11D18
:1006E000BC01CD0142E0660F771F881F991F4A9514
:1006F000D1F70895089580E090E008951F920F9239
:100700000FB60F9211242F938F939F93EF93FF9324
:10071000E091BA01F091BB018081E091C001F091BC
:10072000C10182FD12C090818091C3018F5F8F73E0
:100730002091C401821751F0E091C301F0E0E65529
:10074000FE4F958F8093C30101C08081FF91EF918F
:100750009F918F912F910F900FBE0F901F90189522
:10076000FC01848DDF01A80FB11DA35ABF4F2C914E
:10077000848D90E001968F739927848FA689B7891D
:100780002C93A089B1898C9180648C93938D848DF6
:10079000981306C00288F389E02D80818F7D8083C5
:1007A0000895EF92FF920F931F93CF93DF93EC0185
:1007B00081E0888F9B8D8C8D981305C0E889F9891D
:1007C000808185FD24C0F62E0B8D10E00F5F1F4F3A
:1007D0000F731127E02E8C8DE8120CC00FB607FCAA
:1007E000FACFE889F989808185FFF5CFCE010E9493
:1007F000B003F1CF8B8DFE01E80FF11DE35AFF4FDF
:10080000F0820B8FEA89FB898081806207C0EE89C4
:10081000FF896083E889F98980818064808381E031
:1008200090E0DF91CF911F910F91FF90EF9008958D
:10083000CF93DF93EC01888D8823C9F0EA89FB8987
:10084000808185FD05C0A889B9898C9186FD0FC07E
:100850000FB607FCF5CF808185FFF2CFA889B98953
:100860008C9185FFEDCFCE010E94B003E7CFDF91E1
:10087000CF910895CF93DF93282F30E0F901E05D09
:10088000FE4F8491F901E45EFE4FD491F901E85FD7
:10089000FE4FC491CC2391F081110E942C03EC2FC8
:1008A000F0E0EE0FFF1FE250FF4FA591B491EC91E5
:1008B000ED2381E090E021F480E002C080E090E050
:1008C000DF91CF9108951F93CF93DF93282F30E0CE
:1008D000F901E05DFE4F8491F901E45EFE4FD49191
:1008E000F901E85FFE4FC491CC23C9F0162F8111A6
:1008F0000E942C03EC2FF0E0EE0FFF1FEC50FF4F97
:10090000A591B4918FB7F894111105C09C91ED2F6A
:10091000E095E92302C0EC91ED2BEC938FBFDF91C2
:10092000CF911F910895CF93DF93EC0160E08E810A
:100930000E94630461E08E810E94630460E08E8106
:100940000E9463048BE891E00197F1F7DF91CF916A
:100950000895CF93DF9390E0FC01E45EFE4F249175
:10096000FC01E85FFE4F8491882361F190E0880FDD
:10097000991FFC01E651FF4FC591D491FC01EC5049
:10098000FF4FA591B491611109C09FB7F894888178
:10099000209582238883EC912E230BC0623061F472
:1009A0009FB7F8943881822F809583238883EC91B8
:1009B0002E2B2C939FBF06C08FB7F894E8812E2B67
:1009C00028838FBFDF91CF9108951F93CF93DF933B
:1009D000182FEB0161E00E94A904209711F460E058
:1009E00004C0CF3FD10539F461E0812FDF91CF9171
:1009F0001F910C946304E12FF0E0E05DFE4FE49161
:100A0000E330F9F048F4E130B9F0E230A1F584B513
:100A1000806284BDC8BD34C0E730E9F0E83019F128
:100A2000E43049F580918000806280938000D0930B
:100A30008B00C0938A0024C084B5806884BDC7BD84
:100A40001FC080918000806880938000D0938900CF
:100A5000C093880015C08091B00080688093B0007A
:100A6000C093B3000DC08091B00080628093B0004D
:100A7000C093B40005C0C038D1050CF0B5CFAFCFDE
:100A8000DF91CF911F9108958E3008F08E508770BE
:100A90002091000190E4299F90011124822B8093E2
:100AA0007C0080917A00806480937A0080917A0043
:100AB00086FDFCCF809178002091790090E0922B08
:100AC00008958F929F92AF92BF92CF92DF92EF9252
:100AD000FF926B017C010E9455034B015C01C11424
:100AE000D104E104F104F1F00E945503DC01CB01D3
:100AF00088199909AA09BB09883E9340A105B10547
:100B000070F321E0C21AD108E108F10888EE880EDE
:100B100083E0981EA11CB11CC114D104E104F104AE
:100B200019F7DDCFFF90EF90DF90CF90BF90AF909F
:100B30009F908F9008951F920F920FB60F921124DD
:100B40002F933F938F939F93AF93BF938091DC023A
:100B50009091DD02A091DE02B091DF023091DB02C4
:100B600023E0230F2D3720F40196A11DB11D05C0F0
:100B700026E8230F0296A11DB11D2093DB0280936E
:100B8000DC029093DD02A093DE02B093DF0280913D
:100B9000E0029091E102A091E202B091E30201969D
:100BA000A11DB11D8093E0029093E102A093E202A7
:100BB000B093E302BF91AF919F918F913F912F919D
:100BC0000F900FBE0F901F901895CF92DF92EF926B
:100BD000FF920F931F93CF93DF937C016C0187E00B
:100BE000C80ED11CC0E0D0E0062F10E0B8010C2EDA
:100BF00002C0759567950A94E2F76170F6018191DC
:100C00006F010E9463042196C430D10579F7C701B2
:100C1000DF91CF911F910F91FF90EF90DF90CF90D8
:100C20000C949304CF92DF92EF92FF920F931F9355
:100C3000CF93DF93EC01F62E642F8C810E94630426
:100C40008D818F3F19F060E00E9463048F850F2D26
:100C500010E084FF25C06E0187E0C80ED11CE12C96
:100C6000F12CB8010E2C02C0759567950A94E2F735
:100C70006170F60181916F010E946304FFEFEF1A2A
:100C8000FF0A88E0E816F10461F7CE01DF91CF9109
:100C90001F910F91FF90EF90DF90CF900C949304F1
:100CA000B80184E0759567958A95E1F7CE010E94B9
:100CB000E5056F2DCE01DF91CF911F910F91FF9030
:100CC000EF90DF90CF900C94E50541E00E94120672
:100CD00081E090E00895CF92DF92EF92FF92CF9360
:100CE000DF93EC01603282E078070CF03DC077FDC5
:100CF00006C0653B71052CF064EB70E002C060E05B
:100D000070E0898128E830E06901C81AD10887FDC0
:100D1000D394CC0CDD1CCC0CDD1C0D2C000CEE088F
:100D2000FF088A8128E532E0281B310987FD3395C9
:100D3000220F331F220F331FC901330FAA0BBB0B26
:100D40009C01AD012C193D094E095F09DB010E9490
:100D5000610F24EB30E040E050E00E94370FC20EFC
:100D6000D31EE41EF51EB60188818C3080F5998172
:100D700048E850E0491B510997FD5395440F551F12
:100D8000440F551F6417750784F09A8128E532E0F7
:100D9000291B310997FD3395220F331F220F331F73
:100DA000AB01261737070CF4A90142505109440F33
:100DB000551F2FB7F89490E0FC01EE0FFF1F8E0F28
:100DC0009F1FFC01E954FD4F528341832FBFDF91E8
:100DD000CF91FF90EF90DF90CF9008951F93CF9326
:100DE000DF93EC01162F88818C3008F04EC061E053
:100DF000812F0E94A9048881E82FF0E09F01220F33
:100E0000331FE20FF31FE954FD4F1F739081907C55
:100E1000192B108319821A826CE00E942F139CE018
:100E2000899FB001112440E050E09A01260F371F3E
:100E3000F901EE0FFF1F2E0F3F1FF901E954FD4F7F
:100E4000908196FD16C04F5F5F4F4C30510569F79A
:100E500081110FC01092800082E080938100109277
:100E6000850010928400B19A80916F008260809317
:100E70006F00E881F0E0CF01880F991FE80FF91F9C
:100E8000E954FD4F8081806480838881DF91CF9118
:100E90001F910895FC019091B6029C30A0F481E06E
:100EA000890F8093B6029083892F90E0FC01EE0FAA
:100EB000FF1F8E0F9F1FFC01E954FD4F88EB9BE045
:100EC0009283818308958FEF808308951F920F92FC
:100ED0000FB60F9211242F933F934F935F936F930D
:100EE0007F938F939F93AF93BF93EF93FF938091E3
:100EF000B50287FF05C010928500109284001BC0C8
:100F00002091B502022E000C330B8091B60290E0C6
:100F10002817390784F48091B502082E000C990B2C
:100F2000FC01EE0FFF1F8E0F9F1FFC01E954FD4FC8
:100F3000808186FD15C08091B5028F5F8093B502D8
:100F40002091B502022E000C330B8091B60290E086
:100F500028173907C4F48091B5028C3064F113C0AE
:100F60008091B502082E000C990BFC01EE0FFF1FBB
:100F70008E0F9F1FFC01E954FD4F808160E08F734D
:100F80000E946304D8CF80918400909185000496DC
:100F900080349C4918F480E49CE905C08091840069
:100FA00090918500049690938900809388008FEF3C
:100FB0008093B5023BC020918400309185008091E0
:100FC000B502082E000C990BFC01EE0FFF1F8E0FCF
:100FD0009F1FFC01E954FD4F81819281820F931F75
:100FE00090938900809388008091B502082E000CB0
:100FF000990BFC01EE0FFF1F8E0F9F1FFC01E954A0
:10100000FD4F808186FF12C08091B502082E000C32
:10101000990BFC01EE0FFF1F8E0F9F1FFC01E9547F
:10102000FD4F808161E08F730E946304FF91EF9117
:10103000BF91AF919F918F917F916F915F914F91F0
:101040003F912F910F900FBE0F901F901895CF9347
:10105000DF93EC0188810E94E50460E070E08A8102
:10106000DF91CF910C94E5040F931F93CF93DF93FF
:10107000442331F0DF91CF911F910F910C942708F9
:101080008B01EC0160E070E088810E94E504B8010A
:101090008A81DF91CF911F910F910C94E504CF933A
:1010A000DF93EC01862F688379835B834A8361E059
:1010B0000E94A90461E08A81DF91CF910C94A90478
:1010C000789484B5826084BD84B5816084BD85B523
:1010D000826085BD85B5816085BD80916E0081602F
:1010E00080936E00109281008091810082608093D5
:1010F00081008091810081608093810080918000D7
:101100008160809380008091B10084608093B10001
:101110008091B00081608093B00080917A008460FB
:1011200080937A0080917A00826080937A00809127
:101130007A00816080937A0080917A008068809341
:101140007A001092C100E091BA01F091BB0182E0F7
:101150008083E091B601F091B7011082E091B8016F
:10116000F091B9018FEC80831092C201E091BE0131
:10117000F091BF0186E08083E091BC01F091BD0158
:10118000808180618083E091BC01F091BD0180810C
:1011900088608083E091BC01F091BD01808180680E
:1011A0008083E091BC01F091BD0180818F7D8083BF
:1011B000C0E0C11165C083E090E00E9401029093FD
:1011C00054028093530284E090E00E9401029093C5
:1011D00056028093550220915302309154022C30D4
:1011E000310514F40C974CF088EC90E00E94EE016D
:1011F00082E291E00E94F800DECF82E391E00E945B
:10120000F80085E090E00E940102909358028093DC
:10121000570286E090E00E94010290935A02809368
:10122000590264E670E08BE492E00E94270840E0F7
:1012300064E670E087E492E00E94340880915702EF
:10124000909158022091590230915A0283329105AF
:1012500019F423323105A9F2821B930B97FF03C0C7
:10126000919581959109039764F680E090E00E9442
:10127000EE0168EE73E080E090E00E946105C1E05D
:1012800083E090E00E940102909354028093530205
:1012900084E090E00E9401029093560280935502F0
:1012A0002091530230915402293031051CF00997E6
:1012B0000CF043C080E090E00E94EE018FE391E0EB
:1012C0000E94F80081E090E00E9401029093500299
:1012D00080934F0282E090E00E94010290935202BC
:1012E0008093510283E090E00E94010290935402A7
:1012F0008093530284E090E00E9401029093560292
:101300008093550285E090E00E940102909358027C
:101310008093570286E090E00E94010290935A0267
:10132000809359020E94FD0168EE73E080E090E036
:101330000E946105C0E0D0E047C088EC90E00E94C8
:10134000EE0137CF83E090E00E94010290935402B7
:101350008093530284E090E00E9401029093560231
:10136000809355028CE591E00E94060180914F0226
:10137000909150020E94080182E691E00E940601CD
:1013800080915102909152020E94080188E691E0FA
:101390000E94060180915302909154020E9408011C
:1013A00082E791E00E9406018091550290915602D9
:1013B0000E94D6012196C170DD2780914F02909145
:1013C00050028332910529F584E591E00E94F800EE
:1013D00040E064E670E08BE492E00E94340864E64A
:1013E00070E087E492E00E942708209709F0AACFD6
:1013F00082E090E00E9401029093500280934F029D
:1014000081E090E00E940102909352028093510289
:10141000A9CF209151023091520223323105A1F21D
:1014200040915302509154024332510569F2409168
:101430005502509156024332510531F2821B930BF3
:1014400097FF03C091958195910904970CF0BCCF4B
:1014500088E791E00E94F8000E94FD0168EE73E0C9
:1014600080E090E00E94610500914F0210915002CF
:1014700086E891E00E940601B80180E090E04AE031
:101480000E946E018FE191E00E945C01C0E0D0E01B
:1014900083E991E00E94F800209789F481E090E0D0
:1014A0000E9401029093500280934F0282E090E0EC
:1014B0000E940102909352028093510210C083E077
:1014C00090E00E940102909354028093530284E0C2
:1014D00090E00E94010290935602809355028CE5A1
:1014E00091E00E94060180914F02909150020E946B
:1014F000080182E691E00E940601809151029091DC
:1015000052020E94080188E691E00E940601809143
:101510005302909154020E94080182E791E00E94D8
:10152000060180915502909156020E94D6012196A3
:10153000C170DD2740E064E670E08BE492E00E9439
:10154000340864E670E087E492E00E942708809106
:101550004F02909150028A3091055CF008171907EC
:1015600009F496CF9801281B390B2730310508F470
:101570008FCF0E94FD0164EF71E080E090E00E9457
:101580006105C0E0D0E08FE991E00E94F80020976B
:1015900089F481E090E00E940102909350028093D0
:1015A0004F0282E090E00E940102909352028093E9
:1015B000510210C083E090E00E9401029093540217
:1015C0008093530284E090E00E94010290935602BF
:1015D000809355028CE591E00E94060180914F02B4
:1015E000909150020E94080182E691E00E9406015B
:1015F00080915102909152020E94080188E691E088
:101600000E94060180915302909154020E940801A9
:1016100082E791E00E940601809155029091560266
:101620000E94D6012196C170DD2740E068EC70E091
:1016300087E492E00E94340840E068EC70E08BE4BC
:1016400092E00E94340880914F02909150020897D6
:101650003CF08091530290915402839709F093CF0C
:101660000E94FD0164EF71E080E090E00E9461055E
:10167000C0E0D0E083EA91E00E94F800209789F46E
:1016800081E090E00E9401029093500280934F020B
:1016900082E090E00E9401029093520280935102F6
:1016A00010C083E090E00E94010290935402809366
:1016B000530284E090E00E940102909356028093CE
:1016C00055028CE591E00E94060180914F029091B5
:1016D00050020E94080182E691E00E94060180917A
:1016E0005102909152020E94080188E691E00E9406
:1016F000060180915302909154020E94080182E7F2
:1017000091E00E94060180915502909156020E943C
:10171000D6012196C170DD2764E670E08BE492E08B
:101720000E94270840E064E670E087E492E00E94AF
:10173000340820914F0230915002809151029091D3
:101740005202A901481B590BCA0157FF03C09195CA
:1017500081959109049784F411E0293031050CF04A
:1017600010E00E94FD0164EF71E080E090E00E94D3
:101770006105C0E0D0E05FC08091530290915402B7
:10178000839709F077CFE8CF83E090E00E940102D1
:10179000909354028093530284E090E00E940102EF
:1017A00090935602809355028CE591E00E940601C9
:1017B00080914F02909150020E94080182E691E0D0
:1017C0000E94060180915102909152020E940801EC
:1017D00088E691E00E9406018091530290915402A4
:1017E0000E94080182E791E00E9406018091550263
:1017F000909156020E94D60180914F029091500222
:101800002091510230915202821B930B97FF03C02B
:1018100091958195910904970CF011E02196C17082
:10182000DD2788EC90E00E94EE01809153029091B8
:1018300054020D97A4F0209709F0A6CF81E090E024
:101840000E9401029093500280934F0282E090E048
:101850000E9401029093520280935102A5CF0E94F0
:10186000FD0180914F0290915002209151023091E0
:1018700052028217930711F4089719F0112309F403
:10188000F3CD0E9444018BE090E00E9401020E948F
:10189000D601C0E08BE090E00E94010240976CF11D
:1018A0008BE090E00E9401020E94D60183E090E06C
:1018B000CC2361F00E9401020B972CF084E690E0AB
:1018C0000E94EE01E7CF0E94FD01E3CF0E940102DA
:1018D0004B977CF440E064E670E087E492E00E947D
:1018E000340840E064E670E08BE492E00E94340843
:1018F000D1CF0E94FD01C1E0CDCF6AEF70E080E062
:1019000090E00E9461050E94FD010E94440188E16F
:101910000E943A04892B61F06FEF70E087E692E055
:101920000E94270889E00E9444050E94D601EFCF5B
:1019300040E060E070E087E692E00E94340888E1D1
:101940000E943A0421E030E0892B11F420E030E0DD
:10195000C9010E94D60189E00E944405813293406A
:1019600034F46AE570E08EE592E00E946B0686E151
:101970000E943A0440E0892B39F06FEF70E087E66F
:1019800092E00E943408F3CF60E070E087E692E0D6
:101990000E9434080E9422030BCC2F923F924F9258
:1019A0005F926F927F928F929F92AF92BF92CF92EF
:1019B000DF92EF92FF920F931F93CF93DF93CDB7F8
:1019C000DEB768970FB6F894DEBF0FBECDBF10929A
:1019D000AD011092AC0188EE93E0A0E0B0E08093FE
:1019E000AE019093AF01A093B001B093B10185E037
:1019F00091E09093AB018093AA0185EC90E09093E5
:101A0000B7018093B60184EC90E09093B901809384
:101A1000B80180EC90E09093BB018093BA0181EC17
:101A200090E09093BD018093BC0182EC90E0909394
:101A3000BF018093BE0186EC90E09093C10180933A
:101A4000C0011092C3011092C4011092C5011092FE
:101A5000C6014AE050E069E070E081EB92E00E944C
:101A60004F0847E050E068E070E08DEA92E00E94A5
:101A70004F0843E050E062E070E089EA92E00E94A3
:101A80004F08E090A902F090AA020091AB021091D9
:101A9000AC0289E992E00E944A078CE992E00E9438
:101AA0004A078BE090E09093A00280939F0289E028
:101AB00090E09093A4028093A3028AE090E0909338
:101AC000A2028093A102F092A602E092A5021093D6
:101AD000A8020093A70262E086E10E94A90462E0E6
:101AE00088E10E94A9044CE050E06BE070E085E9D9
:101AF00092E00E944F088091970290919802209165
:101B00009502309196023093900220938F02909329
:101B100092028093910283E0482E512C50929402BD
:101B2000409293026090AD027090AE028090AF023E
:101B30009090B002A090B102B090B202C090B302F7
:101B4000D090B40280E1E9E9F2E0DE011196019063
:101B50000D928A95E1F7E0909F02F090A00220910B
:101B6000A1023091A2022090A3023090A40286E04C
:101B7000EFE8F2E0DE01519601900D928A95E1F7CF
:101B80000DE010E0109348020093470210934A02C0
:101B90000093490210934C0200934B0210934E02A3
:101BA00000934D028BE592E02F8B388F0E944A07FD
:101BB0008EE592E00E944A07109368020093670244
:101BC00010936A020093690262E086E10E94A90410
:101BD00062E088E10E94A90410936C0200936B02FA
:101BE00010936E0200936D0281E090E0909370027A
:101BF00080936F0281E792E00E944A077092480248
:101C00006092470290924A0280924902B0924C023E
:101C1000A0924B02D0924E02C0924D02F09262020C
:101C2000E092610230926602209265022F89388D1F
:101C300030936402209363028D859E85AF85B889B9
:101C40009093680280936702B0936A02A09369023E
:101C500089899A89AB89BC8990936C0280936B02C5
:101C6000B0936E02A0936D025092700240926F0288
:101C700062E086E10E94A90462E088E10E94A90472
:101C80008CE892E00E944A07109277021092760246
:101C900087E191E090937502809374028CE18093C8
:101CA00078028FEF809379028EE180937A0280E24E
:101CB00080937B0282E280937C0284E280937D02A7
:101CC00086E280937E0210927F0210928002109230
:101CD0008102109282021092830281E08093870237
:101CE0001092880280E48093890280E180938A02C6
:101CF00080E580938B0261E08CE10E94A9048091D1
:101D000079028F3F19F061E00E94A90461E080919F
:101D10007A020E94A90400E010E08091830284FD11
:101D200003C084E090E002C088E090E00817190743
:101D300054F4F801EC58FD4F61E087810E94A9043A
:101D40000F5F1F4FEACF8BE39DE00197F1F760E053
:101D5000809178020E94630460E080917A020E9480
:101D60006304809179028F3F19F060E00E94630460
:101D70006091830264FD21C063E084E792E00E94E9
:101D8000E5050BE416E4C8010197F1F763E084E789
:101D900092E00E94E505C8010197F1F763E084E74E
:101DA00092E00E94E50583E592E00197F1F762E099
:101DB00084E792E00E94E5051EC0606240E084E78F
:101DC00092E00E9412068BE496E40197F1F760918D
:101DD0008302606240E084E792E00E94120683E59D
:101DE00092E00197F1F760918302606240E084E73E
:101DF00092E00E94120660918302606240E084E7F4
:101E000092E00E94120684E08093840240E06CE03D
:101E100084E792E00E94120640E061E084E792E0ED
:101E20000E9412068BE39FE10197F1F782E0809315
:101E3000850240E066E084E792E068960FB6F89489
:101E4000DEBF0FBECDBFDF91CF911F910F91FF90ED
:101E5000EF90DF90CF90BF90AF909F908F907F904A
:101E60006F905F904F903F902F900C941206052E2C
:101E700097FB1EF400940E944E0F57FD07D00E945E
:101E8000690F07FC03D04EF40C944E0F509540950B
:101E9000309521953F4F4F4F5F4F08959095809516
:101EA000709561957F4F8F4F9F4F08950E948B0FC4
:101EB000A59F900DB49F900DA49F800D911D11249E
:101EC0000895B7FF0C94560F0E94560F821B930B78
:101ED0000895A1E21A2EAA1BBB1BFD010DC0AA1F6B
:101EE000BB1FEE1FFF1FA217B307E407F50720F083
:101EF000A21BB30BE40BF50B661F771F881F991FFE
:101F00001A9469F760957095809590959B01AC0146
:101F1000BD01CF010895A29FB001B39FC001A39F4F
:101F2000700D811D1124911DB29F700D811D112412
:101F3000911D08950E94AE0F0C9496100E948F1070
:101F400058F00E94881040F029F45F3F29F00C946B
:101F50007F1051110C94CA100C9485100E94A71088
:101F600068F39923B1F3552391F3951B550BBB27C8
:101F7000AA2762177307840738F09F5F5F4F220F0D
:101F8000331F441FAA1FA9F335D00E2E3AF0E0E804
:101F900032D091505040E695001CCAF72BD0FE2F4E
:101FA00029D0660F771F881FBB1F261737074807E2
:101FB000AB07B0E809F0BB0B802DBF01FF2793589A
:101FC0005F4F3AF09E3F510578F00C947F100C94CF
:101FD000CA105F3FE4F3983ED4F3869577956795F2
:101FE000B795F7959F5FC9F7880F911D96958795CF
:101FF00097F90895E1E0660F771F881FBB1F6217EE
:1020000073078407BA0720F0621B730B840BBA0BAB
:10201000EE1F88F7E09508950E9413106894B1119F
:102020000C94CA1008950E94AF1088F09F5798F042
:10203000B92F9927B751B0F0E1F0660F771F881FCD
:10204000991F1AF0BA95C9F714C0B13091F00E94E7
:10205000C910B1E008950C94C910672F782F882714
:10206000B85F39F0B93FCCF3869577956795B3950E
:10207000D9F73EF490958095709561957F4F8F4F7D
:102080009F4F0895E89409C097FB3EF49095809582
:10209000709561957F4F8F4F9F4F9923A9F0F92F2E
:1020A00096E9BB279395F695879577956795B795AC
:1020B000F111F8CFFAF4BB0F11F460FF1BC06F5F92
:1020C0007F4F8F4F9F4F16C0882311F096E911C0A4
:1020D000772321F09EE8872F762F05C0662371F0C5
:1020E00096E8862F70E060E02AF09A95660F771FD9
:1020F000881FDAF7880F9695879597F9089597F9CD
:102100009F6780E870E060E008959FEF80EC08959D
:1021100000240A94161617061806090608950024C6
:102120000A9412161306140605060895092E039440
:10213000000C11F4882352F0BB0F40F4BF2B11F4B4
:1021400060FF04C06F5F7F4F8F4F9F4F089557FD13
:102150009058440F551F59F05F3F71F04795880F15
:1021600097FB991F61F09F3F79F0879508951216AC
:1021700013061406551FF2CF4695F1DF08C0161658
:1021800017061806991FF1CF869571056105089409
:102190000895E894BB2766277727CB0197F9089520
:1021A0000E94E3100C9496100E94881038F00E9450
:1021B0008F1020F0952311F00C947F100C94851053
:1021C00011240C94CA100E94A71070F3959FC1F3BC
:1021D000950F50E0551F629FF001729FBB27F00DD5
:1021E000B11D639FAA27F00DB11DAA1F649F66272A
:1021F000B00DA11D661F829F2227B00DA11D621F79
:10220000739FB00DA11D621F839FA00D611D221F32
:10221000749F3327A00D611D231F849F600D211D16
:10222000822F762F6A2F11249F5750409AF0F1F099
:1022300088234AF0EE0FFF1FBB1F661F771F881F02
:1022400091505040A9F79E3F510580F00C947F10AB
:102250000C94CA105F3FE4F3983ED4F386957795CB
:102260006795B795F795E7959F5FC1F7FE2B880FA8
:10227000911D9695879597F90895FA01EE0FFF1F26
:10228000309621053105A1F16115710561F48038A1
:10229000BFE39B0749F168949038810561F080386D
:1022A000BFEF9B0741F099234AF5FF3FE105310558
:1022B000210519F1E8940894E795D901AA2329F496
:1022C000AB2FBE2FF85FD0F310C0FF5F70F4A69560
:1022D000E0F7F73950F019F0FF3A38F49F779F9301
:1022E0000DD00F9007FC9058089546F00C9485107F
:1022F00060E070E080E89FE308954FE79F775F9389
:102300004F933F932F930E9438122F913F914F91FB
:102310005F910E94D0100C94951129F416F00C9442
:102320007F100C94C9100C9485100E94AF10A8F374
:102330009638A0F707F80F92E8942BE33AEA48EBB7
:102340005FE70E94E6100F920F920F924DB75EB7B3
:102350000F920E948012E8E6F0E00E94C7114F91B0
:102360005F91EF91FF91E595EE1FFF1F49F0FE573A
:10237000E0684427EE0F441FFA95E1F74195550BAD
:102380000E94FA110F9007FE0C94EE110895DF934E
:10239000CF931F930F93FF92EF92DF927B018C01FB
:1023A000689406C0DA2EEF010E94E310FE01E89463
:1023B000A5912591359145915591A6F3EF010E9484
:1023C000CC12FE019701A801DA9469F7DF90EF9033
:1023D000FF900F911F91CF91DF9108959B01AC0168
:1023E00060E070E080E89FE30C949A0F0C947F10FB
:1023F0000C9421130E94AF10D8F39923C9F3940FC2
:10240000511DA3F39150504094F059F0882332F0BD
:10241000660F771F881F91505040C1F79E3F5105AE
:102420002CF7880F911D9695879597F908955F3F32
:10243000ACF0983E9CF0BB27869577956795B7954D
:1024400008F4B1609395C1F7BB0F58F711F460FF22
:10245000E8CF6F5F7F4F8F4F9F4FE3CF0C94CA1031
:1024600016F00C9421130C94851068940C947F1032
:102470000E94AF10A8F39923C1F3AEF3DF93CF937B
:102480001F930F93FF92C92FDD2788232AF02197EE
:10249000660F771F881FDAF720E030E040E85FEB37
:1024A0009FE3883920F0803E38F021968F770E9494
:1024B000B512E0E9F0E004C00E94B512EDEBF0E0E7
:1024C0000E94C7118B01BE01EC01FB2E6F577109F1
:1024D0007595771F880B990B0E94441028E132E70D
:1024E00041E35FE30E94E310AF2D9801AE01FF903E
:1024F0000F911F91CF91DF910E94CC120C949610F6
:10250000FA01DC01AA0FBB1F9B01AC01BF5728F4E5
:10251000222733274427507820C0B75190F4AB2F9F
:102520000024469537952795011CA395D2F30020EA
:1025300071F0220F331F441FB395DAF30ED00C94C1
:10254000B41261307105A0E88A07B94630F49B01E6
:10255000AC016627772788279078309621F0208372
:1025600031834283538308955058BB27AA270E9482
:10257000CC120C9496100E94881038F00E948F1094
:1025800020F039F49F3F19F426F40C9485100EF4D2
:10259000E095E7FB0C947F10E92F0E94A71058F3F9
:1025A000BA17620773078407950720F079F4A6F538
:1025B0000C94C9100EF4E0950B2EBA2FA02D0B0130
:1025C000B90190010C01CA01A0011124FF27591B78
:1025D00099F0593F50F4503E68F11A16F040A22F7E
:1025E000232F342F4427585FF3CF469537952795EF
:1025F000A795F0405395C9F77EF41F16BA0B620BEE
:10260000730B840BBAF09150A1F0FF0FBB1F661F34
:10261000771F881FC2F70EC0BA0F621F731F841F77
:1026200048F4879577956795B795F7959E3F08F09D
:10263000B0CF9395880F08F09927EE0F979587955F
:1026400008959F3F31F0915020F4879577956795D5
:10265000B795880F911D9695879597F90895991BC1
:1026600079E004C0991F961708F0961B881F7A9589
:10267000C9F7809508950E948B0FB7FF0895821BBC
:10268000930B0895EE0FFF1F0590F491E02D099430
:0E26900081E090E0F8940C944D13F894FFCF85
:10269E000100000000D103CD00E50218041603F47A
:1026AE00020803000000006506CD007B037A030DCF
:1026BE000A00536567756520656D206672656E74D8
:1026CE0065004163686F75205061726564650041F5
:1026DE0063686569206F20636172616C686F207436
:1026EE006F646F00474952414E444F002053303AB9
:1026FE0020002053313A200020207C7C2053323A97
:10270E0020002053333A2000504F534943414F206D
:10271E004345525441007265666572656E6365206D
:10272E003D20004150524F58494D414E444F0052AA
:0A273E00C38900414A555354450079
:00000001FF
