:100000000C9462000C948A000C948A000C948A0070
:100010000C948A000C948A000C948A000C948A0038
:100020000C948A000C948A000C948A000C94E403CB
:100030000C948A000C948A000C948A000C948A0018
:100040000C949A030C948A000C9468030C94420359
:100050000C948A000C948A000C948A000C948A00F8
:100060000C948A000C948A000000000023002600F3
:10007000290000000008000201000003040700003E
:1000800000000000000000000000250028002B00F8
:1000900000000000240027002A00040404040404D3
:1000A0000404020202020202030303030303010227
:1000B00004081020408001020408102001020408F6
:1000C0001020A50411241FBECFEFD8E0DEBFCDBFA6
:1000D00011E0A0E0B1E0E6E8FEE002C005900D927C
:1000E000A231B107D9F722E0A2E1B1E001C01D922F
:1000F000A432B207E1F710E0C2E6D0E004C02197D5
:10010000FE010E943607C136D107C9F70E94F105EA
:100110000C9441070C94000090E0FC01E255FF4F65
:100120002491FC01E656FF4F8491882399F090E0DA
:10013000880F991FFC01E057FF4FA591B491FC0176
:10014000EA57FF4F859194918FB7F894EC91E22B89
:10015000EC938FBF0895CF92DF92EF92FF920F93AF
:100160001F93CF93DF936C017A018B01C0E0D0E045
:10017000CE15DF0589F0D8016D918D01D601ED9185
:10018000FC910190F081E02DC6010995892B11F4B5
:100190007E0102C02196ECCFC701DF91CF911F9164
:1001A0000F91FF90EF90DF90CF900895089580E039
:1001B00090E00895FC01538D448D252F30E0842F6D
:1001C00090E0821B930B541710F0CF96089501977F
:1001D0000895FC01918D828D981761F0828DDF0169
:1001E000A80FB11D5D968C91928D9F5F9F73928F2A
:1001F00090E008958FEF9FEF0895FC01918D828D1F
:10020000981731F0828DE80FF11D858D90E00895EB
:100210008FEF9FEF0895FC01918D228D892F90E043
:10022000805C9F4F821B91098F739927089581E409
:1002300091E00E940B0121E0892B09F420E0822F3C
:100240000895FC01848DDF01A80FB11DA35ABF4F93
:100250002C91848D90E001968F739927848FA689C5
:10026000B7892C93A089B1898C9180648C93938DEC
:10027000848D981306C00288F389E02D80818F7DDC
:1002800080830895EF92FF920F931F93CF93DF9394
:10029000EC0181E0888F9B8D8C8D981305C0E889D7
:1002A000F989808185FD24C0F62E0B8D10E00F5F4B
:1002B0001F4F0F731127E02E8C8DE8120CC00FB664
:1002C00007FCFACFE889F989808185FFF5CFCE0157
:1002D0000E942101F1CF8B8DFE01E80FF11DE35A41
:1002E000FF4FF0820B8FEA89FB898081806207C013
:1002F000EE89FF896083E889F98980818064808341
:1003000081E090E0DF91CF911F910F91FF90EF90EE
:100310000895CF93DF93EC01888D8823C9F0EA8993
:10032000FB89808185FD05C0A889B9898C9186FDEE
:100330000FC00FB607FCF5CF808185FFF2CFA889EB
:10034000B9898C9185FFEDCFCE010E942101E7CFC5
:10035000DF91CF91089580E090E0892B29F00E94F1
:10036000170181110C9400000895833081F028F466
:10037000813099F08230A1F008958730A9F088305B
:10038000B9F08430D1F4809180008F7D03C08091DA
:1003900080008F7780938000089584B58F7702C0A6
:1003A00084B58F7D84BD08958091B0008F7703C0A0
:1003B0008091B0008F7D8093B0000895CF93DF933C
:1003C000282F30E0F901EE58FF4F8491F901E255F2
:1003D000FF4FD491F901E656FF4FC491CC2391F021
:1003E00081110E94B501EC2FF0E0EE0FFF1FE859DC
:1003F000FF4FA591B491EC91ED2381E090E021F4C1
:1004000080E002C080E090E0DF91CF9108951F93DB
:10041000CF93DF93282F30E0F901EE58FF4F8491FE
:10042000F901E255FF4FD491F901E656FF4FC4910F
:10043000CC23C9F0162F81110E94B501EC2FF0E0FA
:10044000EE0FFF1FEA57FF4FA591B4918FB7F894B5
:10045000111105C09C91ED2FE095E92302C0EC91AC
:10046000ED2BEC938FBFDF91CF911F910895CF9229
:10047000DF92EF92FF92CF93DF93EC01603282E044
:1004800078070CF03DC077FD06C0653B71052CF088
:1004900064EB70E002C060E070E0898128E830E041
:1004A0006901C81AD10887FDD394CC0CDD1CCC0C93
:1004B000DD1C0D2C000CEE08FF088A8128E532E0D7
:1004C000281B310987FD3395220F331F220F331F5D
:1004D000C901330FAA0BBB0B9C01AD012C193D09BF
:1004E0004E095F09DB010E94F10624EB30E040E099
:1004F00050E00E94C706C20ED31EE41EF51EB601D0
:1005000088818C3080F5998148E850E0491B510979
:1005100097FD5395440F551F440F551F64177507DA
:1005200084F09A8128E532E0291B310997FD339543
:10053000220F331F220F331FAB01261737070CF48E
:10054000A90142505109440F551F2FB7F89490E06C
:10055000FC01EE0FFF1F8E0F9F1FFC01EC5EFE4F94
:10056000528341832FBFDF91CF91FF90EF90DF90B7
:10057000CF9008950F931F93CF93DF931F92CDB722
:10058000DEB78C01DC018C918C3008F055C0862FD1
:1005900069830E948C00F8018081E82FF0E09F01C0
:1005A000220F331FE20FF31FEC5EFE4F69816F7362
:1005B0009081907C692B6083D80111961C921197D1
:1005C00012961C926CE00E942A07BCE08B9FB0013F
:1005D000112440E050E09A01260F371FF901EE0F79
:1005E000FF1F2E0F3F1FF901EC5EFE4F908196FD1D
:1005F00016C04F5F5F4F4C30510569F781110FC036
:100600001092800082E08093810010928500109209
:100610008400B19A80916F00826080936F00D8014E
:10062000EC91F0E0CF01880F991FE80FF91FEC5E05
:10063000FE4F808180648083F80180810F90DF917C
:10064000CF911F910F910895FC01909113019C305F
:10065000A0F481E0890F809313019083892F90E0AB
:10066000FC01EE0FFF1F8E0F9F1FFC01EC5EFE4F83
:1006700088EB9BE09283818308958FEF80830895B8
:100680000E943C071F920F920FB60F9211242F93D6
:100690003F934F935F936F937F938F939F93AF930A
:1006A000BF93EF93FF9381E491E00E942101FF91BA
:1006B000EF91BF91AF919F918F917F916F915F91DA
:1006C0004F913F912F910F900FBE0F901F90189553
:1006D0001F920F920FB60F9211242F938F939F9317
:1006E000EF93FF93E0915101F09152018081E091ED
:1006F0005701F091580182FD12C0908180915A01FA
:100700008F5F8F7320915B01821751F0E0915A0146
:10071000F0E0EF5BFE4F958F80935A0101C080811E
:10072000FF91EF919F918F912F910F900FBE0F909E
:100730001F9018951F920F920FB60F9211242F93AE
:100740003F938F939F93AF93BF9380913D0190917F
:100750003E01A0913F01B091400130913C0123E066
:10076000230F2D3720F40196A11DB11D05C026E8E9
:10077000230F0296A11DB11D20933C0180933D01E2
:1007800090933E01A0933F01B093400180913801C6
:1007900090913901A0913A01B0913B010196A11DC0
:1007A000B11D8093380190933901A0933A01B09321
:1007B0003B01BF91AF919F918F913F912F910F90EE
:1007C0000FBE0F901F9018951F920F920FB60F92A9
:1007D00011242F933F934F935F936F937F938F9346
:1007E0009F93AF93BF93EF93FF938091120187FF85
:1007F00005C010928500109284001BC02091120148
:10080000022E000C330B8091130190E0281739075A
:1008100084F480911201082E000C990BFC01EE0F5C
:10082000FF1F8E0F9F1FFC01EC5EFE4F808186FD37
:1008300015C0809112018F5F8093120120911201E7
:10084000022E000C330B8091130190E0281739071A
:10085000C4F4809112018C3064F113C080911201B4
:10086000082E000C990BFC01EE0FFF1F8E0F9F1F2F
:10087000FC01EC5EFE4F808160E08F730E940702F6
:10088000D8CF8091840090918500049680349C4953
:1008900018F480E49CE905C0809184009091850063
:1008A000049690938900809388008FEF80931201C3
:1008B0003BC0209184003091850080911201082E68
:1008C000000C990BFC01EE0FFF1F8E0F9F1FFC0108
:1008D000EC5EFE4F81819281820F931F909389007D
:1008E0008093880080911201082E000C990BFC0166
:1008F000EE0FFF1F8E0F9F1FFC01EC5EFE4F8081ED
:1009000086FF12C080911201082E000C990BFC0189
:10091000EE0FFF1F8E0F9F1FFC01EC5EFE4F8081CC
:1009200061E08F730E940702FF91EF91BF91AF9139
:100930009F918F917F916F915F914F913F912F91F7
:100940000F900FBE0F901F9018952F923F924F92CD
:100950005F926F927F928F929F92AF92BF92CF924F
:10096000DF92EF92FF920F931F93CF93DF93CDB758
:10097000DEB765970FB6F894DEBF0FBECDBFE1E4DA
:10098000F1E01382128288EE93E0A0E0B0E084836D
:100990009583A683B78384E091E09183808385EC7F
:1009A00090E09587848784EC90E09787868780EC39
:1009B00090E0918B808B81EC90E0938B828B82EC2A
:1009C00090E0958B848B86EC90E0978B868B118ED4
:1009D000128E138E148E80E2C82E82E0D82E99E0FB
:1009E000892E912CF6019182808286E090E093839B
:1009F000828389E00E948C00F60182810E948C0033
:100A00002CE1A22E22E0B22E35E0E32EF12CF501EE
:100A1000F182E08283E090E09383828385E00E940C
:100A20008C00F50182810E948C0008E112E084E0D4
:100A300090E0F80191838083F382E2820E948C002F
:100A4000F80182810E948C00F8012080318022818F
:100A5000338188E092E02C8B3D8B0E9424038BE055
:100A600092E00E94240348E0E42E42E0F42E0DE0E0
:100A700010E0F701158704871787068763E070E0A9
:100A8000C7010E94BA0262E070E08BE092E00E942F
:100A9000BA0257E0452E512CF7015782468268E092
:100AA000662E712C738662869186808635862486B2
:100AB0002C893D8937872687F501E080F180A28067
:100AC000B380F601208031802281338180E1E8E02B
:100AD000F2E0DE01119601900D928A95E1F77EED2C
:100AE000C72E71E0D72EF601118300831383028392
:100AF000158304831783068382EF91E02C8B3D8B53
:100B00000E94240385EF91E00E942403F60115A3BF
:100B100004A317A306A311A610A6F182E082B38254
:100B2000A282358224822C893D8937832683538E85
:100B3000428E778E668E958E848E8D859E85AF854E
:100B4000B88991A380A3B3A3A2A384899589A68918
:100B5000898B9A8BAB8B63E070E0CE0141960E944B
:100B6000BA02F6018789908DA18D898B9A8BAB8B08
:100B700062E070E0CE0141960E94BA02F6018489DB
:100B80009589A689898B9A8BAB8B60E070E0CE014A
:100B900041960E943702F6018789908DA18D898B3D
:100BA0009A8BAB8B62E870E0CE0141960E943702CF
:100BB00065960FB6F894DEBF0FBECDBFDF91CF9123
:100BC0001F910F91FF90EF90DF90CF90BF90AF906B
:100BD0009F908F907F906F905F904F903F902F905D
:100BE0000895789484B5826084BD84B5816084BDA5
:100BF00085B5826085BD85B5816085BD80916E00BB
:100C0000816080936E0010928100809181008260EB
:100C10008093810080918100816080938100809128
:100C200080008160809380008091B1008460809317
:100C3000B1008091B00081608093B00080917A0013
:100C4000846080937A0080917A00826080937A0039
:100C500080917A00816080937A0080917A00806828
:100C600080937A001092C100E0915101F0915201FD
:100C700082E08083E0914D01F0914E011082E0917D
:100C80004F01F091500180E1808310925901E09171
:100C90005501F091560186E08083E0915301F09177
:100CA0005401808180618083E0915301F09154016F
:100CB000808188608083E0915301F09154018081AC
:100CC00080688083E0915301F091540180818F7D91
:100CD0008083D0E4C091FE018C2F0E948C0061E0E3
:100CE0008C2F0E940702C09100028C2F0E948C0062
:100CF00060E08C2F0E94070288E10E94DE01892BB0
:100D0000A1F0D0937C0080917A00806480937A0077
:100D100080917A0086FDFCCF809178002091790047
:100D200090E0922B813E9140ACF6C091FE018C2F59
:100D30000E948C0060E08C2F0E940702C09100028C
:100D40008C2F0E948C0060E08C2F0E9407026AE5C5
:100D500070E085EF91E00E943702C091FE018C2F78
:100D60000E948C0060E08C2F0E940702C09100025C
:100D70008C2F0E948C0061E08C2F0E94070289E179
:100D80000E94DE01892B49F70E94AB01A3CF052EFB
:100D900097FB1EF400940E94DE0657FD07D00E94C8
:100DA000F90607FC03D04EF40C94DE0650954095EE
:100DB000309521953F4F4F4F5F4F08959095809507
:100DC000709561957F4F8F4F9F4F08950E941B072D
:100DD000A59F900DB49F900DA49F800D911D11248F
:100DE0000895B7FF0C94E6060E94E606821B930B5B
:100DF0000895A1E21A2EAA1BBB1BFD010DC0AA1F5C
:100E0000BB1FEE1FFF1FA217B307E407F50720F073
:100E1000A21BB30BE40BF50B661F771F881F991FEE
:100E20001A9469F760957095809590959B01AC0137
:100E3000BD01CF010895A29FB001B39FC001A39F40
:100E4000700D811D1124911DB29F700D811D112403
:100E5000911D0895991B79E004C0991F961708F019
:100E6000961B881F7A95C9F780950895EE0FFF1F8E
:100E70000590F491E02D099481E090E0F8940C94B1
:060E80004107F894FFCFCA
:100E8600000000004201AB00DA0089010B01E90015
:020E9600FD005D
:00000001FF
