:100000000C949E000C94C6000C94C6000C94C60080
:100010000C94C6000C94C6000C94C6000C94C60048
:100020000C94C6000C94C6000C94C6000C94880571
:100030000C94C6000C94C6000C94C6000C94C60028
:100040000C943E050C94C6000C940C050C94E6042C
:100050000C94C6000C94C6000C94C6000C94C60008
:100060000C94C6000C94C60007634236B79BD8A711
:100070001A39685618AEBAAB558C1D3CB7CC5763CD
:10008000BD6DEDFD753EF6177231BF000000803F7B
:1000900008000000BE922449123EABAAAA2ABECD97
:1000A000CCCC4C3E00000080BEABAAAAAA3E000009
:1000B0000000BF000000803F000000000008417801
:1000C000D3BB4387D1133D190E3CC3BD4282AD2B38
:1000D0003E68EC8276BED98FE1A93E4C80EFFFBE30
:1000E00001C4FF7F3F00000000000000000024006A
:1000F00027002A0000000000250028002B0004042F
:1001000004040404040402020202020203030303BF
:10011000030301020408102040800102040810209B
:100120000102040810200000000800020100000382
:1001300004070000000000000000490611241FBE53
:10014000CFEFD8E0DEBFCDBF11E0A0E0B1E0E4E743
:10015000FAE102C005900D92A435B107D9F722E06B
:10016000A4E5B1E001C01D92A036B207E1F710E0AE
:10017000CEE9D0E004C02197FE010E942D0DCD39BB
:10018000D107C9F70E947A070C94380D0C9400002F
:10019000CF92DF92EF92FF920F931F93CF93DF9353
:1001A0006C017A018B01C0E0D0E0CE15DF0589F04B
:1001B000D8016D918D01D601ED91FC910190F081F6
:1001C000E02DC6010995892B11F47E0102C021960C
:1001D000ECCFC701DF91CF911F910F91FF90EF906E
:1001E000DF90CF900895089580E090E00895FC019D
:1001F000538D448D252F30E0842F90E0821B930B8C
:10020000541710F0CF96089501970895FC01918D31
:10021000828D981761F0828DDF01A80FB11D5D9668
:100220008C91928D9F5F9F73928F90E008958FEFD6
:100230009FEF0895FC01918D828D981731F0828D8A
:10024000E80FF11D858D90E008958FEF9FEF0895E1
:10025000FC01918D228D892F90E0805C9F4F821B45
:1002600091098F739927089583E891E00E942801EE
:1002700021E0892B09F420E0822F0895FC01848D70
:10028000DF01A80FB11DA35ABF4F2C91848D90E0C0
:1002900001968F739927848FA689B7892C93A0899B
:1002A000B1898C9180648C93938D848D981306C052
:1002B0000288F389E02D80818F7D80830895EF92FD
:1002C000FF920F931F93CF93DF93EC0181E0888F10
:1002D0009B8D8C8D981305C0E889F989808185FDF7
:1002E00024C0F62E0B8D10E00F5F1F4F0F731127E8
:1002F000E02E8C8DE8120CC00FB607FCFACFE8890F
:10030000F989808185FFF5CFCE010E943E01F1CFB2
:100310008B8DFE01E80FF11DE35AFF4FF0820B8F2A
:10032000EA89FB898081806207C0EE89FF8960834A
:10033000E889F98980818064808381E090E0DF91A1
:10034000CF911F910F91FF90EF900895CF93DF937E
:10035000EC01888D8823C9F0EA89FB89808185FDBD
:1003600005C0A889B9898C9186FD0FC00FB607FC1E
:10037000F5CF808185FFF2CFA889B9898C9185FF5F
:10038000EDCFCE010E943E01E7CFDF91CF910895DE
:1003900080E090E0892B29F00E94340181110C94B7
:1003A0000000089590E0FC01EA5DFE4F3491FC01ED
:1003B000EE5EFE4F2491FC01E250FF4FE491EE23EC
:1003C00009F43BC0332339F1333091F038F4313044
:1003D000A9F0323001F584B58F7D12C0373091F02D
:1003E0003830A1F03430B9F4809180008F7D03C0A3
:1003F000809180008F77809380000DC084B58F77C7
:1004000084BD09C08091B0008F7703C08091B00097
:100410008F7D8093B000F0E0EE0FFF1FEC50FF4F98
:10042000A591B4918FB7F894EC91611103C0209518
:100430002E2301C02E2B2C938FBF0895CF93DF93D3
:1004400090E0FC01EE5EFE4F2491FC01E250FF4F74
:100450008491882361F190E0880F991FFC01E65197
:10046000FF4FC591D491FC01EC50FF4FA591B49181
:10047000611109C09FB7F8948881209582238883F1
:10048000EC912E230BC0623061F49FB7F894388151
:10049000822F809583238883EC912E2B2C939FBFF2
:1004A00006C08FB7F894E8812E2B28838FBFDF9189
:1004B000CF9108951F93CF93DF93182FEB0161E045
:1004C0000E941E02209711F460E004C0CF3FD105C6
:1004D00039F461E0812FDF91CF911F910C94D2010B
:1004E000E12FF0E0EA5DFE4FE491E330F9F048F4EB
:1004F000E130B9F0E230A1F584B5806284BDC8BDB9
:1005000034C0E730E9F0E83019F1E43049F5809182
:100510008000806280938000D0938B00C0938A001B
:1005200024C084B5806884BDC7BD1FC08091800091
:10053000806880938000D0938900C093880015C0A4
:100540008091B00080688093B000C093B3000DC06C
:100550008091B00080628093B000C093B40005C069
:10056000C038D1050CF0B5CFAFCFDF91CF911F913F
:1005700008953FB7F89480917F0190918001A091F8
:100580008101B091820126B5A89B05C02F3F19F0CB
:100590000196A11DB11D3FBFBA2FA92F982F882703
:1005A000820F911DA11DB11DBC01CD0142E0660F5E
:1005B000771F881F991F4A95D1F708951F93CF93EE
:1005C000DF93EC01162F88818C3008F04EC061E07B
:1005D000812F0E941E028881E82FF0E09F01220FE8
:1005E000331FE20FF31FEA5AFE4F1F739081907C76
:1005F000192B108319821A826CE00E941A0D9CE05C
:10060000899FB001112440E050E09A01260F371F66
:10061000F901EE0FFF1F2E0F3F1FF901EA5AFE4F9F
:10062000908196FD16C04F5F5F4F4C30510569F7C2
:1006300081110FC01092800082E08093810010929F
:10064000850010928400B19A80916F00826080933F
:100650006F00E881F0E0CF01880F991FE80FF91FC4
:10066000EA5AFE4F8081806480838881DF91CF9138
:100670001F910895FC01909155019C30A0F481E0F8
:10068000890F809355019083892F90E0FC01EE0F34
:10069000FF1F8E0F9F1FFC01EA5AFE4F88EB9BE065
:1006A0009283818308958FEF80830895CF93DF93A2
:1006B000EC0188810E945A0260E070E08A81DF913B
:1006C000CF910C945A023F924F925F926F927F9219
:1006D0008F929F92AF92BF92CF92DF92EF92FF9252
:1006E0000F931F93CF93DF93CDB7DEB7CA55D109D0
:1006F0000FB6F894DEBF0FBECDBF182F60E00E948A
:100700001E0281E08093000182EF810F1E3008F00D
:10071000182F1770312E8E010D5C1F4F280128E213
:10072000420E511C3801C12CD12C760188248A94A8
:1007300083E0982EA12CB12CFE013196809100010E
:1007400020E4829FC0011124832980937C00809142
:100750007A00806480937A0080917A0086FDFCCFD5
:10076000809178002091790090E0922B8193919371
:10077000E017F10719F788E190E0FE01319620E0DB
:1007800030E0A1E0281739078CF461917191408124
:100790005181461757073CF4DF0112974D935C9344
:1007A00071836083A0E02F5F3F4FECCFA11102C0A7
:1007B000019719F7A98DBA8D28E833E10E94260D1B
:1007C000A50194010E943509CA01B9010E942F0AAE
:1007D00020E030E04AE754E40E9485092EE03DE243
:1007E0004AE95FEB0E94280B22EF32ED4DED51E418
:1007F0000E94BB0A0E94F709F301619371933F01C4
:10080000CB01770FAA0BBB0BC80ED91EEA1EFB1E2D
:10081000E415F50509F090CFC701B60124E130E0F9
:1008200040E050E00E94540969017A01590160E0FA
:1008300070E0CB01F801219131918F01A9014A1992
:100840005B09449F9001459F300D300D1124032E0C
:10085000000C440B550B620F731F841F951FE4158A
:10086000F50541F724E130E040E050E00E945409F2
:100870002432310534F4F1E5AF16B10414F4C601A5
:1008800002C08FEF9FEFC65ADF4F0FB6F894DEBF5E
:100890000FBECDBFDF91CF911F910F91FF90EF90D1
:1008A000DF90CF90BF90AF909F908F907F906F9090
:1008B0005F904F903F900895009769F0FC01019080
:1008C0000020E9F73197AF01481B590BBC0183E8C1
:1008D00091E00C94C80080E090E00895CF93DF93FE
:1008E0000E945C04EC0183E191E00E945C048C0FA7
:1008F0009D1FDF91CF9108958F929F92AF92BF92EB
:100900000F931F93CF93DF93CDB7DEB7A1970FB6A9
:10091000F894DEBF0FBECDBF19A2423008F44AE002
:100920008E010F5D1F4F842E912CA12CB12CA5019F
:1009300094010E945409E62FB901CA01015011091E
:10094000EA3014F4E05D01C0E95CD801EC93232B9C
:10095000242B252B61F7C8010E945C04A1960FB6D9
:10096000F894DEBF0FBECDBFDF91CF911F910F91E5
:10097000BF90AF909F908F900895CF92DF92EF92AB
:10098000FF92CF93DF936B017C01E0918301F091A3
:1009900084010190F081E02D6DE283E891E00995FA
:1009A000EC0166277727CB016C197D098E099F0919
:1009B0004AE00E947C048C0F9D1FDF91CF91FF9035
:1009C000EF90DF90CF9008950E94330D1F920F9209
:1009D0000FB60F9211242F933F934F935F936F9312
:1009E0007F938F939F93AF93BF93EF93FF9383E88E
:1009F00091E00E943E01FF91EF91BF91AF919F91D5
:100A00008F917F916F915F914F913F912F910F90B7
:100A10000FBE0F901F9018951F920F920FB60F9256
:100A200011242F938F939F93EF93FF93E091930162
:100A3000F09194018081E0919901F0919A0182FDF9
:100A400012C0908180919C018F5F8F7320919D01D6
:100A5000821751F0E0919C01F0E0ED57FE4F958F29
:100A600080939C0101C08081FF91EF919F918F91B4
:100A70002F910F900FBE0F901F9018951F920F92FD
:100A80000FB60F9211242F933F938F939F93AF93A1
:100A9000BF9380917B0190917C01A0917D01B091E9
:100AA0007E0130917A0123E0230F2D3720F4019647
:100AB000A11DB11D05C026E8230F0296A11DB11D81
:100AC00020937A0180937B0190937C01A0937D0118
:100AD000B0937E0180917F0190918001A09181016E
:100AE000B09182010196A11DB11D80937F01909369
:100AF0008001A0938101B0938201BF91AF919F913A
:100B00008F913F912F910F900FBE0F901F901895CE
:100B10001F920F920FB60F9211242F933F934F9372
:100B20005F936F937F938F939F93AF93BF93EF9355
:100B3000FF938091540187FF05C0109285001092A9
:100B400084001BC020915401022E000C330B8091B5
:100B5000550190E02817390784F480915401082E3C
:100B6000000C990BFC01EE0FFF1F8E0F9F1FFC0165
:100B7000EA5AFE4F808186FD15C0809154018F5F37
:100B80008093540120915401022E000C330B80916C
:100B9000550190E028173907C4F4809154018C3036
:100BA00064F113C080915401082E000C990BFC01D4
:100BB000EE0FFF1F8E0F9F1FFC01EA5AFE4F808130
:100BC00060E08F730E94D201D8CF80918400909111
:100BD0008500049680349C4918F480E49CE905C0A3
:100BE0008091840090918500049690938900809371
:100BF00088008FEF809354013BC020918400309196
:100C0000850080915401082E000C990BFC01EE0F19
:100C1000FF1F8E0F9F1FFC01EA5AFE4F81819281B8
:100C2000820F931F909389008093880080915401D4
:100C3000082E000C990BFC01EE0FFF1F8E0F9F1F5B
:100C4000FC01EA5AFE4F808186FF12C08091540158
:100C5000082E000C990BFC01EE0FFF1F8E0F9F1F3B
:100C6000FC01EA5AFE4F808161E08F730E94D2013D
:100C7000FF91EF91BF91AF919F918F917F916F9174
:100C80005F914F913F912F910F900FBE0F901F904A
:100C900018952F923F924F925F926F927F928F9210
:100CA0009F92AF92BF92CF92DF92EF92FF920F93FB
:100CB0001F93CF93DF93CDB7DEB765970FB6F89448
:100CC000DEBF0FBECDBFE3E8F1E01382128288EEF3
:100CD00093E0A0E0B0E084839583A683B78385E0AA
:100CE00091E09183808385EC90E09587848784EC04
:100CF00090E09787868780EC90E0918B808B81ECE9
:100D000090E0938B828B82EC90E0958B848B86ECC9
:100D100090E0978B868B118E128E138E148E8CE53D
:100D2000C82E82E0D82E99E0892E912CF60191826E
:100D3000808286E090E09383828361E089E00E9474
:100D40001E0261E0F60182810E941E0228E5A22EA9
:100D500022E0B22E35E0E32EF12CF501F182E082A3
:100D600083E090E09383828361E085E00E941E022D
:100D700061E0F50182810E941E0204E512E084E038
:100D800090E0F80191838083F382E28261E00E9427
:100D90001E0261E0F80182810E941E02F80120809B
:100DA00031802281338184E492E02C8B3D8B0E9440
:100DB0003A0387E492E00E943A0304E412E04DE033
:100DC000E42EF12CF801F586E486F786E68663E0EA
:100DD00070E0C8010E94DE0262E070E087E492E009
:100DE0000E94DE0257E0452E512CF80157824682C0
:100DF00068E0662E712C73866286918680863586C1
:100E000024862C893D8937872687F5010081118149
:100E1000A280B380F601208031802281338180E17D
:100E2000E4E4F2E0DE01119601900D928A95E1F77B
:100E300070E2C72E72E0D72EF601F182E082F382D3
:100E4000E282F582E482F782E68284E392E02C8BF0
:100E50003D8B0E943A0387E392E00E943A03F60139
:100E600011830083B382A282358224822C893D893A
:100E700037832683538E428E778E668E958E848E30
:100E80008D859E85AF85B88991A380A3B3A3A2A3C6
:100E900084899589A689898B9A8BAB8B63E070E0F6
:100EA000CE0141960E94DE02F6018789908DA18DC8
:100EB000898B9A8BAB8B62E070E0CE0141960E94E9
:100EC000DE0265960FB6F894DEBF0FBECDBFDF9190
:100ED000CF911F910F91FF90EF90DF90CF90BF9037
:100EE000AF909F908F907F906F905F904F903F90CA
:100EF0002F900895789484B5826084BD84B5816014
:100F000084BD85B5826085BD85B5816085BD8091D4
:100F10006E00816080936E0010928100809181004C
:100F20008260809381008091810081608093810044
:100F3000809180008160809380008091B100846006
:100F40008093B1008091B00081608093B000809167
:100F50007A00846080937A0080917A008260809326
:100F60007A0080917A00816080937A0080917A0083
:100F7000806880937A001092C100E0919301F09113
:100F8000940182E08083E0918F01F09190011082C2
:100F9000E0919101F091920180E1808310929B0198
:100FA000E0919701F091980186E08083E0919501AE
:100FB000F0919601808180618083E0919501F091AC
:100FC0009601808188608083E0919501F09196017F
:100FD000808180688083E0919501F0919601808105
:100FE0008F7D8083C0E0C111A5C082E090E00E94A7
:100FF000630390932D0280932C0283E090E00E9483
:10100000630390932F0280932E0220912C02309143
:101010002D022F3F4FEF340749F08F3F4FEF9407DA
:1010200029F02A30310514F40A978CF068EC70E04E
:1010300080E292E00E94560368EC70E084E292E065
:101040000E94560386E191E00E946E04CECF86E2B4
:1010500091E00E946E0485E090E00E94630390930B
:1010600031028093300284E090E00E946303909309
:1010700033028093320264EB70E084E292E00E94DB
:10108000560360E070E0809120020E945A0264EBF7
:1010900070E0809122020E945A0280913002909169
:1010A000310220913202309133028F3F4FEF94078B
:1010B00021F42F3F4FEF340771F2821B930B97FF00
:1010C00003C091958195910904972CF660E070E03A
:1010D00080E292E00E94560360E070E084E292E0D9
:1010E0000E9456030E94B9024B015C0188EEC82E93
:1010F00083E0D82EE12CF12C0E94B902DC01CB0157
:1011000088199909AA09BB09883E9340A105B10530
:1011100058F081E0C81AD108E108F10828EE820EE3
:1011200023E0921EA11CB11CC114D104E104F104FE
:1011300019F7C1E082E090E00E94630390932D02D2
:1011400080932C0283E090E00E94630390932F022F
:1011500080932E0283E391E00E945C0460912C0254
:1011600070912D02072E000C880B990B97FF03C07E
:101170000E94BD0403C04AE00E947C0489E391E020
:101180000E945C0460912E0270912F02072E000CC9
:10119000880B990B97FF03C00E94BD0403C04AE06F
:1011A0000E947C0483E191E00E945C0480912C0207
:1011B00090912D028B30910514F4019649F48091A1
:1011C0002E0290912F028B3091059CF4019689F0AC
:1011D00060E070E080E292E00E94560360E070E020
:1011E00084E292E00E9456038FE391E00E946E0435
:1011F00039C08091300290913102209132023091B9
:1012000033028D30910564F02D3031054CF064EBE4
:1012100070E084E292E00E94560366E970E01DC02F
:10122000A9014D5F5F4F481759078CF3AC014D5F23
:101230005F4F421753071CF466E970E008C0821B39
:10124000930B0296059708F074CF64EB70E084E28C
:1012500092E00E94560364EB70E080E292E00E940C
:101260005603C1CE0E94C801FDCF052E97FB1EF488
:1012700000940E944C0957FD07D00E94540907FCB6
:1012800003D04EF40C944C0950954095309521951F
:101290003F4F4F4F5F4F08959095809570956195A2
:1012A0007F4F8F4F9F4F0895A1E21A2EAA1BBB1BA1
:1012B000FD010DC0AA1FBB1FEE1FFF1FA217B30722
:1012C000E407F50720F0A21BB30BE40BF50B661F38
:1012D000771F881F991F1A9469F7609570958095FC
:1012E00090959B01AC01BD01CF010895A29FB00173
:1012F000B39FC001A39F700D811D1124911DB29F4A
:10130000700D811D1124911D08950E9499090C945E
:10131000810A0E947A0A58F00E94730A40F029F468
:101320005F3F29F00C946A0A51110C94B50A0C9491
:10133000700A0E94920A68F39923B1F3552391F33E
:10134000951B550BBB27AA2762177307840738F034
:101350009F5F5F4F220F331F441FAA1FA9F335D091
:101360000E2E3AF0E0E832D091505040E695001C45
:10137000CAF72BD0FE2F29D0660F771F881FBB1FFF
:10138000261737074807AB07B0E809F0BB0B802DDD
:10139000BF01FF2793585F4F3AF09E3F510578F009
:1013A0000C946A0A0C94B50A5F3FE4F3983ED4F3B8
:1013B000869577956795B795F7959F5FC9F7880FDD
:1013C000911D9695879597F90895E1E0660F771F2F
:1013D000881FBB1F621773078407BA0720F0621BC0
:1013E000730B840BBA0BEE1F88F7E09508950E94EB
:1013F000FE096894B1110C94B50A08950E949A0AE6
:1014000088F09F5798F0B92F9927B751B0F0E1F0C5
:10141000660F771F881F991F1AF0BA95C9F714C075
:10142000B13091F00E94B40AB1E008950C94B40A6E
:10143000672F782F8827B85F39F0B93FCCF38695AE
:1014400077956795B395D9F73EF49095809570950B
:1014500061957F4F8F4F9F4F0895E89409C097FB88
:101460003EF490958095709561957F4F8F4F9F4F7B
:101470009923A9F0F92F96E9BB279395F6958795BF
:1014800077956795B795F111F8CFFAF4BB0F11F482
:1014900060FF1BC06F5F7F4F8F4F9F4F16C0882329
:1014A00011F096E911C0772321F09EE8872F762F5F
:1014B00005C0662371F096E8862F70E060E02AF0A0
:1014C0009A95660F771F881FDAF7880F969587958C
:1014D00097F9089597F99F6780E870E060E00895B4
:1014E0009FEF80EC089500240A941616170618063C
:1014F0000906089500240A94121613061406050618
:101500000895092E0394000C11F4882352F0BB0FA8
:1015100040F4BF2B11F460FF04C06F5F7F4F8F4F0B
:101520009F4F089557FD9058440F551F59F05F3F46
:1015300071F04795880F97FB991F61F09F3F79F0F5
:1015400087950895121613061406551FF2CF469577
:10155000F1DF08C0161617061806991FF1CF8695F9
:101560007105610508940895E894BB2766277727DD
:10157000CB0197F908950E94CE0A0C94810A0E942B
:10158000730A38F00E947A0A20F0952311F00C9427
:101590006A0A0C94700A11240C94B50A0E94920AEB
:1015A00070F3959FC1F3950F50E0551F629FF001B6
:1015B000729FBB27F00DB11D639FAA27F00DB11DCF
:1015C000AA1F649F6627B00DA11D661F829F222758
:1015D000B00DA11D621F739FB00DA11D621F839FDF
:1015E000A00D611D221F749F3327A00D611D231FB5
:1015F000849F600D211D822F762F6A2F11249F5703
:1016000050409AF0F1F088234AF0EE0FFF1FBB1F05
:10161000661F771F881F91505040A9F79E3F5105C4
:1016200080F00C946A0A0C94B50A5F3FE4F3983E8C
:10163000D4F3869577956795B795F795E7959F5F6E
:10164000C1F7FE2B880F911D9695879597F9089500
:10165000FA01EE0FFF1F309621053105A1F161154A
:10166000710561F48038BFE39B0749F168949038B5
:10167000810561F08038BFEF9B0741F099234AF55F
:10168000FF3FE1053105210519F1E8940894E7953C
:10169000D901AA2329F4AB2FBE2FF85FD0F310C0D5
:1016A000FF5F70F4A695E0F7F73950F019F0FF3AB4
:1016B00038F49F779F930DD00F9007FC90580895B2
:1016C00046F00C94700A60E070E080E89FE30895B3
:1016D0004FE79F775F934F933F932F930E94230C85
:1016E0002F913F914F915F910E94BB0A0C94800B08
:1016F00029F416F00C946A0A0C94B40A0C94700A3B
:101700000E949A0AA8F39638A0F707F80F92E89477
:101710002BE33AEA48EB5FE70E94D10A0F920F925F
:101720000F924DB75EB70F920E946B0CE8E6F0E0A7
:101730000E94B20B4F915F91EF91FF91E595EE1FE3
:10174000FF1F49F0FE57E0684427EE0F441FFA954B
:10175000E1F74195550B0E94E50B0F9007FE0C94A5
:10176000D90B0895DF93CF931F930F93FF92EF92BE
:10177000DF927B018C01689406C0DA2EEF010E9493
:10178000CE0AFE01E894A591259135914591559198
:10179000A6F3EF010E94B70CFE019701A801DA94AD
:1017A00069F7DF90EF90FF900F911F91CF91DF913C
:1017B00008959B01AC0160E070E080E89FE30C9429
:1017C00085090C946A0A0C940C0D0E949A0AD8F3AD
:1017D0009923C9F3940F511DA3F39150504094F0F5
:1017E00059F0882332F0660F771F881F91505040C0
:1017F000C1F79E3F51052CF7880F911D969587954F
:1018000097F908955F3FACF0983E9CF0BB27869512
:1018100077956795B79508F4B1609395C1F7BB0FBD
:1018200058F711F460FFE8CF6F5F7F4F8F4F9F4FE6
:10183000E3CF0C94B50A16F00C940C0D0C94700ABE
:1018400068940C946A0A0E949A0AA8F39923C1F337
:10185000AEF3DF93CF931F930F93FF92C92FDD2732
:1018600088232AF02197660F771F881FDAF720E078
:1018700030E040E85FEB9FE3883920F0803E38F0AD
:1018800021968F770E94A00CE0E9F0E004C00E944E
:10189000A00CEDEBF0E00E94B20B8B01BE01EC015D
:1018A000FB2E6F5771097595771F880B990B0E9456
:1018B0002F0A28E132E741E35FE30E94CE0AAF2D11
:1018C0009801AE01FF900F911F91CF91DF910E947F
:1018D000B70C0C94810AFA01DC01AA0FBB1F9B0113
:1018E000AC01BF5728F4222733274427507820C063
:1018F000B75190F4AB2F0024469537952795011CDE
:10190000A395D2F3002071F0220F331F441FB3952B
:10191000DAF30ED00C949F0C61307105A0E88A07B1
:10192000B94630F49B01AC01662777278827907869
:10193000309621F020833183428353830895505899
:10194000BB27AA270E94B70C0C94810A0E94730A35
:1019500038F00E947A0A20F039F49F3F19F426F4F7
:101960000C94700A0EF4E095E7FB0C946A0AE92FD8
:101970000E94920A58F3BA17620773078407950703
:1019800020F079F4A6F50C94B40A0EF4E0950B2E31
:10199000BA2FA02D0B01B90190010C01CA01A001C1
:1019A0001124FF27591B99F0593F50F4503E68F11C
:1019B0001A16F040A22F232F342F4427585FF3CF5D
:1019C000469537952795A795F0405395C9F77EF42E
:1019D0001F16BA0B620B730B840BBAF09150A1F077
:1019E000FF0FBB1F661F771F881FC2F70EC0BA0FFD
:1019F000621F731F841F48F4879577956795B79585
:101A0000F7959E3F08F0B0CF9395880F08F099277F
:101A1000EE0F9795879508959F3F31F0915020F4F0
:101A2000879577956795B795880F911D96958795BA
:101A300097F90895991B79E004C0991F961708F04B
:101A4000961B881F7A95C9F7809508950E9476099C
:101A5000B7FF0895821B930B0895EE0FFF1F0590AB
:101A6000F491E02D099481E090E0F8940C94380D05
:041A7000F894FFCF18
:101A740001000000005F01C800F700A6012801066C
:101A8400011A010D0A00536567756520656D2066AE
:101A940072656E7465004163686F7520506172658C
:101AA4006465002053323A20002053333A20004129
:101AB40063686569206F20636172616C686F20746C
:041AC4006F646F00DC
:107E0000112484B714BE81FFF0D085E080938100F7
:107E100082E08093C00088E18093C10086E0809377
:107E2000C20080E18093C4008EE0C9D0259A86E02C
:107E300020E33CEF91E0309385002093840096BBD3
:107E4000B09BFECF1D9AA8958150A9F7CC24DD24C4
:107E500088248394B5E0AB2EA1E19A2EF3E0BF2EE7
:107E6000A2D0813461F49FD0082FAFD0023811F036
:107E7000013811F484E001C083E08DD089C08234E0
:107E800011F484E103C0853419F485E0A6D080C0E4
:107E9000853579F488D0E82EFF2485D0082F10E0AE
:107EA000102F00270E291F29000F111F8ED06801E7
:107EB0006FC0863521F484E090D080E0DECF843638
:107EC00009F040C070D06FD0082F6DD080E0C81688
:107ED00080E7D80618F4F601B7BEE895C0E0D1E017
:107EE00062D089930C17E1F7F0E0CF16F0E7DF06D8
:107EF00018F0F601B7BEE89568D007B600FCFDCFD4
:107F0000A601A0E0B1E02C9130E011968C91119780
:107F100090E0982F8827822B932B1296FA010C0160
:107F200087BEE89511244E5F5F4FF1E0A038BF0790
:107F300051F7F601A7BEE89507B600FCFDCF97BE46
:107F4000E89526C08437B1F42ED02DD0F82E2BD052
:107F50003CD0F601EF2C8F010F5F1F4F84911BD097
:107F6000EA94F801C1F70894C11CD11CFA94CF0C13
:107F7000D11C0EC0853739F428D08EE10CD085E9AC
:107F80000AD08FE07ACF813511F488E018D01DD067
:107F900080E101D065CF982F8091C00085FFFCCF94
:107FA0009093C60008958091C00087FFFCCF809118
:107FB000C00084FD01C0A8958091C6000895E0E648
:107FC000F0E098E1908380830895EDDF803219F02E
:107FD00088E0F5DFFFCF84E1DECF1F93182FE3DFCA
:107FE0001150E9F7F2DF1F91089580E0E8DFEE27F6
:047FF000FF270994CA
:027FFE00040479
:0400000300007E007B
:00000001FF
