:100000000C945D000C9485000C9485000C94850084
:100010000C9485000C9485000C9485000C9485004C
:100020000C9485000C9485000C9485000C941103AD
:100030000C9485000C9485000C9485000C9485002C
:100040000C94AB020C9485000C9418020C94F201F1
:100050000C9485000C9485000C9485000C9485000C
:100060000C9485000C9485000000000024002700FB
:100070002A0000000000250028002B0004040404CE
:100080000404040402020202020203030303030342
:10009000010204081020408001020408102001021F
:1000A00004081020000000080002010000030407FB
:1000B0000000000000000000A30511241FBECFEFC8
:1000C000D8E0DEBFCDBF11E0A0E0B1E0E2E2FEE0AB
:1000D00002C005900D92A631B107D9F722E0A6E142
:1000E000B1E001C01D92A533B207E1F710E0CDE504
:1000F000D0E004C02197FE010E940407CC35D1074F
:10010000C9F70E94A9040C940F070C940000CF9229
:10011000DF92EF92FF920F931F93CF93DF936C01C7
:100120007A018B01C0E0D0E0CE15DF0589F0D8015F
:100130006D918D01D601ED91FC910190F081E02D42
:10014000C6010995892B11F47E0102C02196ECCFDE
:10015000C701DF91CF911F910F91FF90EF90DF903A
:10016000CF900895089580E090E00895FC01538DAC
:10017000448D252F30E0842F90E0821B930B541781
:1001800010F0CF96089501970895FC01918D828D0E
:10019000981761F0828DDF01A80FB11D5D968C91DB
:1001A000928D9F5F9F73928F90E008958FEF9FEFE6
:1001B0000895FC01918D828D981731F0828DE80FA2
:1001C000F11D858D90E008958FEF9FEF0895FC015C
:1001D000918D228D892F90E0805C9F4F821B910929
:1001E0008F739927089585E491E00E94E70021E04C
:1001F000892B09F420E0822F0895FC01848DDF0112
:10020000A80FB11DA35ABF4F2C91848D90E0019689
:100210008F739927848FA689B7892C93A089B18978
:100220008C9180648C93938D848D981306C0028882
:10023000F389E02D80818F7D80830895EF92FF9276
:100240000F931F93CF93DF93EC0181E0888F9B8DF9
:100250008C8D981305C0E889F989808185FD24C0BB
:10026000F62E0B8D10E00F5F1F4F0F731127E02E3E
:100270008C8DE8120CC00FB607FCFACFE889F9891B
:10028000808185FFF5CFCE010E94FD00F1CF8B8DDF
:10029000FE01E80FF11DE35AFF4FF0820B8FEA8950
:1002A000FB898081806207C0EE89FF896083E889CD
:1002B000F98980818064808381E090E0DF91CF9133
:1002C0001F910F91FF90EF900895CF93DF93EC0172
:1002D000888D8823C9F0EA89FB89808185FD05C066
:1002E000A889B9898C9186FD0FC00FB607FCF5CFA0
:1002F000808185FFF2CFA889B9898C9185FFEDCFE8
:10030000CE010E94FD00E7CFDF91CF91089580E0FC
:1003100090E0892B29F00E94F30081110C940000D9
:10032000089590E0FC01EC55FF4F3491FC01E0573B
:10033000FF4F2491FC01E458FF4FE491EE2309F4B0
:100340003BC0332339F1333091F038F43130A9F028
:10035000323001F584B58F7D12C0373091F03830DE
:10036000A1F03430B9F4809180008F7D03C080917A
:1003700080008F77809380000DC084B58F7784BD17
:1003800009C08091B0008F7703C08091B0008F7D4D
:100390008093B000F0E0EE0FFF1FEE58FF4FA591E5
:1003A000B4918FB7F894EC91611103C020952E237E
:1003B00001C02E2B2C938FBF089580E480937C0086
:1003C00080917A00806480937A0080917A0086FD23
:1003D000FCCF809178002091790090E0922B0895D5
:1003E0000E940A071F920F920FB60F9211242F93AB
:1003F0003F934F935F936F937F938F939F93AF93AD
:10040000BF93EF93FF9385E491E00E94FD00FF917D
:10041000EF91BF91AF919F918F917F916F915F917C
:100420004F913F912F910F900FBE0F901F901895F5
:100430001F920F920FB60F9211242F938F939F93B9
:10044000EF93FF93E0915501F09156018081E09187
:100450005B01F0915C0182FD12C0908180915E0190
:100460008F5F8F7320915F01821751F0E0915E01E1
:10047000F0E0EB5BFE4F958F80935E0101C08081C1
:10048000FF91EF919F918F912F910F900FBE0F9041
:100490001F901895CF93DF9390E0FC01E057FF4F3A
:1004A0002491FC01E458FF4F8491882361F190E08E
:1004B000880F991FFC01E859FF4FC591D491FC01A9
:1004C000EE58FF4FA591B491611109C09FB7F89400
:1004D0008881209582238883EC912E230BC0623083
:1004E00061F49FB7F8943881822F809583238883A5
:1004F000EC912E2B2C939FBF06C08FB7F894E88108
:100500002E2B28838FBFDF91CF9108953FB7F894AA
:100510008091410190914201A0914301B091440129
:1005200026B5A89B05C02F3F19F00196A11DB11D4E
:100530003FBFBA2FA92F982F8827820F911DA11D89
:10054000B11DBC01CD0142E0660F771F881F991FC6
:100550004A95D1F708951F920F920FB60F9211246A
:100560002F933F938F939F93AF93BF9380913D01C0
:1005700090913E01A0913F01B091400130913C012A
:1005800023E0230F2D3720F40196A11DB11D05C0D6
:1005900026E8230F0296A11DB11D20933C018093F4
:1005A0003D0190933E01A0933F01B09340018091A3
:1005B000410190914201A0914301B0914401019603
:1005C000A11DB11D8093410190934201A09343016D
:1005D000B0934401BF91AF919F918F913F912F9123
:1005E0000F900FBE0F901F901895FC0190913B014A
:1005F0009C30A0F481E0890F80933B019083892F88
:1006000090E0FC01EE0FFF1F8E0F9F1FFC01E95EC3
:10061000FE4F88EB9BE09283818308958FEF808368
:1006200008951F920F920FB60F9211242F933F93AC
:100630004F935F936F937F938F939F93AF93BF93EA
:10064000EF93FF938091160187FF05C010928500FC
:10065000109284001BC020911601022E000C330B57
:1006600080913B0190E02817390784F480911601AE
:10067000082E000C990BFC01EE0FFF1F8E0F9F1F21
:10068000FC01E95EFE4F808186FD15C08091160158
:100690008F5F8093160120911601022E000C330B00
:1006A00080913B0190E028173907C4F4809116012E
:1006B0008C3064F113C080911601082E000C990B48
:1006C000FC01EE0FFF1F8E0F9F1FFC01E95EFE4F26
:1006D000808160E08F730E949101D8CF8091840067
:1006E00090918500049680349C4918F480E49CE93C
:1006F00005C08091840090918500049690938900B4
:10070000809388008FEF809316013BC02091840076
:100710003091850080911601082E000C990BFC0188
:10072000EE0FFF1F8E0F9F1FFC01E95EFE4F8181C0
:100730009281820F931F909389008093880080910B
:100740001601082E000C990BFC01EE0FFF1F8E0FF7
:100750009F1FFC01E95EFE4F808186FF12C08091E1
:100760001601082E000C990BFC01EE0FFF1F8E0FD7
:100770009F1FFC01E95EFE4F808161E08F730E9444
:100780009101FF91EF91BF91AF919F918F917F91D7
:100790006F915F914F913F912F910F900FBE0F90EE
:1007A0001F901895CF93DF93EC01862F6883798390
:1007B0005B834A8361E00E944A0261E08A81DF91A3
:1007C000CF910C944A028F929F92AF92BF920F9357
:1007D0001F93CF93DF93CDB7DEB7A1970FB6F894F1
:1007E000DEBF0FBECDBF19A2423008F44AE08E0131
:1007F0000F5D1F4F842E912CA12CB12CA5019401CB
:100800000E94E206E62FB901CA0101501109EA303F
:1008100014F4E05D01C0E95CD801EC93232B242B98
:10082000252B61F70115110571F0F80101900020E9
:10083000E9F73197AF01401B510BB80185E491E016
:100840000E94870002C080E090E0A1960FB6F89465
:10085000DEBF0FBECDBFDF91CF911F910F91BF9033
:10086000AF909F908F9008958F929F92AF92BF927A
:10087000CF92DF92EF92FF920E9486024B015C01C1
:1008800088EEC82E83E0D82EE12CF12C0E9486023F
:10089000DC01CB0188199909AA09BB09883E93405C
:1008A000A105B10558F021E0C21AD108E108F1080C
:1008B00088EE880E83E0981EA11CB11CC114D104DF
:1008C000E104F10419F7FF90EF90DF90CF90BF9013
:1008D000AF909F908F900895CF92DF92EF92FF920A
:1008E000CF93DF936C01990FEE08FF08F7FE1AC053
:1008F000E0914501F09146010190F081E02D6DE21B
:1009000085E491E00995EC0166277727CB016C1906
:100910007D098E099F094AE00E94E3037C01EC0EE9
:10092000FD1E06C04AE0C701B6010E94E3037C0138
:1009300042E050E062E171E085E491E00E948700CE
:100940008E0D9F1DDF91CF91FF90EF90DF90CF90A4
:100950000895789484B5826084BD84B5816084BD37
:1009600085B5826085BD85B5816085BD80916E004D
:10097000816080936E00109281008091810082607E
:1009800080938100809181008160809381008091BB
:1009900080008160809380008091B10084608093AA
:1009A000B1008091B00081608093B00080917A00A6
:1009B000846080937A0080917A00826080937A00CC
:1009C00080917A00816080937A0080917A008068BB
:1009D00080937A001092C100E0915501F091560188
:1009E00082E08083E0915101F09152011082E09108
:1009F0005301F09154018FEC808310925D01E091DE
:100A00005901F0915A0186E08083E0915701F091FD
:100A10005801808180618083E0915701F0915801F5
:100A2000808188608083E0915701F0915801808136
:100A300080688083E0915701F091580180818F7D1B
:100A4000808301E010E082E0E82EF12C0E94DD01BD
:100A50008F3591400CF045C00E94DD018436910530
:100A60000CF43FC0C091E20161E08C2F0E944A0269
:100A700060E08C2F0E949101C091E40161E08C2F15
:100A80000E944A0260E08C2F0E9491010E9434046F
:100A90001093E7010093E6010E94DD01823C914042
:100AA000CCF10E94DD0184369105A4F1C091E201F0
:100AB00061E08C2F0E944A0260E08C2F0E9491011D
:100AC000C091E40161E08C2F0E944A0260E08C2F0B
:100AD0000E949101F092E701E092E6010E948701F5
:100AE000B5CFC091E20161E08C2F0E944A0261E023
:100AF0008C2F0E949101C091E40161E08C2F0E9433
:100B00004A0260E08C2F0E9491010E94DD010E9448
:100B10006C049CCFC091E20161E08C2F0E944A02DC
:100B200060E08C2F0E949101C091E40161E08C2F64
:100B30000E944A0261E08C2F0E9491010E94DD0117
:100B40000E946C04A9CF2F923F924F925F926F92B6
:100B50007F928F929F92AF92BF92CF92DF92EF924D
:100B6000FF920F931F93CF93DF93CDB7DEB76A97B2
:100B70000FB6F894DEBF0FBECDBFE5E4F1E01382FF
:100B8000128288EE93E0A0E0B0E084839583A68390
:100B9000B78384E091E09183808385EC90E0958732
:100BA000848784EC90E09787868780EC90E0918B37
:100BB000808B81EC90E0938B828B82EC90E0958B24
:100BC000848B86EC90E0978B868B118E128E138E21
:100BD000148E4AE050E069E070E081E392E00E9408
:100BE000D20347E050E068E070E08DE292E00E94BE
:100BF000D20342E050E063E070E089E292E00E94BC
:100C0000D203E9E2F2E0C080D180E280F38089E1A2
:100C100092E00E94F5028CE192E00E94F50209E167
:100C200012E089E090E0F801978386838AE090E003
:100C3000938782878BE090E091878087D586C486F2
:100C4000F786E68662E086E10E944A0262E088E179
:100C50000E944A024CE050E06BE070E085E192E0D7
:100C60000E94D203A5E1B2E012968D919C91139758
:100C7000E2EEF1E02D913C913183208393838283D6
:100C800083E0482E512C55824482EDE2F2E06080F0
:100C9000718082809380E1E3F2E0A080B180C28025
:100CA000D38080E1F801DE01119601900D928A95C2
:100CB000E1F7F8012680378040855185228533850C
:100CC00086E0E2EEF1E0DE01519601900D928A9508
:100CD000E1F708EE11E09DE0E92EF12CF801F18238
:100CE000E082F382E282F582E482F782E6828CEF90
:100CF00091E0298F3A8F4F8B588F0E94F5028FEF2A
:100D000091E00E94F502F801F1A2E0A2F3A2E2A2B2
:100D100062E086E10E944A0262E088E10E944A02A3
:100D2000F801F5A2E4A2F7A2E6A281E090E091A783
:100D300080A782E192E00E94F502F8017182608250
:100D400093828282B582A482D782C682338E228E1B
:100D5000298D3A8D378F268F4F89588D558F448F27
:100D60008D859E85AF85B88991A380A3B3A3A2A3E7
:100D700089899A89AB89BC8995A384A3B7A3A6A3C3
:100D800051A640A662E086E10E944A0262E088E144
:100D90006A960FB6F894DEBF0FBECDBFDF91CF913C
:100DA0001F910F91FF90EF90DF90CF90BF90AF9089
:100DB0009F908F907F906F905F904F903F902F907B
:100DC0000C944A02A1E21A2EAA1BBB1BFD010DC006
:100DD000AA1FBB1FEE1FFF1FA217B307E407F507EB
:100DE00020F0A21BB30BE40BF50B661F771F881FC7
:100DF000991F1A9469F760957095809590959B015D
:100E0000AC01BD01CF010895EE0FFF1F0590F491D5
:100E1000E02D099481E090E0F8940C940F07F89489
:020E2000FFCF02
:100E2200000000001E018700B6006501E700C50052
:060E3200D9000D0A0000CA
:00000001FF
