:100000000C945D000C9485000C9485000C94850084
:100010000C9485000C9485000C9485000C9485004C
:100020000C9485000C9485000C9485000C94EA02D5
:100030000C9485000C9485000C9485000C9485002C
:100040000C94A0020C9485000C946E020C9448024F
:100050000C9485000C9485000C9485000C9485000C
:100060000C9485000C9485000000000024002700FB
:100070002A0000000000250028002B0004040404CE
:100080000404040402020202020203030303030342
:10009000010204081020408001020408102001021F
:1000A00004081020000000080002010000030407FB
:1000B0000000000000000000AB0311241FBECFEFC2
:1000C000D8E0DEBFCDBF11E0A0E0B1E0EAECFAE09D
:1000D00002C005900D92A231B107D9F722E0A2E14A
:1000E000B1E001C01D92AE32B207E1F710E0CDE5FC
:1000F000D0E004C02197FE010E945805CC35D107FD
:10010000C9F70E94DD040C9463050C940000CF92A3
:10011000DF92EF92FF920F931F93CF93DF936C01C7
:100120007A018B01C0E0D0E0CE15DF0589F0D8015F
:100130006D918D01D601ED91FC910190F081E02D42
:10014000C6010995892B11F47E0102C02196ECCFDE
:10015000C701DF91CF911F910F91FF90EF90DF903A
:10016000CF900895089580E090E00895FC01538DAC
:10017000448D252F30E0842F90E0821B930B541781
:1001800010F0CF96089501970895FC01918D828D0E
:10019000981761F0828DDF01A80FB11D5D968C91DB
:1001A000928D9F5F9F73928F90E008958FEF9FEFE6
:1001B0000895FC01918D828D981731F0828DE80FA2
:1001C000F11D858D90E008958FEF9FEF0895FC015C
:1001D000918D228D892F90E0805C9F4F821B910929
:1001E0008F739927089581E491E00E94E70021E050
:1001F000892B09F420E0822F0895FC01848DDF0112
:10020000A80FB11DA35ABF4F2C91848D90E0019689
:100210008F739927848FA689B7892C93A089B18978
:100220008C9180648C93938D848D981306C0028882
:10023000F389E02D80818F7D80830895EF92FF9276
:100240000F931F93CF93DF93EC0181E0888F9B8DF9
:100250008C8D981305C0E889F989808185FD24C0BB
:10026000F62E0B8D10E00F5F1F4F0F731127E02E3E
:100270008C8DE8120CC00FB607FCFACFE889F9891B
:10028000808185FFF5CFCE010E94FD00F1CF8B8DDF
:10029000FE01E80FF11DE35AFF4FF0820B8FEA8950
:1002A000FB898081806207C0EE89FF896083E889CD
:1002B000F98980818064808381E090E0DF91CF9133
:1002C0001F910F91FF90EF900895CF93DF93EC0172
:1002D000888D8823C9F0EA89FB89808185FD05C066
:1002E000A889B9898C9186FD0FC00FB607FCF5CFA0
:1002F000808185FFF2CFA889B9898C9185FFEDCFE8
:10030000CE010E94FD00E7CFDF91CF91089580E0FC
:1003100090E0892B29F00E94F30081110C940000D9
:10032000089590E0FC01EC55FF4F3491FC01E0573B
:10033000FF4F2491FC01E458FF4FE491EE2309F4B0
:100340003BC0332339F1333091F038F43130A9F028
:10035000323001F584B58F7D12C0373091F03830DE
:10036000A1F03430B9F4809180008F7D03C080917A
:1003700080008F77809380000DC084B58F7784BD17
:1003800009C08091B0008F7703C08091B0008F7D4D
:100390008093B000F0E0EE0FFF1FEE58FF4FA591E5
:1003A000B4918FB7F894EC91611103C020952E237E
:1003B00001C02E2B2C938FBF0895CF93DF9390E035
:1003C000FC01E057FF4F2491FC01E458FF4F84915A
:1003D000882361F190E0880F991FFC01E859FF4FD5
:1003E000C591D491FC01EE58FF4FA591B4916111D4
:1003F00009C09FB7F8948881209582238883EC9167
:100400002E230BC0623061F49FB7F8943881822F9D
:10041000809583238883EC912E2B2C939FBF06C05D
:100420008FB7F894E8812E2B28838FBFDF91CF916F
:100430000895FC01909137019C30A0F481E0890F70
:10044000809337019083892F90E0FC01EE0FFF1F0E
:100450008E0F9F1FFC01ED5EFE4F88EB9BE09283A9
:10046000818308958FEF80830895CF93DF93EC010C
:10047000862F688379835B834A8361E00E94DD0174
:1004800061E08A81DF91CF910C94DD010E945E05CD
:100490001F920F920FB60F9211242F933F934F93F9
:1004A0005F936F937F938F939F93AF93BF93EF93DC
:1004B000FF9381E491E00E94FD00FF91EF91BF91D5
:1004C000AF919F918F917F916F915F914F913F91EC
:1004D0002F910F900FBE0F901F9018951F920F92A3
:1004E0000FB60F9211242F938F939F93EF93FF9347
:1004F000E0915101F09152018081E0915701F0911A
:10050000580182FD12C0908180915A018F5F8F73D4
:1005100020915B01821751F0E0915A01F0E0EF5B0E
:10052000FE4F958F80935A0101C08081FF91EF911A
:100530009F918F912F910F900FBE0F901F90189544
:100540001F920F920FB60F9211242F933F938F9308
:100550009F93AF93BF9380913D0190913E01A091F5
:100560003F01B091400130913C0123E0230F2D3732
:1005700020F40196A11DB11D05C026E8230F0296A7
:10058000A11DB11D20933C0180933D0190933E013C
:10059000A0933F01B09340018091380190913901BF
:1005A000A0913A01B0913B010196A11DB11D80932C
:1005B000380190933901A0933A01B0933B01BF9168
:1005C000AF919F918F913F912F910F900FBE0F9000
:1005D0001F9018951F920F920FB60F9211242F9310
:1005E0003F934F935F936F937F938F939F93AF93BB
:1005F000BF93EF93FF938091120187FF05C0109284
:100600008500109284001BC020911201022E000C64
:10061000330B8091370190E02817390784F48091DB
:100620001201082E000C990BFC01EE0FFF1F8E0F1C
:100630009F1FFC01ED5EFE4F808186FD15C08091FD
:1006400012018F5F8093120120911201022E000C83
:10065000330B8091370190E028173907C4F480915B
:1006600012018C3064F113C080911201082E000C2D
:10067000990BFC01EE0FFF1F8E0F9F1FFC01ED5E1B
:10068000FE4F808160E08F730E949101D8CF8091EE
:10069000840090918500049680349C4918F480E48D
:1006A0009CE905C080918400909185000496909308
:1006B0008900809388008FEF809312013BC02091C6
:1006C00084003091850080911201082E000C990B56
:1006D000FC01EE0FFF1F8E0F9F1FFC01ED5EFE4F12
:1006E00081819281820F931F90938900809388006B
:1006F00080911201082E000C990BFC01EE0FFF1FD8
:100700008E0F9F1FFC01ED5EFE4F808186FF12C0A1
:1007100080911201082E000C990BFC01EE0FFF1FB7
:100720008E0F9F1FFC01ED5EFE4F808161E08F7395
:100730000E949101FF91EF91BF91AF919F918F9195
:100740007F916F915F914F913F912F910F900FBECD
:100750000F901F9018952F923F924F925F926F9239
:100760007F928F929F92AF92BF92CF92DF92EF9241
:10077000FF920F931F93CF93DF93CDB7DEB76A97A6
:100780000FB6F894DEBF0FBECDBFE1E4F1E01382F7
:10079000128288EE93E0A0E0B0E084839583A68384
:1007A000B78384E091E09183808385EC90E0958726
:1007B000848784EC90E09787868780EC90E0918B2B
:1007C000808B81EC90E0938B828B82EC90E0958B18
:1007D000848B86EC90E0978B868B118E128E138E15
:1007E000148E49E050E06AE070E08AE292E00E94F4
:1007F000350248E050E067E070E086E292E00E9457
:10080000350242E050E063E070E082E292E00E9454
:100810003502E2E2F2E0C080D180E280F38082E142
:1008200092E00E94190285E192E00E94190202E121
:1008300012E08BE090E0F8019783868389E090E0F6
:10084000938782878AE090E091878087D586C486E7
:10085000F786E68662E086E10E94DD0162E088E1DB
:100860000E94DD014CE050E06BE070E08EE092E031
:100870000E943502AEE0B2E012968D919C911397E2
:10088000E8E0F2E02D913C913183208393838283D1
:1008900066246394712C75826482E6E2F2E08080C3
:1008A0009180A280B380EAE2F2E0C080D180E28051
:1008B000F38080E1F801DE01119601900D928A9596
:1008C000E1F7F80126803780408551852285338500
:1008D00086E0E8E0F2E0DE01519601900D928A9503
:1008E000E1F70EED11E09DE0492E512CF801518207
:1008F000408253824282558244825782468282EFEE
:1009000091E0298F3A8F4F8B588F0E94190285EF03
:1009100091E00E941902F80151A240A253A242A202
:1009200062E086E10E94DD0162E088E10E94DD0173
:10093000F80191828082B382A282D582C482F7823A
:10094000E682338E228E298D3A8D378F268F4F89FE
:10095000588D558F448F8D859E85AF85B88991A31D
:1009600080A3B3A3A2A389899A89AB89BC8995A3E3
:1009700084A3B7A3A6A371A660A662E086E10E9445
:10098000DD0162E088E16A960FB6F894DEBF0FBE23
:10099000CDBFDF91CF911F910F91FF90EF90DF902E
:1009A000CF90BF90AF909F908F907F906F905F900F
:1009B0004F903F902F900C94DD01789484B5826025
:1009C00084BD84B5816084BD85B5826085BD85B5F3
:1009D000816085BD80916E00816080936E00109271
:1009E00081008091810082608093810080918100EC
:1009F000816080938100809180008160809380007D
:100A00008091B10084608093B1008091B0008160DA
:100A10008093B00080917A00846080937A00809106
:100A20007A00826080937A0080917A00816080935E
:100A30007A0080917A00806880937A001092C100D9
:100A4000E0915101F091520182E08083E0914D01EB
:100A5000F0914E011082E0914F01F09150018FEC26
:100A6000808310925901E0915501F091560186E082
:100A70008083E0915301F0915401808180618083F3
:100A8000E0915301F0915401808188608083E0916E
:100A90005301F0915401808180688083E09153017B
:100AA000F091540180818F7D80830E948701FDCF6A
:100AB000EE0FFF1F0590F491E02D099481E090E086
:0A0AC000F8940C946305F894FFCF3E
:100ACA00000000001E018700B6006501E700C500AE
:020ADA00D90041
:107E0000112484B714BE81FFF0D085E080938100F7
:107E100082E08093C00088E18093C10086E0809377
:107E2000C20080E18093C4008EE0C9D0259A86E02C
:107E300020E33CEF91E0309385002093840096BBD3
:107E4000B09BFECF1D9AA8958150A9F7CC24DD24C4
:107E500088248394B5E0AB2EA1E19A2EF3E0BF2EE7
:107E6000A2D0813461F49FD0082FAFD0023811F036
:107E7000013811F484E001C083E08DD089C08234E0
:107E800011F484E103C0853419F485E0A6D080C0E4
:107E9000853579F488D0E82EFF2485D0082F10E0AE
:107EA000102F00270E291F29000F111F8ED06801E7
:107EB0006FC0863521F484E090D080E0DECF843638
:107EC00009F040C070D06FD0082F6DD080E0C81688
:107ED00080E7D80618F4F601B7BEE895C0E0D1E017
:107EE00062D089930C17E1F7F0E0CF16F0E7DF06D8
:107EF00018F0F601B7BEE89568D007B600FCFDCFD4
:107F0000A601A0E0B1E02C9130E011968C91119780
:107F100090E0982F8827822B932B1296FA010C0160
:107F200087BEE89511244E5F5F4FF1E0A038BF0790
:107F300051F7F601A7BEE89507B600FCFDCF97BE46
:107F4000E89526C08437B1F42ED02DD0F82E2BD052
:107F50003CD0F601EF2C8F010F5F1F4F84911BD097
:107F6000EA94F801C1F70894C11CD11CFA94CF0C13
:107F7000D11C0EC0853739F428D08EE10CD085E9AC
:107F80000AD08FE07ACF813511F488E018D01DD067
:107F900080E101D065CF982F8091C00085FFFCCF94
:107FA0009093C60008958091C00087FFFCCF809118
:107FB000C00084FD01C0A8958091C6000895E0E648
:107FC000F0E098E1908380830895EDDF803219F02E
:107FD00088E0F5DFFFCF84E1DECF1F93182FE3DFCA
:107FE0001150E9F7F2DF1F91089580E0E8DFEE27F6
:047FF000FF270994CA
:027FFE00040479
:0400000300007E007B
:00000001FF
