:100000000C945D000C9485000C9485000C94850084
:100010000C9485000C9485000C9485000C9485004C
:100020000C9485000C9485000C9485000C94850339
:100030000C9485000C9485000C9485000C9485002C
:100040000C943B030C9485000C9409030C94E3027C
:100050000C9485000C9485000C9485000C9485000C
:100060000C9485000C94850000000008000201003B
:100070000003040700000000000000000000000072
:10008000250028002B0000000000240027002A0083
:10009000040404040404040402020202020203032E
:1000A0000303030301020408102040800102040836
:1000B0001020010204081020460411241FBECFEFB7
:1000C000D8E0DEBFCDBF11E0A0E0B1E0E4ECFCE0A1
:1000D00002C005900D92A432B107D9F722E0A4E244
:1000E000B1E001C01D92A232B207E1F710E0CDE508
:1000F000D0E004C02197FE010E945506CC35D107FF
:10010000C9F70E940F050C9460060C94000090E063
:10011000FC01EC55FF4F2491FC01E057FF4F849107
:10012000882399F090E0880F991FFC01EA57FF4F50
:10013000A591B491FC01E458FF4F859194918FB73C
:10014000F894EC91E22BEC938FBF0895CF92DF925D
:10015000EF92FF920F931F93CF93DF936C017A017D
:100160008B01C0E0D0E0CE15DF0589F0D8016D919C
:100170008D01D601ED91FC910190F081E02DC60139
:100180000995892B11F47E0102C02196ECCFC7019D
:10019000DF91CF911F910F91FF90EF90DF90CF9063
:1001A0000895089580E090E00895FC01538D448DFA
:1001B000252F30E0842F90E0821B930B541710F012
:1001C000CF96089501970895FC01918D828D98171F
:1001D00061F0828DDF01A80FB11D5D968C91928D2B
:1001E0009F5F9F73928F90E008958FEF9FEF089528
:1001F000FC01918D828D981731F0828DE80FF11DF1
:10020000858D90E008958FEF9FEF0895FC01918D0B
:10021000228D892F90E0805C9F4F821B91098F7304
:100220009927089588E391E00E94060121E0892B37
:1002300009F420E0822F0895FC01848DDF01A80FCE
:10024000B11DA35ABF4F2C91848D90E001968F73FE
:100250009927848FA689B7892C93A089B1898C911D
:1002600080648C93938D848D981306C00288F389E3
:10027000E02D80818F7D80830895EF92FF920F9310
:100280001F93CF93DF93EC0181E0888F9B8D8C8D42
:10029000981305C0E889F989808185FD24C0F62E70
:1002A0000B8D10E00F5F1F4F0F731127E02E8C8D09
:1002B000E8120CC00FB607FCFACFE889F9898081F3
:1002C00085FFF5CFCE010E941C01F1CF8B8DFE0181
:1002D000E80FF11DE35AFF4FF0820B8FEA89FB898B
:1002E0008081806207C0EE89FF896083E889F9898F
:1002F00080818064808381E090E0DF91CF911F91C5
:100300000F91FF90EF900895CF93DF93EC01888DCC
:100310008823C9F0EA89FB89808185FD05C0A88909
:10032000B9898C9186FD0FC00FB607FCF5CF80818F
:1003300085FFF2CFA889B9898C9185FFEDCFCE01D9
:100340000E941C01E7CFDF91CF91089580E090E0FB
:10035000892B29F00E94120181110C94000008954C
:1003600090E0FC01E859FF4F3491FC01EC55FF4F40
:100370002491FC01E057FF4FE491EE2309F43BC0C8
:10038000332339F1333091F038F43130A9F0323081
:1003900001F584B58F7D12C0373091F03830A1F06F
:1003A0003430B9F4809180008F7D03C0809180004B
:1003B0008F77809380000DC084B58F7784BD09C08E
:1003C0008091B0008F7703C08091B0008F7D8093C3
:1003D000B000F0E0EE0FFF1FE458FF4FA591B4917D
:1003E0008FB7F894EC91611103C020952E2301C0C2
:1003F0002E2B2C938FBF08951F93CF93DF93182F2D
:10040000EB010E948700209711F460E004C0CF3F09
:10041000D10539F461E0812FDF91CF911F910C94C8
:10042000B001E12FF0E0E859FF4FE491E330F9F03B
:1004300048F4E130B9F0E230A1F584B5806284BDC2
:10044000C8BD34C0E730E9F0E83019F1E43049F5CF
:1004500080918000806280938000D0938B00C09355
:100460008A0024C084B5806884BDC7BD1FC0809148
:100470008000806880938000D0938900C0938800BA
:1004800015C08091B00080688093B000C093B30025
:100490000DC08091B00080628093B000C093B40022
:1004A00005C0C038D1050CF0B5CFAFCFDF91CF91EB
:1004B0001F910895CF93DF93EC0188810E94FC0186
:1004C00060E070E08A81DF91CF910C94FC0100978D
:1004D00069F0FC0101900020E9F73197AF01481B5A
:1004E000590BBC0188E391E00C94A60080E090E0F9
:1004F00008958F929F92AF92BF920F931F93CF93C5
:10050000DF93CDB7DEB7A1970FB6F894DEBF0FBE6D
:10051000CDBF19A2423008F44AE08E010F5D1F4F93
:10052000842E912CA12CB12CA50194010E9433069C
:10053000E62FB901CA0101501109EA3014F4E05D57
:1005400001C0E95CD801EC93232B242B252B61F708
:10055000C8010E946702A1960FB6F894DEBF0FBED5
:10056000CDBFDF91CF911F910F91BF90AF909F9022
:100570008F900895CF92DF92EF92FF92CF93DF9307
:100580006B017C01E0913801F09139010190F0811B
:10059000E02D6DE288E391E00995EC01662777276D
:1005A000CB016C197D098E099F094AE00E947902EE
:1005B0008C0F9D1FDF91CF91FF90EF90DF90CF9038
:1005C00008950E945B061F920F920FB60F9211249E
:1005D0002F933F934F935F936F937F938F939F934B
:1005E000AF93BF93EF93FF9388E391E00E941C01C8
:1005F000FF91EF91BF91AF919F918F917F916F91FB
:100600005F914F913F912F910F900FBE0F901F90D0
:1006100018951F920F920FB60F9211242F938F935C
:100620009F93EF93FF93E0914801F09149018081FE
:10063000E0914E01F0914F0182FD12C090818091B6
:1006400051018F5F8F7320915201821751F0E09119
:100650005101F0E0E85CFE4F958F8093510101C09D
:100660008081FF91EF919F918F912F910F900FBEFD
:100670000F901F9018951F920F920FB60F92112492
:100680002F933F938F939F93AF93BF9380912A01B2
:1006900090912B01A0912C01B0912D013091290155
:1006A00023E0230F2D3720F40196A11DB11D05C0B5
:1006B00026E8230F0296A11DB11D209329018093E6
:1006C0002A0190932B01A0932C01B0932D018091CE
:1006D000250190912601A0912701B0912801019652
:1006E000A11DB11D8093250190932601A0932701A0
:1006F000B0932801BF91AF919F918F913F912F911E
:100700000F900FBE0F901F9018951F920F920FB66B
:100710000F9211242F933F934F935F936F937F9387
:100720008F939F93AF93BF93EF93FF938091240197
:1007300087FF05C010928500109284001BC0209195
:100740002401022E000C330B8091F90190E0281750
:10075000390784F480912401082E000C990BFC01C8
:10076000EE0FFF1F8E0F9F1FFC01EB52FE4F80818B
:1007700086FD15C0809124018F5F80932401209114
:100780002401022E000C330B8091F90190E0281710
:100790003907C4F4809124018C3064F113C0809136
:1007A0002401082E000C990BFC01EE0FFF1F8E0F89
:1007B0009F1FFC01EB52FE4F808160E08F730E940F
:1007C000B001D8CF80918400909185000496803448
:1007D0009C4918F480E49CE905C0809184009091C4
:1007E0008500049690938900809388008FEF809312
:1007F00024013BC020918400309185008091240128
:10080000082E000C990BFC01EE0FFF1F8E0F9F1F8F
:10081000FC01EB52FE4F81819281820F931F9093D6
:1008200089008093880080912401082E000C990B88
:10083000FC01EE0FFF1F8E0F9F1FFC01EB52FE4FBE
:10084000808186FF12C080912401082E000C990B34
:10085000FC01EE0FFF1F8E0F9F1FFC01EB52FE4F9E
:10086000808161E08F730E94B001FF91EF91BF9191
:10087000AF919F918F917F916F915F914F913F9138
:100880002F910F900FBE0F901F90189510923B0163
:1008900010923A0188EE93E0A0E0B0E080933C0132
:1008A00090933D01A0933E01B0933F0184E091E01D
:1008B000909339018093380185EC90E09093450145
:1008C0008093440184EC90E090934701809346012B
:1008D00080EC90E0909349018093480181EC90E096
:1008E00090934B0180934A0182EC90E090934D01EC
:1008F00080934C0186EC90E090934F0180934E01E1
:100900001092510110925201109253011092540111
:1009100089E090E090931F0280931E0286E090E0B1
:10092000909321028093200289E00E9487008091A9
:1009300020020E94870085E090E090931B02809344
:100940001A0283E090E090931D0280931C0285E0E0
:100950000E94870080911C020E948700A0911A02C9
:10096000B0911B0260911C0270911D0240911E0209
:1009700050911F0220912002309121028091F901B3
:100980008C30A0F491E0980F9093F90180930E02BF
:1009900090E0FC01EE0FFF1F8E0F9F1FFC01EB523A
:1009A000FE4F88EB9BE09283818303C08FEF80939F
:1009B0000E028091F9018C30A0F491E0980F909391
:1009C000F9018093110290E0FC01EE0FFF1F8E0FE2
:1009D0009F1FFC01EB52FE4F88EB9BE092838183CB
:1009E00003C08FEF809311028DE090E09093170287
:1009F000809316029093190280931802B093FB0122
:100A0000A093FA017093FD016093FC015093FF01E4
:100A10004093FE01309301022093000208957894E0
:100A200084B5826084BD84B5816084BD85B58260F3
:100A300085BD85B5816085BD80916E0081608093A4
:100A40006E0010928100809181008260809381000D
:100A5000809181008160809381008091800081601D
:100A6000809380008091B10084608093B100809178
:100A7000B00081608093B00080917A0084608093A0
:100A80007A0080917A00826080937A0080917A0067
:100A9000816080937A0080917A00806880937A00E8
:100AA0001092C100E0914801F091490182E08083F9
:100AB000E0914401F09145011082E0914601F091EE
:100AC00047018FEC808310925001E0914C01F0912E
:100AD0004D0186E08083E0914A01F0914B018081D5
:100AE00080618083E0914A01F0914B0180818860B0
:100AF0008083E0914A01F0914B018081806880837E
:100B0000E0914A01F0914B0180818F7D8083CEE29C
:100B1000D1E02FB7F89480912A0190912B01A091F8
:100B20002C01B0912D012FBF809340019093410182
:100B3000A0934201B0934301E0913801F091390153
:100B40000284F385E02D88E391E0099597FD2EC09E
:100B50008B33910509F050C080912E01823709F046
:100B600052C0C0912F016C2F70E080E090E04AE00D
:100B70000E94790282E191E00E9467024AE064E605
:100B800070E080E090E00E94790284E191E00E94B0
:100B900067026C2F70E08EEF91E00E945A0264E6CB
:100BA00070E08AEF91E00E945A025AC02FB7F89481
:100BB00080912A0190912B01A0912C01B0912D01DF
:100BC0002FBF4091400150914101609142017091CD
:100BD0004301841B950BA60BB70B40913C01509130
:100BE0003D0160913E0170913F0184179507A60772
:100BF000B70708F4A1CFB0CF899381E0C533D807F8
:100C000009F087CFA9CF8636A9F460E070E0809123
:100C1000FE010E94FC0164E670E0809100020E94E7
:100C2000FC0164E670E08AEF91E00E945A0287E1DD
:100C300091E010C08037A1F460E070E08AEF91E0AD
:100C40000E945A0260E070E08EEF91E00E945A022A
:100C50008DE191E00E94670284E191E00E946702C9
:100C60000E94A60154CFA1E21A2EAA1BBB1BFD01B4
:100C70000DC0AA1FBB1FEE1FFF1FA217B307E4077B
:100C8000F50720F0A21BB30BE40BF50B661F771FD3
:100C9000881F991F1A9469F76095709580959095B3
:100CA0009B01AC01BD01CF010895EE0FFF1F059020
:100CB000F491E02D099481E090E0F8940C946006A2
:040CC000F894FFCFD6
:100CC400000000003D01A600D50084010601E400F7
:100CD400F80020000D0A0067697261720070617289
:040CE40061646F00D8
:107E0000112484B714BE81FFF0D085E080938100F7
:107E100082E08093C00088E18093C10086E0809377
:107E2000C20080E18093C4008EE0C9D0259A86E02C
:107E300020E33CEF91E0309385002093840096BBD3
:107E4000B09BFECF1D9AA8958150A9F7CC24DD24C4
:107E500088248394B5E0AB2EA1E19A2EF3E0BF2EE7
:107E6000A2D0813461F49FD0082FAFD0023811F036
:107E7000013811F484E001C083E08DD089C08234E0
:107E800011F484E103C0853419F485E0A6D080C0E4
:107E9000853579F488D0E82EFF2485D0082F10E0AE
:107EA000102F00270E291F29000F111F8ED06801E7
:107EB0006FC0863521F484E090D080E0DECF843638
:107EC00009F040C070D06FD0082F6DD080E0C81688
:107ED00080E7D80618F4F601B7BEE895C0E0D1E017
:107EE00062D089930C17E1F7F0E0CF16F0E7DF06D8
:107EF00018F0F601B7BEE89568D007B600FCFDCFD4
:107F0000A601A0E0B1E02C9130E011968C91119780
:107F100090E0982F8827822B932B1296FA010C0160
:107F200087BEE89511244E5F5F4FF1E0A038BF0790
:107F300051F7F601A7BEE89507B600FCFDCF97BE46
:107F4000E89526C08437B1F42ED02DD0F82E2BD052
:107F50003CD0F601EF2C8F010F5F1F4F84911BD097
:107F6000EA94F801C1F70894C11CD11CFA94CF0C13
:107F7000D11C0EC0853739F428D08EE10CD085E9AC
:107F80000AD08FE07ACF813511F488E018D01DD067
:107F900080E101D065CF982F8091C00085FFFCCF94
:107FA0009093C60008958091C00087FFFCCF809118
:107FB000C00084FD01C0A8958091C6000895E0E648
:107FC000F0E098E1908380830895EDDF803219F02E
:107FD00088E0F5DFFFCF84E1DECF1F93182FE3DFCA
:107FE0001150E9F7F2DF1F91089580E0E8DFEE27F6
:047FF000FF270994CA
:027FFE00040479
:0400000300007E007B
:00000001FF
