:100000000C949E000C94C6000C94C6000C94C60080
:100010000C94C6000C94C6000C94C6000C94C60048
:100020000C94C6000C94C6000C94C6000C946C058D
:100030000C94C6000C94C6000C94C6000C94C60028
:100040000C9422050C94C6000C94F0040C94CA0481
:100050000C94C6000C94C6000C94C6000C94C60008
:100060000C94C6000C94C60007634236B79BD8A711
:100070001A39685618AEBAAB558C1D3CB7CC5763CD
:10008000BD6DEDFD753EF6177231BF000000803F7B
:1000900008000000BE922449123EABAAAA2ABECD97
:1000A000CCCC4C3E00000080BEABAAAAAA3E000009
:1000B0000000BF000000803F000000000008417801
:1000C000D3BB4387D1133D190E3CC3BD4282AD2B38
:1000D0003E68EC8276BED98FE1A93E4C80EFFFBE30
:1000E00001C4FF7F3F00000000000000000024006A
:1000F00027002A0000000000250028002B0004042F
:1001000004040404040402020202020203030303BF
:10011000030301020408102040800102040810209B
:100120000102040810200000000800020100000382
:10013000040700000000000000002D0611241FBE6F
:10014000CFEFD8E0DEBFCDBF11E0A0E0B1E0E6EA3E
:10015000F8E102C005900D92AE32B107D9F722E066
:10016000AEE2B1E001C01D92A434B207E1F710E0A5
:10017000CEE9D0E004C02197FE010E94460CCD39A3
:10018000D107C9F70E942B070C94510C0C94000066
:10019000CF92DF92EF92FF920F931F93CF93DF9353
:1001A0006C017A018B01C0E0D0E0CE15DF0589F04B
:1001B000D8016D918D01D601ED91FC910190F081F6
:1001C000E02DC6010995892B11F47E0102C021960C
:1001D000ECCFC701DF91CF911F910F91FF90EF906E
:1001E000DF90CF900895089580E090E00895FC019D
:1001F000538D448D252F30E0842F90E0821B930B8C
:10020000541710F0CF96089501970895FC01918D31
:10021000828D981761F0828DDF01A80FB11D5D9668
:100220008C91928D9F5F9F73928F90E008958FEFD6
:100230009FEF0895FC01918D828D981731F0828D8A
:10024000E80FF11D858D90E008958FEF9FEF0895E1
:10025000FC01918D228D892F90E0805C9F4F821B45
:1002600091098F73992708958EE591E00E942801E6
:1002700021E0892B09F420E0822F0895FC01848D70
:10028000DF01A80FB11DA35ABF4F2C91848D90E0C0
:1002900001968F739927848FA689B7892C93A0899B
:1002A000B1898C9180648C93938D848D981306C052
:1002B0000288F389E02D80818F7D80830895EF92FD
:1002C000FF920F931F93CF93DF93EC0181E0888F10
:1002D0009B8D8C8D981305C0E889F989808185FDF7
:1002E00024C0F62E0B8D10E00F5F1F4F0F731127E8
:1002F000E02E8C8DE8120CC00FB607FCFACFE8890F
:10030000F989808185FFF5CFCE010E943E01F1CFB2
:100310008B8DFE01E80FF11DE35AFF4FF0820B8F2A
:10032000EA89FB898081806207C0EE89FF8960834A
:10033000E889F98980818064808381E090E0DF91A1
:10034000CF911F910F91FF90EF900895CF93DF937E
:10035000EC01888D8823C9F0EA89FB89808185FDBD
:1003600005C0A889B9898C9186FD0FC00FB607FC1E
:10037000F5CF808185FFF2CFA889B9898C9185FF5F
:10038000EDCFCE010E943E01E7CFDF91CF910895DE
:1003900080E090E0892B29F00E94340181110C94B7
:1003A0000000089590E0FC01EA5DFE4F3491FC01ED
:1003B000EE5EFE4F2491FC01E250FF4FE491EE23EC
:1003C00009F43BC0332339F1333091F038F4313044
:1003D000A9F0323001F584B58F7D12C0373091F02D
:1003E0003830A1F03430B9F4809180008F7D03C0A3
:1003F000809180008F77809380000DC084B58F77C7
:1004000084BD09C08091B0008F7703C08091B00097
:100410008F7D8093B000F0E0EE0FFF1FEC50FF4F98
:10042000A591B4918FB7F894EC91611103C0209518
:100430002E2301C02E2B2C938FBF0895CF93DF93D3
:1004400090E0FC01EE5EFE4F2491FC01E250FF4F74
:100450008491882361F190E0880F991FFC01E65197
:10046000FF4FC591D491FC01EC50FF4FA591B49181
:10047000611109C09FB7F8948881209582238883F1
:10048000EC912E230BC0623061F49FB7F894388151
:10049000822F809583238883EC912E2B2C939FBFF2
:1004A00006C08FB7F894E8812E2B28838FBFDF9189
:1004B000CF9108951F93CF93DF93182FEB0161E045
:1004C0000E941E02209711F460E004C0CF3FD105C6
:1004D00039F461E0812FDF91CF911F910C94D2010B
:1004E000E12FF0E0EA5DFE4FE491E330F9F048F4EB
:1004F000E130B9F0E230A1F584B5806284BDC8BDB9
:1005000034C0E730E9F0E83019F1E43049F5809182
:100510008000806280938000D0938B00C0938A001B
:1005200024C084B5806884BDC7BD1FC08091800091
:10053000806880938000D0938900C093880015C0A4
:100540008091B00080688093B000C093B3000DC06C
:100550008091B00080628093B000C093B40005C069
:10056000C038D1050CF0B5CFAFCFDF91CF911F913F
:1005700008953FB7F8948091590190915A01A09144
:100580005B01B0915C0126B5A89B05C02F3F19F017
:100590000196A11DB11D3FBFBA2FA92F982F882703
:1005A000820F911DA11DB11DBC01CD0142E0660F5E
:1005B000771F881F991F4A95D1F708958F929F92B0
:1005C000AF92BF92CF92DF92EF92FF920E94B90258
:1005D0004B015C0184E6C82ED12CE12CF12C0E9449
:1005E000B902DC01CB0188199909AA09BB09883E27
:1005F0009340A105B10558F021E0C21AD108E108E5
:10060000F10888EE880E83E0981EA11CB11CC1146D
:10061000D104E104F10419F7FF90EF90DF90CF903F
:10062000BF90AF909F908F900895FC0190915301DF
:100630009C30A0F481E0890F809353019083892F2F
:1006400090E0FC01EE0FFF1F8E0F9F1FFC01E15D8C
:10065000FE4F88EB9BE09283818308958FEF808328
:100660000895CF93DF93EC0188810E945A0260E0E5
:1006700070E08A81DF91CF910C945A02CF93DF937F
:10068000EC01BC018EEF91E00E943103BE0182E0DB
:1006900092E0DF91CF910C9431033F924F925F92A1
:1006A0006F927F928F929F92AF92BF92CF92DF9282
:1006B000EF92FF920F931F93CF93DF93CDB7DEB7E7
:1006C000CA55D1090FB6F894DEBF0FBECDBF182FA3
:1006D00060E00E941E0281E08093000182EF810FA2
:1006E0001E3008F0182F1770312E8E010D5C1F4F31
:1006F000280128E2420E511C3801C12CD12C760170
:1007000088248A9483E0982EA12CB12CFE01319686
:100710008091000120E4829FC001112483298093ED
:100720007C0080917A00806480937A0080917A00C6
:1007300086FDFCCF809178002091790090E0922B8B
:1007400081939193E017F10719F788E190E0FE019A
:10075000319620E030E0A1E0281739078CF4619150
:10076000719140815181461757073CF4DF01129780
:100770004D935C9371836083A0E02F5F3F4FECCF7C
:10078000A11102C0019719F7A98DBA8D28E833E1AC
:100790000E943F0CA50194010E945A08CA01B901A8
:1007A0000E94540920E030E04AE754E40E94AA087D
:1007B0002EE03DE24AE95FEB0E944D0A22EF32ED66
:1007C0004DED51E40E94E0090E941C09F301619380
:1007D00071933F01CB01770FAA0BBB0BC80ED91E3B
:1007E000EA1EFB1EE415F50509F090CFC701B6011E
:1007F00024E130E040E050E00E94790869017A018C
:10080000A90160E070E0CB01F801219131918F01E5
:10081000F901E41BF50BEE9F9001EF9F300D300DB9
:1008200011244901330FAA08BB08680D791D8A1DE0
:100830009B1D0415150541F724E130E040E050E030
:100840000E9479082432310524F4C60184329105CE
:1008500014F083E290E0C65ADF4F0FB6F894DEBF83
:100860000FBECDBFDF91CF911F910F91FF90EF9001
:10087000DF90CF90BF90AF909F908F907F906F90C0
:100880005F904F903F900895009769F0FC010190B0
:100890000020E9F73197AF01481B590BBC018EE5E9
:1008A00091E00C94C80080E090E008958F929F92B0
:1008B000AF92BF920F931F93CF93DF93CDB7DEB765
:1008C000A1970FB6F894DEBF0FBECDBF19A242307C
:1008D00008F44AE08E010F5D1F4F842E912CA12C4D
:1008E000B12CA50194010E947908E62FB901CA0133
:1008F00001501109EA3014F4E05D01C0E95CD8014F
:10090000EC93232B242B252B61F7C8010E94440470
:10091000A1960FB6F894DEBF0FBECDBFDF91CF9189
:100920001F910F91BF90AF909F908F900895CF929D
:10093000DF92EF92FF92CF93DF936B017C01E09106
:100940005E01F0915F010190F081E02D6DE28EE596
:1009500091E00995EC0166277727CB016C197D0999
:100960008E099F094AE00E9456048C0F9D1FDF915B
:10097000CF91FF90EF90DF90CF900895BC01990F39
:10098000880B990B97FD0C9497044AE00C9456043D
:100990000E944C0C1F920F920FB60F9211242F93AE
:1009A0003F934F935F936F937F938F939F93AF93F7
:1009B000BF93EF93FF938EE591E00E943E01FF917C
:1009C000EF91BF91AF919F918F917F916F915F91C7
:1009D0004F913F912F910F900FBE0F901F90189540
:1009E0001F920F920FB60F9211242F938F939F9304
:1009F000EF93FF93E0916E01F0916F018081E091A0
:100A00007401F091750182FD12C09081809177018F
:100A10008F5F8F7320917801821751F0E0917701F9
:100A2000F0E0E25AFE4F958F8093770101C08081FC
:100A3000FF91EF919F918F912F910F900FBE0F908B
:100A40001F9018951F920F920FB60F9211242F939B
:100A50003F938F939F93AF93BF9380915501909154
:100A60005601A0915701B09158013091540123E0F3
:100A7000230F2D3720F40196A11DB11D05C026E8D6
:100A8000230F0296A11DB11D20935401809355019F
:100A900090935601A0935701B0935801809159014A
:100AA00090915A01A0915B01B0915C010196A11D4A
:100AB000B11D8093590190935A01A0935B01B093AB
:100AC0005C01BF91AF919F918F913F912F910F90BA
:100AD0000FBE0F901F9018951F920F920FB60F9296
:100AE00011242F933F934F935F936F937F938F9333
:100AF0009F93AF93BF93EF93FF9380912E0187FF56
:100B000005C010928500109284001BC020912E0118
:100B1000022E000C330B8091530190E02817390707
:100B200084F480912E01082E000C990BFC01EE0F2D
:100B3000FF1F8E0F9F1FFC01E15DFE4F808186FD30
:100B400015C080912E018F5F80932E0120912E0180
:100B5000022E000C330B8091530190E028173907C7
:100B6000C4F480912E018C3064F113C080912E0169
:100B7000082E000C990BFC01EE0FFF1F8E0F9F1F1C
:100B8000FC01E15DFE4F808160E08F730E94D20125
:100B9000D8CF8091840090918500049680349C4940
:100BA00018F480E49CE905C0809184009091850050
:100BB000049690938900809388008FEF80932E0194
:100BC0003BC0209184003091850080912E01082E39
:100BD000000C990BFC01EE0FFF1F8E0F9F1FFC01F5
:100BE000E15DFE4F81819281820F931F9093890076
:100BF0008093880080912E01082E000C990BFC0137
:100C0000EE0FFF1F8E0F9F1FFC01E15DFE4F8081E5
:100C100086FF12C080912E01082E000C990BFC015A
:100C2000EE0FFF1F8E0F9F1FFC01E15DFE4F8081C5
:100C300061E08F730E94D201FF91EF91BF91AF915C
:100C40009F918F917F916F915F914F913F912F91E4
:100C50000F900FBE0F901F9018956F927F928F92FA
:100C60009F92AF92BF92CF92DF92EF92FF920F933B
:100C70001F93CF93DF93CDB7DEB760970FB6F8948D
:100C8000DEBF0FBECDBFEEE5F1E01382128288EE2B
:100C900093E0A0E0B0E084839583A683B78385E0EA
:100CA00091E09183808385EC90E09587848784EC44
:100CB00090E09787868780EC90E0918B808B81EC29
:100CC00090E0938B828B82EC90E0958B848B86EC0A
:100CD00090E0978B868B118E128E138E148E00E40B
:100CE00012E08BE090E0F801918380839AE0E92E96
:100CF000F12CF382E28261E00E941E0261E0F801C1
:100D000082810E941E020CE312E028E0A22EB12C88
:100D1000F801B182A08239E0C32ED12CD382C282E5
:100D200061E088E00E941E0261E0F80182810E9479
:100D30001E0208E312E084E090E0F80191838083D2
:100D400085E090E09383828361E084E00E941E024C
:100D500061E0F80182810E941E02F801808091808A
:100D60006280738088E292E00E9415038BE292E039
:100D70000E94150308E212E0F801B782A682D3862A
:100D8000C286F186E086958684867786668662E0EE
:100D900089E10E941E0262E088E10E941E0280E159
:100DA000F801DE01119601900D928A95E1F7F801A4
:100DB00086809780C084D184A284B3840EEF11E032
:100DC0004DE0E42EF12CF801F182E082F382E28220
:100DD000F582E482F782E68282E192E00E941503C6
:100DE00085E192E00E941503F801F5A2E4A2F7A2C2
:100DF000E6A281E090E091A780A7938E828EB78EC5
:100E0000A68ED58EC48E8D859E85AF85B88991A31B
:100E100080A3B3A3A2A362E089E10E941E0262E064
:100E200088E10E941E028BEF91E060960FB6F89465
:100E3000DEBF0FBECDBFDF91CF911F910F91FF900D
:100E4000EF90DF90CF90BF90AF909F908F907F906A
:100E50006F900C941503789484B5826084BD84B53A
:100E6000816084BD85B5826085BD85B5816085BDA5
:100E700080916E00816080936E001092810080915D
:100E800081008260809381008091810081608093E5
:100E90008100809180008160809380008091B1000A
:100EA00084608093B1008091B00081608093B00035
:100EB00080917A00846080937A0080917A008260C9
:100EC00080937A0080917A00816080937A0080918B
:100ED0007A00806880937A001092C100E0916E01E0
:100EE000F0916F0182E08083E0916A01F0916B01E3
:100EF0001082E0916C01F0916D018FEC8083109273
:100F00007601E0917201F091730186E08083E091B7
:100F10007001F0917101808180618083E0917001A6
:100F2000F0917101808188608083E0917001F0917F
:100F30007101808180688083E0917001F09171017E
:100F400080818F7D8083C0E2C0935D018EE591E05A
:100F50000E942801181619060CF0A9C08EE591E030
:100F60000E94060180935D01863609F46AC0BCF4D4
:100F7000843609F440C00CF051C0813609F097C0A6
:100F800060E070E0809102020E945A0264EB70E01F
:100F9000809104020E945A0264EB70E047C08337DC
:100FA00099F0873761F0813709F081C068EC70E013
:100FB00082E092E00E94310366E970E037C086E982
:100FC00090E00E943E0336C060E070E08091FE0138
:100FD0000E945A0266E970E0809100020E945A0263
:100FE00060E070E0809102020E945A0266E970E0BF
:100FF0008091040210C064EB70E082E092E00E94F5
:10100000310360E070E08091FE010E945A0264EBBF
:1010100070E0809100020E945A020CC066E970E004
:1010200082E092E00E94310368EC70E08EEF91E084
:101030000E9431030E94DE0280E090E00E943E03A5
:1010400036C083E191E00E94440482E090E00E9477
:101050004D030E94BE0489E191E00E94440483E0B4
:1010600090E00E944D030E94BE048FE191E00E9437
:10107000440485E090E00E944D030E94BE0485E296
:1010800091E00E94440484E090E00E944D03BC0182
:10109000990F880B990B97FF03C00E94970403C018
:1010A0004AE00E9456048BE291E00E9444040E94B0
:1010B000C8014ACF052E97FB1EF400940E947108C8
:1010C00057FD07D00E94790807FC03D04EF40C941A
:1010D000710850954095309521953F4F4F4F5F4F88
:1010E000089590958095709561957F4F8F4F9F4F94
:1010F0000895A1E21A2EAA1BBB1BFD010DC0AA1F59
:10110000BB1FEE1FFF1FA217B307E407F50720F070
:10111000A21BB30BE40BF50B661F771F881F991FEB
:101120001A9469F760957095809590959B01AC0134
:10113000BD01CF010895A29FB001B39FC001A39F3D
:10114000700D811D1124911DB29F700D811D112400
:10115000911D08950E94BE080C94A6090E949F0943
:1011600058F00E94980940F029F45F3F29F00C9450
:101170008F0951110C94DA090C9495090E94B70952
:1011800068F39923B1F3552391F3951B550BBB27B6
:10119000AA2762177307840738F09F5F5F4F220FFB
:1011A000331F441FAA1FA9F335D00E2E3AF0E0E8F2
:1011B00032D091505040E695001CCAF72BD0FE2F3C
:1011C00029D0660F771F881FBB1F261737074807D0
:1011D000AB07B0E809F0BB0B802DBF01FF27935888
:1011E0005F4F3AF09E3F510578F00C948F090C94B4
:1011F000DA095F3FE4F3983ED4F3869577956795D7
:10120000B795F7959F5FC9F7880F911D96958795BC
:1012100097F90895E1E0660F771F881FBB1F6217DB
:1012200073078407BA0720F0621B730B840BBA0B99
:10123000EE1F88F7E09508950E9423096894B11184
:101240000C94DA0908950E94BF0988F09F5798F01E
:10125000B92F9927B751B0F0E1F0660F771F881FBB
:10126000991F1AF0BA95C9F714C0B13091F00E94D5
:10127000D909B1E008950C94D909672F782F8827F0
:10128000B85F39F0B93FCCF3869577956795B395FC
:10129000D9F73EF490958095709561957F4F8F4F6B
:1012A0009F4F0895E89409C097FB3EF49095809570
:1012B000709561957F4F8F4F9F4F9923A9F0F92F1C
:1012C00096E9BB279395F695879577956795B7959A
:1012D000F111F8CFFAF4BB0F11F460FF1BC06F5F80
:1012E0007F4F8F4F9F4F16C0882311F096E911C092
:1012F000772321F09EE8872F762F05C0662371F0B3
:1013000096E8862F70E060E02AF09A95660F771FC6
:10131000881FDAF7880F9695879597F9089597F9BA
:101320009F6780E870E060E008959FEF80EC08958B
:1013300000240A94161617061806090608950024B4
:101340000A9412161306140605060895092E03942E
:10135000000C11F4882352F0BB0F40F4BF2B11F4A2
:1013600060FF04C06F5F7F4F8F4F9F4F089557FD01
:101370009058440F551F59F05F3F71F04795880F03
:1013800097FB991F61F09F3F79F08795089512169A
:1013900013061406551FF2CF4695F1DF08C0161646
:1013A00017061806991FF1CF8695710561050894F7
:1013B0000895E894BB2766277727CB0197F908950E
:1013C0000E94F3090C94A6090E94980938F00E9423
:1013D0009F0920F0952311F00C948F090C94950926
:1013E00011240C94DA090E94B70970F3959FC1F398
:1013F000950F50E0551F629FF001729FBB27F00DC3
:10140000B11D639FAA27F00DB11DAA1F649F662717
:10141000B00DA11D661F829F2227B00DA11D621F66
:10142000739FB00DA11D621F839FA00D611D221F20
:10143000749F3327A00D611D231F849F600D211D04
:10144000822F762F6A2F11249F5750409AF0F1F087
:1014500088234AF0EE0FFF1FBB1F661F771F881FF0
:1014600091505040A9F79E3F510580F00C948F0990
:101470000C94DA095F3FE4F3983ED4F386957795B0
:101480006795B795F795E7959F5FC1F7FE2B880F96
:10149000911D9695879597F90895FA01EE0FFF1F14
:1014A000309621053105A1F16115710561F480388F
:1014B000BFE39B0749F168949038810561F080385B
:1014C000BFEF9B0741F099234AF5FF3FE105310546
:1014D000210519F1E8940894E795D901AA2329F484
:1014E000AB2FBE2FF85FD0F310C0FF5F70F4A6954E
:1014F000E0F7F73950F019F0FF3A38F49F779F93EF
:101500000DD00F9007FC9058089546F00C94950963
:1015100060E070E080E89FE308954FE79F775F9376
:101520004F933F932F930E94480B2F913F914F91E0
:101530005F910E94E0090C94A50A29F416F00C941E
:101540008F090C94D9090C9495090E94BF09A8F33E
:101550009638A0F707F80F92E8942BE33AEA48EBA5
:101560005FE70E94F6090F920F920F924DB75EB798
:101570000F920E94900BE8E6F0E00E94D70A4F918C
:101580005F91EF91FF91E595EE1FFF1F49F0FE5728
:10159000E0684427EE0F441FFA95E1F74195550B9B
:1015A0000E940A0B0F9007FE0C94FE0A0895DF9329
:1015B000CF931F930F93FF92EF92DF927B018C01E9
:1015C000689406C0DA2EEF010E94F309FE01E89448
:1015D000A5912591359145915591A6F3EF010E9472
:1015E000DC0BFE019701A801DA9469F7DF90EF9018
:1015F000FF900F911F91CF91DF9108959B01AC0156
:1016000060E070E080E89FE30C94AA080C948F09D6
:101610000C94310C0E94BF09D8F39923C9F3940F9D
:10162000511DA3F39150504094F059F0882332F0AB
:10163000660F771F881F91505040C1F79E3F51059C
:101640002CF7880F911D9695879597F908955F3F20
:10165000ACF0983E9CF0BB27869577956795B7953B
:1016600008F4B1609395C1F7BB0F58F711F460FF10
:10167000E8CF6F5F7F4F8F4F9F4FE3CF0C94DA0916
:1016800016F00C94310C0C94950968940C948F0905
:101690000E94BF09A8F39923C1F3AEF3DF93CF9360
:1016A0001F930F93FF92C92FDD2788232AF02197DC
:1016B000660F771F881FDAF720E030E040E85FEB25
:1016C0009FE3883920F0803E38F021968F770E9482
:1016D000C50BE0E9F0E004C00E94C50BEDEBF0E0C3
:1016E0000E94D70A8B01BE01EC01FB2E6F577109D6
:1016F0007595771F880B990B0E94540928E132E7F2
:1017000041E35FE30E94F309AF2D9801AE01FF9022
:101710000F911F91CF91DF910E94DC0B0C94A609D1
:10172000FA01DC01AA0FBB1F9B01AC01BF5728F4D3
:10173000222733274427507820C0B75190F4AB2F8D
:101740000024469537952795011CA395D2F30020D8
:1017500071F0220F331F441FB395DAF30ED00C94AF
:10176000C40B61307105A0E88A07B94630F49B01CB
:10177000AC016627772788279078309621F0208360
:1017800031834283538308955058BB27AA270E9470
:10179000DC0B0C94A6090E94980938F00E949F095E
:1017A00020F039F49F3F19F426F40C9495090EF4B7
:1017B000E095E7FB0C948F09E92F0E94B70958F3D5
:1017C000BA17620773078407950720F079F4A6F526
:1017D0000C94D9090EF4E0950B2EBA2FA02D0B0115
:1017E000B90190010C01CA01A0011124FF27591B66
:1017F00099F0593F50F4503E68F11A16F040A22F6C
:10180000232F342F4427585FF3CF469537952795DC
:10181000A795F0405395C9F77EF41F16BA0B620BDB
:10182000730B840BBAF09150A1F0FF0FBB1F661F22
:10183000771F881FC2F70EC0BA0F621F731F841F65
:1018400048F4879577956795B795F7959E3F08F08B
:10185000B0CF9395880F08F09927EE0F979587954D
:1018600008959F3F31F0915020F4879577956795C3
:10187000B795880F911D9695879597F908950E94C1
:101880009B08B7FF0895821B930B0895EE0FFF1F6F
:101890000590F491E02D099481E090E0F8940C9487
:0618A000510CF894FFCF8B
:1018A60001000000005F01C800F700A6012801063C
:1018B600011A012053323A20002053333A200020E7
:0E18C60053343A20002053353A20000D0A001A
:00000001FF
