:100000000C945D000C9485000C9485000C94850084
:100010000C9485000C9485000C9485000C9485004C
:100020000C9485000C9485000C9485000C9485003C
:100030000C9485000C9485000C9485000C9485002C
:100040000C94BA010C9485000C9485000C948500E6
:100050000C9485000C9485000C9485000C9485000C
:100060000C9485000C94850000000008000201003B
:100070000003040700000000000000000000000072
:10008000250028002B0000000000240027002A0083
:10009000040404040404040402020202020203032E
:1000A0000303030301020408102040800102040836
:1000B0001020010204081020840211241FBECFEF7B
:1000C000D8E0DEBFCDBF11E0A0E0B1E0EAE9F8E0A2
:1000D00002C005900D92A231B107D9F721E0A2E14B
:1000E000B1E001C01D92A733B207E1F710E0CDE502
:1000F000D0E004C02197FE010E941803CC35D1073F
:10010000C9F70E9404020C944B040C94000090E088
:10011000FC01EC55FF4F2491FC01E057FF4F849107
:10012000882399F090E0880F991FFC01EA57FF4F50
:10013000A591B491FC01E458FF4F859194918FB73C
:10014000F894EC91E22BEC938FBF089590E0FC01C2
:10015000E859FF4F3491FC01EC55FF4F2491FC010D
:10016000E057FF4FE491EE2309F43BC0332339F10C
:10017000333091F038F43130A9F0323001F584B5E4
:100180008F7D12C0373091F03830A1F03430B9F49F
:10019000809180008F7D03C0809180008F77809355
:1001A00080000DC084B58F7784BD09C08091B000F8
:1001B0008F7703C08091B0008F7D8093B000F0E016
:1001C000EE0FFF1FE458FF4FA591B4918FB7F8943D
:1001D000EC91611103C020952E2301C02E2B2C938E
:1001E0008FBF08951F93CF93DF93182FEB010E94C9
:1001F0008700209711F460E004C0CF3FD10539F4A7
:1002000061E0812FDF91CF911F910C94A600E12F27
:10021000F0E0E859FF4FE491E330F9F048F4E130C1
:10022000B9F0E230A1F584B5806284BDC8BD34C0A8
:10023000E730E9F0E83019F1E43049F580918000C9
:10024000806280938000D0938B00C0938A0024C08A
:1002500084B5806884BDC7BD1FC080918000806860
:1002600080938000D0938900C093880015C080914E
:10027000B00080688093B000C093B3000DC080913F
:10028000B00080628093B000C093B40005C0C03855
:10029000D1050CF0B5CFAFCFDF91CF911F9108956D
:1002A0003FB7F8948091230190912401A0912501FA
:1002B000B091260126B5A89B05C02F3F19F00196E5
:1002C000A11DB11D3FBFBA2FA92F982F8827820FDC
:1002D000911DA11DB11DBC01CD0142E0660F771F2C
:1002E000881F991F4A95D1F708958F929F92AF92D8
:1002F000BF92CF92DF92EF92FF920E9450014B018A
:100300005C0188EEC82E83E0D82EE12CF12C0E94EF
:100310005001DC01CB0188199909AA09BB09883E63
:100320009340A105B10558F021E0C21AD108E108B7
:10033000F10888EE880E83E0981EA11CB11CC11440
:10034000D104E104F10419F7FF90EF90DF90CF9012
:10035000BF90AF909F908F900895CF93DF93EC0163
:1003600088810E94F20060E070E08A81DF91CF9185
:100370000C94F2001F920F920FB60F9211242F933C
:100380003F938F939F93AF93BF9380911F01909161
:100390002001A0912101B091220130911E0123E0A2
:1003A000230F2D3720F40196A11DB11D05C026E8AD
:1003B000230F0296A11DB11D20931E0180931F01E2
:1003C00090932001A0932101B093220180912301F9
:1003D00090912401A0912501B09126010196A11DC3
:1003E000B11D8093230190932401A0932501B09324
:1003F0002601BF91AF919F918F913F912F910F90C7
:100400000FBE0F901F901895789484B5826084BDBC
:1004100084B5816084BD85B5826085BD85B5816008
:1004200085BD80916E00816080936E001092810086
:100430008091810082608093810080918100816041
:100440008093810080918000816080938000809102
:10045000B10084608093B1008091B000816080938E
:10046000B00080917A00846080937A0080917A0055
:10047000826080937A0080917A00816080937A0014
:1004800080917A00806880937A001092C100C0E069
:10049000D0E06FEF70E087E291E00E94AD016FEF76
:1004A00070E08BE291E00E94AD010E94750160E076
:1004B00070E0809127010E94F2006FEF70E0809160
:1004C00029010E94F20060E070E080912B010E94FF
:1004D000F2006FEF70E080912D010E94F2000E9407
:1004E000750160EF70E087E291E00E94AD0168E77E
:1004F00070E08BE291E00E94AD010E9475012097AF
:1005000041F20E940000C5CFCF93DF93C6E0D0E058
:10051000D0931B01C0931A0189E090E090931D01D4
:1005200080931C0186E00E94870080911C010E943C
:10053000870083E090E0909317018093160185E097
:1005400090E0909319018093180183E00E94870046
:10055000809118010E948700D0931501C093140167
:1005600088E190E00E941E03DC019C01285E3F4F61
:10057000FC014DE050E05183408313821282349697
:10058000E217F307C1F79093130180931201E0E0A3
:10059000F1E0EC012191319139832883249681E0A7
:1005A000EC30F807B9F760911A0170911B01409186
:1005B0001C0150911D01209116013091170180916D
:1005C0001801909119011092300110922F0170932F
:1005D00028016093270150932A0140932901309309
:1005E0002C0120932B0190932E0180932D0186E006
:1005F00090E09093320180933101E0E0F0E02DE053
:1006000030E031832083138212828D919C91119767
:100610009183808312968D919C911397938382830B
:1006200034961496E831F10561F7DF91CF91089582
:10063000EE0FFF1F0590F491E02D0994CF93DF9307
:100640008230910510F482E090E0E0913501F09164
:10065000360120E030E0C0E0D0E0309711F1408179
:10066000518148175907C0F04817590761F4828132
:100670009381209719F09B838A832BC09093360136
:100680008093350126C02115310519F04217530713
:1006900018F49A01BE01DF01EF010280F381E02D21
:1006A000DCCF2115310509F1281B390B2430310528
:1006B00090F412968D919C9113976115710521F01C
:1006C000FB019383828304C09093360180933501AC
:1006D000FD01329644C0FD01E20FF31F8193919317
:1006E000225031092D933C933AC02091330130912F
:1006F0003401232B41F420910E0130910F013093EE
:1007000034012093330120910C0130910D0121150A
:10071000310541F42DB73EB74091100150911101C0
:10072000241B350BE0913301F0913401E217F307FC
:10073000A0F42E1B3F0B2817390778F0AC014E5F51
:100740005F4F2417350748F04E0F5F1F5093340159
:10075000409333018193919302C0E0E0F0E0CF0138
:10076000DF91CF9108950F931F93CF93DF9300975D
:1007700009F48CC0FC01329713821282009135017A
:10078000109136010115110581F420813181820F0C
:10079000931F20913301309134012817390779F5DF
:1007A000F0933401E093330171C0D80140E050E090
:1007B000AE17BF0750F412962D913C911397AD01DF
:1007C0002115310509F1D901F3CF9D01DA013383F8
:1007D000228360817181860F971F8217930769F4C6
:1007E000EC0128813981260F371F2E5F3F4F31835F
:1007F00020838A819B8193838283452B29F4F09304
:100800003601E093350142C01396FC93EE931297A4
:10081000ED01499159919E01240F351FE217F3070D
:1008200071F480819181840F951F029611969C939B
:100830008E938281938113969C938E931297E0E01E
:10084000F0E0D80112968D919C911397009719F0C2
:10085000F8018C01F6CF8D919C9198012E5F3F4F4E
:10086000820F931F209133013091340128173907EB
:1008700069F4309729F4109236011092350102C0C4
:10088000138212821093340100933301DF91CF91D0
:0A0890001F910F910895F894FFCF17
:10089A000000010002000300060007000000370103
:0208AA008000CC
:107E0000112484B714BE81FFF0D085E080938100F7
:107E100082E08093C00088E18093C10086E0809377
:107E2000C20080E18093C4008EE0C9D0259A86E02C
:107E300020E33CEF91E0309385002093840096BBD3
:107E4000B09BFECF1D9AA8958150A9F7CC24DD24C4
:107E500088248394B5E0AB2EA1E19A2EF3E0BF2EE7
:107E6000A2D0813461F49FD0082FAFD0023811F036
:107E7000013811F484E001C083E08DD089C08234E0
:107E800011F484E103C0853419F485E0A6D080C0E4
:107E9000853579F488D0E82EFF2485D0082F10E0AE
:107EA000102F00270E291F29000F111F8ED06801E7
:107EB0006FC0863521F484E090D080E0DECF843638
:107EC00009F040C070D06FD0082F6DD080E0C81688
:107ED00080E7D80618F4F601B7BEE895C0E0D1E017
:107EE00062D089930C17E1F7F0E0CF16F0E7DF06D8
:107EF00018F0F601B7BEE89568D007B600FCFDCFD4
:107F0000A601A0E0B1E02C9130E011968C91119780
:107F100090E0982F8827822B932B1296FA010C0160
:107F200087BEE89511244E5F5F4FF1E0A038BF0790
:107F300051F7F601A7BEE89507B600FCFDCF97BE46
:107F4000E89526C08437B1F42ED02DD0F82E2BD052
:107F50003CD0F601EF2C8F010F5F1F4F84911BD097
:107F6000EA94F801C1F70894C11CD11CFA94CF0C13
:107F7000D11C0EC0853739F428D08EE10CD085E9AC
:107F80000AD08FE07ACF813511F488E018D01DD067
:107F900080E101D065CF982F8091C00085FFFCCF94
:107FA0009093C60008958091C00087FFFCCF809118
:107FB000C00084FD01C0A8958091C6000895E0E648
:107FC000F0E098E1908380830895EDDF803219F02E
:107FD00088E0F5DFFFCF84E1DECF1F93182FE3DFCA
:107FE0001150E9F7F2DF1F91089580E0E8DFEE27F6
:047FF000FF270994CA
:027FFE00040479
:0400000300007E007B
:00000001FF
